:100000000C941B050C9462050C9462050C9462051B
:100010000C9462050C9462050C9462050C946205C4
:100020000C9462050C9462050C94762E0C94B22DFF
:100030000C9499300C9462050C9462050C94620542
:100040000C9462050C9462050C9462050C94620594
:100050000C9462050C9458300C9462050C94620563
:100060000C9462050C9462050C9462050C94620574
:100070000C9462050C9462050C9462050C94620564
:100080000C9462050C9462050C9462050C94620554
:100090000C9462050C9462050C9462050C94620544
:1000A0000C9462050C9462050C946205F70BF70B37
:1000B0002F0C2F0CC20CDE0CB50EB50EEB0CC80DC0
:1000C000D70DD70DD014EA14F014201620162815D9
:1000D0003415431520164B157215831599159C156B
:1000E00086268626982698268F269826982698264D
:1000F000862686269426982698269426BA2BE12BC7
:10010000942DE12B942D2D2C502C942D512D612DBF
:100110007F3F1F643214783C1E1E140A0501000143
:10012000008A0200000200020086020000030001B3
:10013000008B020000040002007002501F05000145
:10014000008C02000006000200720200000700029C
:100150000088020000080001008D02000009000272
:100160000074022B1F0A00020076022B1F0B0002F4
:100170000078022B1F0C0002007A022B1F0D0002D8
:10018000007C022B1F0E0002007E022B1F0F0002BC
:100190000080022B1F1000020082022B1F110002A0
:1001A0000084022B1F120002008E020000130002C6
:1001B0000090020000FD377A585A000004E6D6B4D9
:1001C000460200210116000000742FE5A3E004821E
:1001D00001A45D003D8889C65436C3174FE4DDF99C
:1001E0000D50A142EF6F6C1267D0372F9745B3E9DE
:1001F000432A53AA3AD7843FAD42E2748D98CF4543
:10020000B63CE9BC459B5EE4A115EC003D33DA0A3F
:10021000ED1469DBC3F64AC2A63FFE8925B68020ED
:1002200095A21B3D8075ABBFB40A3EEA4A3ED90990
:10023000C78657CB099342FFD1B624DF78BE220987
:10024000F6C4A8FD16966FA72FC9A138D6D35B8D2B
:1002500020D74ABBF6624018C1A6AC25B35E949A7B
:1002600009CA7F171D0E44035B6E14E56AA04EA9F0
:100270008AC8653CC6D91B39585DC1832CCF7DAD7A
:10028000C84066E5F1DCFF2CAE1F1B4A199B2273A8
:10029000D8DD0FFB64811DDEEEFF550D3EA2BAAE28
:1002A000553F7A49EAE8CF7746E7A46274BBD38129
:1002B000F8B779D1F72AEA684F5B0F863D57DD1012
:1002C00045DA272F96906314CC3F7AC19FE6B17828
:1002D000AAA1171ED53F12AA0EC08592E5AEABC3E8
:1002E00087AAFBC739B6E8D9219F27E32BEC76C450
:1002F0009409D431073B167C5ACE72F4502987CC2E
:10030000046DD182210F0EDF29CA5C3C7C864B8AAA
:10031000307144A4445B4D920165999C4EF47CDDA0
:10032000C7FBF1A37062AE4934AED75EE5A7C85FE4
:1003300075F32D5BC9ED3998B0B8D4A2A19B5D913E
:10034000E0147A715F81F692E11F54E01C7E72EF37
:100350004FA6F450DD55C4B5D7B1C43BA0EAA548BB
:10036000EBB7C8B9945D738CD8466C75BD1786EF32
:10037000D34EA3A062CE130000B2203B16C81316C2
:10038000BA0001C00383090000E3922065B1C4678D
:10039000FB020000000004595A00000000000000A9
:1003A000000000000000000000000000000000004D
:1003B000000000000000000000000000007E0F00B0
:1003C000D4FFFFFFC700000078000000000000001D
:1003D000002A2B28000000000000000000000000A0
:1003E0000000000029000000002C1E3420212224DF
:1003F000342627252E362D3738271E1F202122236D
:100400002425263333362E37381F040506070809FE
:100410000A0B0C0D0E0F10111213141516171819C4
:100420001A1B1C1D2F3130232D3504050607080922
:100430000A0B0C0D0E0F10111213141516171819A4
:100440001A1B1C1D2F3130354C0001010101010127
:10045000010101020202020202020202030303037B
:10046000030303030404040404040405050505054B
:100470000606060606070707070708080808090909
:1004800009090A0A0A0B0B0B0C0C0C0D0D0D0E0EB4
:100490000E0F0F0F10101111111212131314141547
:1004A0001516161717181819191A1A1B1B1C1D1DBB
:1004B0001E1E1F2020212222232424252626272811
:1004C00029292A2B2C2D2D2E2F3031323233343541
:1004D000363738393A3B3C3D3E3F40414243444544
:1004E000464748494A4C4D4E4F5051535455565823
:1004F000595A5B5D5E5F616264656668696B6C6DCD
:100500006F7072737577787A7B7D7E808283858742
:10051000888A8C8E8F91939596989A9C9EA0A2A380
:10052000A5A7A9ABADAFB1B3B5B7BABCBEC0C2C485
:10053000C6C9CBCDCFD1D4D6D8DBDDDFE2E4E7E945
:10054000EBEEF0F3F5F8FAFDFFFFAA7F554022230A
:10055000252628292A2C2D2F3032333536383A3BA0
:100560003D3E4042434547494A4C4E5051535557F2
:10057000595A5C5E6062646668696B6D6F71737511
:1005800077797B7D7F81838587898A8C8E90929411
:1005900096989A9C9E9FA1A3A5A7A8AAACAEAFB11E
:1005A000B3B4B6B8B9BBBCBEBFC1C2C3C5C6C7C968
:1005B000CACBCCCDCED0D1D2D2D3D4D5D6D7D7D822
:1005C000D9D9DADADBDBDBDCDCDCDCDCDDDDDDDD74
:1005D000DCDCDCDCDCDBDBDBDADAD9D9D8D7D7D67C
:1005E000D5D4D3D2D2D1D0CECDCCCBCAC9C7C6C533
:1005F000C3C2C1BFBEBCBBB9B8B6B4B3B1AFAEAC79
:10060000AAA8A7A5A3A19F9E9C9A98969492908E23
:100610008C8A89878583817F7D7B79777573716FFC
:100620006D6B6968666462605E5C5A5957555351D8
:10063000504E4C4A4947454342403E3D3B3A38368E
:10064000353332302F2D2C2A292826252322290024
:100650001E001F002000210022002300240025008E
:10066000260027002D002E002A0049002B00140030
:100670001A000800150017001C0018000C001200DA
:1006800013002F00300031004C0039000400160028
:10069000070009000A000B000D000E000F003300D8
:1006A0003400310028000000E10064001D001B0040
:1006B0000600190005001100100036003700380050
:1006C000E50052000000E000E300E200000000004E
:1006D00000002C0000000000E6000151E400500082
:1006E00051004F0001000100010001000100010064
:1006F00001000100010001000100010001000100F2
:1007000001000100010001000100010001000100E1
:1007100001000100010001000100010001000100D1
:1007200001000100010001000100010001000100C1
:1007300001000100010001000100010000000100B2
:1007400001000100010001000100010001000100A1
:100750000100010001000100010000000100010092
:100760000100000000000000010000000000010086
:100770000100010001000100010001000100010071
:100780000100010001000100010001000100010061
:100790000100010001000100010001000100010051
:1007A0000100010001000100010001000100010041
:1007B0000100010001000100010001000100010031
:1007C0000100010001000100010001000100010021
:1007D0000100000001000100010001000100010012
:1007E0000100010001000100010001000100010001
:1007F00000000100010001000000000000000100F5
:1008000000000000010001000100010001000100E2
:1008100001000100010001000100010001000100D0
:1008200001000100010001000100010001000100C0
:1008300001000100010001000100010001000100B0
:1008400001000100010001000100010001000100A0
:100850000100010001000100010001000100010090
:100860000100010001000100000001000100010081
:100870000100010001000100010001000100010070
:100880000100010001000000010001000100000062
:100890000000000001000000000001000100010054
:1008A00001000100010005010902A1018502090101
:1008B000A1000509190129051500250195057501F6
:1008C0008102950175038101050109300931158106
:1008D000257F95027508810609381581257F9501C8
:1008E00075088106050C0A38021581257F9501756A
:1008F000088106C0C005010980A101850319012AEC
:10090000B700150126B700950175108100C0050CD0
:100910000901A101850419012AA002150126A002DE
:10092000950175108100C00660FF0961A10109628F
:10093000150026FF00952075088102096315002621
:10094000FF00952075089102C005010906A1010567
:100950000719E029E7150025019508750181029521
:1009600001750881010507190029FF150026FF0000
:100970009506750881000508190129059505750179
:100980009102950175039101C009025B000301000A
:10099000A0FA09040000010301010009211101006E
:1009A000012240000705810308000A090401000232
:1009B0000300000009211101000122220007058225
:1009C00003200001070503032000010904020001C0
:1009D00003000000092111010001228100070584A4
:1009E0000320000A12011001000000080547021F41
:1009F0000100010203011C037600690061006C0024
:100A00003A006600360034006300320062003300B2
:100A1000630000000C036E007400360036003000E6
:100A200000000E03450076007900640031003300B9
:100A300000000403090411241FBECFEFDAE0DEBF7B
:100A4000CDBF04B603FE27C08091410490914204BB
:100A5000A0914304B09144048730904BA740B04B21
:100A6000D1F4109241041092420410924304109267
:100A7000440414BE84B7877F84BF0FB6F894A8954A
:100A800080916000886180936000109260000FBECA
:100A9000E0E0F8E3099511E0A0E0B1E0E2EBF9E66F
:100AA00002C005900D92A03AB107D9F724E0A0EA60
:100AB000B1E001C01D92A134B207E1F70E94360FE8
:100AC0000C94D7340C9400002F923F924F925F9277
:100AD0006F927F928F929F92AF92BF92CF92DF924E
:100AE000EF92FF920F931F93CF93DF93CDB7DEB7B3
:100AF00064970FB6F894DEBF0FBECDBF7C01DC015A
:100B000013964D915C91149711966C9111978C915D
:100B10000E94513381110C941D0F21E0F701408197
:100B200051816281738184810E94D61E8C01D7011C
:100B300012968C91811105C0F7014281411140C08C
:100B4000C0C0809100018F3FB9F3B4EACB2EB1E071
:100B5000DB2EA12CB12C9924939480910001082EB6
:100B6000000C990B8A159B053CF3D60116968C91C7
:100B700016978823F1F019968D919C911A97081772
:100B8000190739F48091A2019091A3010817190760
:100B900081F0F6019786148703878189811103C04C
:100BA000C6010E949A20C60106960E94BB201092A0
:100BB0003904FFEFAF1ABF0A26E1C20ED11CCDCF18
:100BC000C80182519F45409708F098C08FEF93E08D
:100BD0000E943534811180C0AEEEDA2ED00E01E4D1
:100BE00013E0DD2071F0011544E0140709F474C02E
:100BF000C8010E943534811101C0DA940F5F1F4F84
:100C0000F0CF19821A821B821C82AA24AA9468013E
:100C10005FEFC51AD50AC8010E94353489831A824C
:100C2000882309F459C0813009F046C0480182E0A8
:100C3000880E911CC6010E9435348A83882309F4EA
:100C40004BC09FEF980F933060F4680193E0C90E9A
:100C5000D11CC4010E9435348B8381112DC08601C3
:100C6000D6CF843011F06401FACFC4010E9435342C
:100C7000B82E6801A4E0CA0ED11CC80103960E94D8
:100C80003534BB2049F1882339F1282F30E0215039
:100C90003109A29EA001A39E500D11248B2D90E03E
:100CA0000197840F951F0197D0F2EFE9FFE031978C
:100CB000F1F700C00000F7CFCE0101960E94231E7D
:100CC000CECF0031FFE51F0711F00C94140F81E027
:100CD0000E94AE320E94B62A80913604877011F4C9
:100CE0000C941D0FD70112968C91882311F40C944B
:100CF0001D0F82E00E94D3320C941D0F0031BFE51E
:100D00001B0711F481E005C00131EFE51E0721F456
:100D100082E00E94F032DECFC80197558F3F9105E7
:100D200011F008F057C020910001022E000C330B87
:100D30002817390714F48093000126E1289F5001F9
:100D4000299FB00C1124C5018C559E4F6C01DC010C
:100D500050964C935097F701928116968C91169766
:100D6000992369F11A961C930E9319978F5F169623
:100D70008C930E948D30D6011E969C938E931D9766
:100D800080913C0417968C93179790913904809129
:100D90003804892B18968C931897ED91FC91119734
:100DA000C50186559E4F309729F054966D917C91E0
:100DB000559709951093A3010093A2010BC08823B6
:100DC000B1F0F6018189882391F0C50186559E4FC7
:100DD0000E94BB20073FFCE51F0749F4D70112968C
:100DE0008C91882321F181E0809301013DC1083F6E
:100DF000BCE51B0771F4F70182818823C1F01092D2
:100E00000101109264021092630281E00E94142199
:100E10002BC1093FFCE51F0751F4D70112968C91B5
:100E2000882329F0809101018823E9F2E8CF4090DE
:100E30000101442009F418C1109267021092660261
:100E4000612CE5E05E2E88248394912C3324339426
:100E5000A0906602B0906702F8E0AF16B10408F007
:100E6000CFC05A9CF0015B9CF00D1124EE56FD4F53
:100E7000BE01655F7F4F80810E944022892B11F067
:100E8000712CB3C0FE013B9680E090E022242A94AE
:100E9000282F419151914115510551F00417150723
:100EA00009F4282E01968430910591F724E002C0C0
:100EB000823030F3BFEF2B1619F3F70172807720E1
:100EC00009F448C05A9CC0015B9C900D1124AC01F0
:100ED0004E565D4F6A01C40101C0880F2A94EAF79B
:100EE000DA0114969C911497892B14968C93F40133
:100EF00002C0EE0FFF1F2A95E2F79F012150310932
:100F000090E08F772817390709F06EC080E00E94C3
:100F10001421D60114968C911497806814968C93A2
:100F2000149712968D919C911397009719F00E9437
:100F3000151F0DC0BE016F5F7F4F809166020E943A
:100F40004022892B21F489859A850E946A25309256
:100F500065024BC0F40102C0EE0FFF1F2A95E2F7B5
:100F60009F01215031095A9CF0015B9CF00D112426
:100F7000EE56FD4F848190E08F7728173907A1F452
:100F800082819381009719F00E94FF1E0DC0BE015F
:100F90006F5F7F4F809166020E944022892B21F46F
:100FA00089859A850E94E1245A9CF0015B9CF00D92
:100FB0001124EE56FD4F9481292F30E0022C02C0FF
:100FC000359527950A94E2F720FF5ACF940101C086
:100FD000220F2A94EAF7822F80958923848387FF42
:100FE0004FCF803809F41482742C672880916602F0
:100FF000909167020196909367028093660228CFD2
:1010000080916502882359F00E948D30909364028C
:10101000809363021092650261105ECE25C061105C
:1010200006C081E00E9414210E9402211DC0D70148
:1010300012968C91882309F44FCE0E948D309093A4
:10104000640280936302E0916202E73008F044CECC
:1010500081E08E0F80936202F0E0EE0FFF1FEC5AEA
:10106000FD4F1183008338CE80918B0280FF65C0D5
:101070000E948D306C01F7018281882379F1809183
:10108000020182FF06C040E0B60180E090E00E94CD
:10109000392082E00E9470310B31FCE51F0779F0A6
:1010A0000C312CE5120789F00A314CE51407B1F434
:1010B00080910201982F909590FB80F909C0809152
:1010C00002018160809302017FC0809102018E7FC6
:1010D0008093020182E00E94703176C008321105CF
:1010E00038F40E311105B8F40430110578F425C038
:1010F0000933110538F40D32110590F40B32110546
:1011000079F01BC00436110559F017C080918B028D
:1011100084FD13C009C080918B0283FD0EC004C002
:1011200080918B0282FD09C0F7018281882309F436
:10113000B5C18091020180FD75C1033FBCE51B076D
:1011400059F190F4083DFCE51F07E9F0093D2CE555
:101150001207A1F1073D4CE51407B1F506E221EEB7
:1011600041EE67ED7CE514C0053F5CE5150701F134
:10117000C8F0063F9CE5190739F507E225EE46EE73
:1011800066EF7CE505C007E225EE45EE68ED7CE5FF
:10119000C7010E943421A0CD06E221EE40EE63EFAC
:1011A0007CE5F6CF07E225EE44EE64EF7CE5F0CF78
:1011B00006E221EE42EE65EF7CE5EACF08E221E0AF
:1011C00045EE69ED7CE5E4CFD70112962C91222300
:1011D00009F46AC110926C020230BCE51B0708F4E6
:1011E00063C10631ECE51E0730F0C8018A5F9C45FB
:1011F000099708F059C10E94E9309093BB0280938F
:10120000BA020031FCE51F0709F4C3C008F041C071
:1012100008304CE5140709F49AC0F0F404308CE56A
:10122000180709F487C068F40230ACE51A0709F41E
:1012300077C003301C4509F0E5C08091BA02826096
:1012400076C00630ECE51E0709F46EC008F07BC0DE
:101250008091BA0288606BC00C302CE5120709F44B
:1012600085C068F40A305CE5150709F474C008F01D
:1012700079C00E94BE268091BA02806858C00E30A4
:101280009CE5190709F476C008F07FC08091BA0286
:101290008BC00B3FBCE51B0709F44FC018F50331A9
:1012A000FCE51F0709F47DC078F401314CE5140713
:1012B00009F473C002311C4509F0A4C00E94BE2687
:1012C0008091BA028F7733C005318CE5180709F495
:1012D00072C008F486C00A3F1C4509F093C0809193
:1012E000BB023EC00F3FBCE51B0709F45FC058F4CA
:1012F0000D3FFCE51F0709F444C008F43FC080918E
:10130000BB0282602DC001304DE5140709F475C0A1
:1013100008F45DC002301D4509F074C060E06EC085
:101320008091BA02816003C08091BA02806180938B
:10133000BA0268C08091BA0211C08091BB0282607B
:101340008093BB025FC08091BA028062F0CF80912F
:10135000BA028064ECCF8091BA0288608460E7CFE3
:101360008160EECF8091BA028E7FE1CF8091BA0288
:101370008D7FDDCF8091BA02877FD9CF8091BB026C
:1013800018C08091BB028D7FDBCF8091BA028F7E27
:10139000CECF8091BA028F7DCACF8091BA028F7B67
:1013A000C6CF8091BA02877F8B7FC1CF8091BB026D
:1013B0008D7F8E7FC5CF8091BA0282FB222720F9D4
:1013C00091E0922790FB82F990FB83F9B0CF809156
:1013D000BB02982F909591708E7F892B90FB81F99D
:1013E000AFCF0E94BE268091BA0287FB222720F948
:1013F00091E0922790FB87F99ACF61E08EE090E030
:101400000E9449346091BA021091BB0284E090E0DE
:101410000E944934612F82E290E00E9449340E9488
:10142000BE265ACC90918B0291FD04C020913804C5
:10143000211183CE95FF21C020916A0230916B0269
:10144000D601A21BB30B9D0196FD02C081FD15C004
:10145000283C310590F4209168023091690202170E
:10146000130759F481FF05C080913904826080938D
:101470003904802F0E9429272FCC109369020093F2
:101480006802D0926B02C0926A028091020184606D
:101490008093020182E00E94D3321ECC40E0B6016C
:1014A000C8010E94392018CC0631FCE51F0709F05D
:1014B00040C080913804982F9A7A30918A0230FF88
:1014C00004C0482F447409F090E031FF04C0482F55
:1014D000417109F090E032FF04C0482F487809F0CC
:1014E00090E033FF02C0827261F42223A1F081E018
:1014F000911101C080E080936D02992331F065E382
:1015000005C0222341F010926D0269E281EC93E064
:101510000E94CF300BC080916D02882311F065E3EB
:1015200001C069E281EC93E00E94C2300E94B931AF
:10153000D3CB222309F413C18091380482720C3C6E
:101540009CE5190709F4C0C008F045C0063CBCE59D
:101550001B0709F4A5C0D8F4033CFCE51F0709F4F8
:1015600095C030F4023C4CE5140709F46AC0C6C0CB
:10157000043C5CE5150709F48EC0053C9CE51907A1
:1015800009F0BCC047E359E160E479E1A1C0093C3E
:10159000ACE51A0709F48EC078F4073CECE51E07A9
:1015A00009F483C0083CFCE51F0709F0A7C04BE223
:1015B00059E16FE179E18CC00A3C2CE5120709F48E
:1015C0007EC00B3C4CE5140709F098C04AE857E18F
:1015D0006BE977E17DC0013D5CE5150709F47CCB43
:1015E000A0F40E3C9CE5190709F47AC008F473C016
:1015F0000F3CBCE51B0709F476C0003DECE51E0777
:1016000009F07CC06EE089E076C0043DFCE51F0770
:1016100009F46FC058F4023D4CE5140709F466C0A4
:10162000033D5CE5150709F457CB68C0053D8CE523
:10163000180709F451CB0D359DE5190709F44CCB7A
:101640005DC08091EE0280FF1BC08E7F8093EE0212
:101650006091EE027091EF028091F0029091F102A0
:101660000E9478171092ED02AFEFB0E7E2E0A150D0
:10167000B040E040E1F700C000000E941E172CCBF4
:1016800081608093EE0261E0869527C044E859E1CD
:101690006DE879E11DC04DE859E164E879E118C0D1
:1016A00040E459E167E379E113C04FE159E16BE2AE
:1016B00079E10EC047E059E163E179E109C043E116
:1016C00059E167E079E104C04BE957E16AE877E165
:1016D0000E94E92301CB61E081E00E944919FCCA24
:1016E00065E082E008C068E086E005C061E18FE067
:1016F00002C06BE182E10E94D723EECA0A35FDE504
:101700001F0741F150F401154CE51407A9F00E3DF7
:101710001C4529F50E94FA30DFCA0B358DE5180704
:10172000D9F00C351D45D9F48091BB0282FB882786
:1017300080F991E0892711C00E94BE26AFEFB4E383
:10174000ECE0A150B040E040E1F700C000000E9492
:101750003430C2CA81E001C080E00E947E31D701EE
:1017600012968C9112970D911C91882349F0C80113
:101770000E94FA31D82E682FC8010E94773204C027
:10178000C8010E944732D82EB8018D2D0E948E1CB0
:101790008C01882EF701B280C580C2946FE0C6220A
:1017A00080913604877099F0BB2089F0812F807F6B
:1017B000803421F080E2800F883048F082E00E947F
:1017C000D332809136048770AA24A3948111A12C6E
:1017D000912E92945FE09522892D90E08C309105B6
:1017E00008F0C3C2FC01EA5AFF4F0C94AD34912FAC
:1017F0009F70812F807FD92E19F0D29440EFD42290
:10180000BB20B9F0DD2009F48EC280E2800F883061
:1018100010F0811006C080913804D82AD092380484
:1018200005C080913904D82AD09239040E94B93178
:101830007AC2802F0E94C926DD2009F496C280E278
:10184000800F883010F0811004C08D2D0E947731F8
:1018500003C08D2D0E9470310E94B93186C2912F34
:101860009F70812F807FD92E803219F0D29430EF73
:10187000D322882029F0F1E08F1609F44FC05CC014
:10188000BB2079F1CC2039F144244394C41013C017
:101890008091BB0282FD69C280913C04D82AD8168F
:1018A00009F463C20E948D3090933B0480933A0404
:1018B000D0923C045AC280918C02823060F0C812EF
:1018C0000AC00E94653180913304D81609F452C0D1
:1018D000D09233044FC080913C048D290E94602631
:1018E00044C2CC2081F080918C0255245394C510C1
:1018F00010C0823008F439C2809138048D2109F477
:1019000034C20E94F4310E9465318D2D0E947126EF
:101910002CC28230C0F3C812F6CF27C2BB2031F0F0
:1019200025E0622E6C1408F420C224C094E0792EC5
:101930007C1408F41AC2E9CFBB20F1F0CC20D1F01E
:1019400020E0D7014C9111965C91119712966C9101
:10195000129713967C91139714968C910E94D61E21
:1019600080918D0281FDDFC1F701858180FFDBC1A0
:101970008F7085838D2DB2CFCC2039F2F9E38F1291
:10198000E4C1DEC1812F86958695837019F0813080
:1019900059F0EBC1BB2019F0C801937002C080E080
:1019A00090E00E941720E1C1BB2019F0C80193709C
:1019B00002C080E090E00E940120D7C1802FBB20B0
:1019C00029F00E94CE1A0E94971902C00E94C119E4
:1019D0000E949719CAC1812F837009F06AC0B110A3
:1019E000C4C1902F929596959770990F990F802F5B
:1019F0008F70482E512C612C712C092E04C0440C80
:101A0000551C661C771C0A94D2F704FF12C04FE0E5
:101A100050E060E070E004C0440F551F661F771F60
:101A20009A95D2F7DB01CA0180959095A095B09563
:101A300003C080E090E0DC01612F669566956370DD
:101A40006230D9F068F520913D0430913E04409118
:101A50003F0450914004613059F084299529A6290A
:101A6000B729BC01CD0162237323842395231EC0B3
:101A7000422A532A642A752A13C084299529A62943
:101A8000B72940903D0450903E0460903F04709010
:101A90004004BC01CD01642575258625972506C027
:101AA000BC01CD0164297529862997290E94273315
:101AB0005CC1BB2019F0812F817001C086958823FD
:101AC00009F453C1902F929596959770990F990F9D
:101AD000802F8F70482E512C612C712C092E04C040
:101AE000440C551C661C771C0A94D2F704FF12C0E4
:101AF0004FE050E060E070E004C0440F551F661FE7
:101B0000771F9A95D2F7DB01CA0180959095A09531
:101B1000B09503C080E090E0DC01612F669566958A
:101B200063706230D9F068F52091BD033091BE0337
:101B30004091BF035091C003613059F08429952929
:101B4000A629B729BC01CD016223732384239523E1
:101B500091C0422A532A642A752A13C084299529E0
:101B6000A629B7294090BD035090BE036090BF03E3
:101B70007090C003BC01CD0164257525862597258D
:101B800079C0BC01CD01642975298629972972C0C5
:101B9000212F2F70D22EBB2029F0822F0E94F032ED
:101BA000802F9CCE802F0E9471268D2DDAC0802F31
:101BB00042EF841609F443C0481538F050EF8516FB
:101BC00061F091EF8916A9F1AAC0A3EF8A16E9F195
:101BD000B4EF8B1609F451C0A2C0BB2029F0E4E099
:101BE000EC1508F4C2C005C085E0582E5C1408F45A
:101BF000BCC0212F2F7181E090E0A0E0B0E0AC01EB
:101C0000BD0104C0440F551F661F771F2A95D2F7E8
:101C10008091BD039091BE03A091BF03B091C0031A
:101C20002A013B01482659266A267B26C301B201B8
:101C300021C0812F8F71BB2009F493C07AC0812FFE
:101C40008F71BB2009F475C08CC0BB2081F0212F9F
:101C50002F7181E090E0A0E0B0E0BC01CD0104C0B4
:101C6000660F771F881F991F2A95D2F703C060E07F
:101C700070E0CB010E94A43278C090918C02923027
:101C8000B8F1BB20F1F0809133040E94773180914C
:101C900036048770843039F40E949831812F8F7117
:101CA0000E94AE3261C080918C02C81608F05CC000
:101CB000212F2F71D22E822F0E94F03263E08D2DC2
:101CC00010C02091380480913304822B8093380413
:101CD000C91650F00E9498310E94F43164E0812FBF
:101CE0008F710E94113340C081E00E94D3323CC00A
:101CF000BB2059F0412F4F71D42E842F0E94F03217
:101D000063E08D2D0E94113330C081E00E94D332F8
:101D100051E05C1550F582E00E94D33226C0BB2012
:101D200059F0CC2021F0802F0E9429271EC0812F3E
:101D30008F710E94F03219C0CC2089F0893329F4C8
:101D4000809190029091910204C080918E029091B6
:101D50008F020E94F61F802F0E94C92606C0812F85
:101D60008F710E94AE3201C0A12C88EF890D8430A2
:101D700020F40E942D200E941D1EC8010E9478267A
:101D8000811105C010926F0210926E0225C0BB2017
:101D900019F0C110F7CF20C0C110F4CF20E0D70157
:101DA0004C9111965C91119712966C911297139623
:101DB0007C91139714968C910E94D61E80918D026F
:101DC00083FFE0CF80916E0290916F020297D1F66F
:101DD000802F0E94CD27D6CFAA20A9F0809136046B
:101DE00080FD11C0F70112828595859585950E9429
:101DF000F032C7010E94640580913604859585956F
:101E000085950E94AE3220E0D7014C9111965C91ED
:101E1000119712966C91129713967C9113971496C2
:101E20008C910E94D61E09C001312FE5120711F0D6
:101E30000C948C0682E00C94680664960FB6F894B5
:101E4000DEBF0FBECDBFDF91CF911F910F91FF90ED
:101E5000EF90DF90CF90BF90AF909F908F907F904A
:101E60006F905F904F903F902F900895CF93DF93A6
:101E7000CDB7DEB7E4970FB6F894DEBF0FBECDBF87
:101E800084B7877F84BF0FB6F894A89580916000CF
:101E9000886180936000109260000FBE90E080E83F
:101EA0000FB6F89480936100909361000FBE85B7E0
:101EB000806885BF85B7806885BF8DEA9FE2909373
:101EC000A1018093A0010E948123E2E9F2E080E079
:101ED00090E0918380830196359688309105C9F70B
:101EE0000E94AB210E94F62D0E94152E8091E200E7
:101EF00084608093E20078948091B3038823A1F0FA
:101F00001091E9001F709091EC00892F817090FD75
:101F100080E8182B1092E9008091E80083FD0E9470
:101F2000D42A1F701093E90082E084BD93E095BD30
:101F30009AEF97BD80936E0087E30E94361B86EC74
:101F40000E94361B86EF0E94361B87EF0E94361BCD
:101F500087E60E94361B04E311E073E4E72E71E08C
:101F6000F72EF80181918F010E94361BE016F106D1
:101F7000C1F7ECEBF2E086EC92E0A3EFB2E0119255
:101F800011921D921D928E179F07C9F780E090E075
:101F90000E9443348A3E9E4F11F00E94FA3082E044
:101FA00090E00E9435348093DF020E94E9309093E4
:101FB000BB028093BA020E944D1B8FE39CE90197FC
:101FC000F1F700C000000E944D1B8091F30280FFDA
:101FD00017C06FEF83E290E00E9449346FEF84E214
:101FE00090E00E9449346FEF85E290E00E9449340E
:101FF0006FEF7FEF80E090E00E9467340E94343002
:1020000083E090E00E943534682F70E080E090E03B
:102010000E942733509A589883E290E00E9435340A
:10202000853E81F484E290E00E9435348C3951F48D
:1020300085E290E00E94353491E0863209F090E02C
:10204000892F01C080E080FF70C68091C602811197
:1020500036C080E090E00E9443348A3E9E4F21F0DB
:102060000E94FA300E94AC1788E090E00E943D3454
:102070006093EE027093EF028093F0029093F1026E
:102080006E7F71F40E94AC1788E090E00E943D34AE
:102090006093EE027093EF028093F0029093F1024E
:1020A0000E9465171092ED028091EE0280FF04C03D
:1020B00060E086950E94491981E08093C60289E01C
:1020C00091E09093C8028093C70258E1C52ED12CAD
:1020D00060E4562EBB24B394AA24A3948091B30346
:1020E000853009F076C000E112E18091B3038530BC
:1020F00009F058C08091B303843009F440C080E0F7
:102100000E941D1E1092ED028091CB02811116C01B
:10211000A092CB028091EE02982F91709093CA0208
:102120008E7F8093EE02FFEF20E732E0F1502040F7
:102130003040E1F700C000000E941E171092C90253
:102140000FB6F894A895C09260000FBE5092600040
:1021500083B7817F846083BF83B7816083BF7894B6
:10216000889583B78E7F83BF0FB6F894A89580912A
:102170006000886180936000109260000FBE8091C3
:10218000B203882309F4B1CF0E944D1BE3EFF2E0C4
:1021900081919191892B09F07BC542E0ED3FF407D5
:1021A000B9F7A3CF0E94BE260E942D200E941D1EBB
:1021B0001092CB028091CA02882349F08091EE02EE
:1021C00081608093EE0260E086950E9449190E942A
:1021D000EF230E944D1B882359F08FB7F89440914C
:1021E000FD025091FE026091FF02709100038FBFCB
:1021F000A0EEB2E0E3EFF2E000E010E0702F2191FA
:1022000031918D919D9182279327009779F160E01C
:10221000EE24E394F12CAC014E215F21452B09F112
:102220006BA77CA72E213F2181E0232B09F480E0BE
:102230008DA70E948D308160782F9FA78EA74BA518
:102240005CA56DA58FA50E940524000F111FF80144
:10225000E052FD4F80819181E826F926F182E082EB
:102260001AC06F5FEE0CFF1C6F30A9F60F5F1F4F97
:102270000530110519F68FEF88AB89AB1AAA0E94B9
:102280008D308160782F9CAB8BAB48A959A96AA986
:102290008CA90E9405248091ED02882309F468C06E
:1022A0008091EC02E091EE02E695E81BE093CE020D
:1022B000823059F4F0E0E75EFE4FE4910E2F10E01B
:1022C000B2EEEB2EBFE1FB2E2EC0863059F4F0E0CB
:1022D000EA5EFE4FE4910E2F10E0A2EDEA2EAFE190
:1022E000FA2E21C0893061F4E695F0E0ED5EFE4FF4
:1022F000E4910E2F10E0F8EAEF2EFFE1FF2E13C05D
:102300008F3059F4F0E0E05FFE4FE4910E2F10E0C3
:10231000EAE5EE2EEFE1FE2E06C000ED17E079E5CE
:10232000E72E7FE1F72E8091CF02882361F0109293
:10233000CF020E948D309093CD028093CC021092F8
:10234000D1021092D0020E948D30E091CC02F09127
:10235000CD028E1B9F0B8F3F9F4750F40E0F1F1F08
:102360001093CD020093CC028CEC92E0F70109951A
:1023700086E0E8EDF2E08E010F5F1F4FD80101907B
:102380000D928A95E1F78090DA029090DB02E0905E
:10239000DC02F090DD021092DA021092DB02109261
:1023A000DC021092DD02811003C0992009F45BC0A9
:1023B0008091D6029091D7020E947E30AC0190911C
:1023C000D502992339F02091060130E02417350712
:1023D00058F049C020910501FAE02F9F9001112487
:1023E0002417350718F03FC09F3F19F09F5F909367
:1023F000D502882061F00E947F1A181414F491E02D
:1024000001C09FEF899F802D11248093DA029920CB
:1024100061F00E947F1A191414F491E001C09FEF3B
:10242000899F802D11248093DB023091DA023323BF
:10243000D1F02091DB022223B1F045EB3403C0013F
:102440001124992319F09093DA0202C0B092DA02B3
:1024500035EB2303C0011124992319F09093DB027B
:1024600002C0B092DB02E11003C0FF2009F45BC0A0
:102470008091D3029091D4020E947E30AC01909161
:10248000D202992339F02091040130E02417350756
:1024900058F049C0209103018AE0289F900111243F
:1024A0002417350718F03FC09F3F19F09F5F9093A6
:1024B000D202EE2061F00E94461A1E1414F491E03C
:1024C00001C09FEF899F802D11248093DC02FF20A3
:1024D00061F00E94461A1F1414F491E001C09FEFAE
:1024E000899F802D11248093DD023091DC023323FB
:1024F000D1F02091DD022223B1F045EB3403C0017D
:102500001124992319F09093DC0202C0B092DC02EE
:1025100035EB2303C0011124992319F09093DD02B8
:1025200002C0B092DD028091DA0281110BC080916D
:10253000DB02811107C08091DC02811103C0809110
:10254000DD0281110E9497198B829C82ED82FE82AE
:1025500086E0F801A8EDB2E001900D928A95E1F7CE
:102560000E942D209091DE02891731F00E942D20CB
:102570008093DE020E941D1E8091B303843009F017
:10258000ADCD83E08093E9008091E80082FFA6CD85
:102590008091E80085FF21C00E944B2F81111BC054
:1025A00060E2E62EF12C480109C08091F100F401AF
:1025B00081934F01F1E0EF1AF10869F08091E80092
:1025C00085FDF3CF8091E8008B778093E8000E942F
:1025D0004B2F882399F391E001C090E08091E800AF
:1025E0008B778093E800992309F478CDE09001037C
:1025F000F09002038981E114F10461F08E3F09F04B
:102600001FC38A81833008F4BFC18550833008F02E
:1026100017C3BAC1893009F4F1C0D0F4843009F489
:1026200075C050F48230A1F108F061C0813009F02A
:1026300005C31A8289E02DC2863009F479C008F4F6
:102640006CC0873009F477C0883009F4B6C0F6C290
:10265000803109F437C180F48D3009F4DAC028F4F0
:102660008C3009F0EBC280E18DC28E3009F4D4C009
:102670008F3009F4FAC0E2C2823109F428C108F4AB
:1026800024C1833109F44CC18E3F09F47DC1D6C207
:102690008A81823009F440C3833089F0813009F0A7
:1026A000CDC22FB7F8948091FD029091FE02A091C7
:1026B000FF02B09100032FBFBB83AC832CC080917D
:1026C000070190910801892B09F4BAC2F801CE01E3
:1026D0000B96A3EFB2E02C9111963C9111971296B4
:1026E000328323833296E817F907A9F7A9C28A81B2
:1026F000823009F0A3C26B817C818D819E810E9412
:10270000B33486E290E00E9449349AC24C816B81D6
:102710008A810E9437239D8306C32D813E81322703
:10272000232732274C816B818A810E946A2288C2CA
:102730000E94A02285C28A818138B1F050F480388D
:1027400009F07EC220E04B816091F0028091EF029F
:1027500031C0823859F1833809F072C220E04091CB
:10276000F1026C818B8126C060E08B810E94491947
:102770009B818091EE02911111C08E7F8093EE02B9
:102780001092ED022FEF30E742E021503040404000
:10279000E1F700C000000E941E1752C281608093C2
:1027A000EE0260E086950E9449194AC28B818093AF
:1027B000F20246C20E946C1843C28A81813899F0A5
:1027C00030F4803809F03CC28091F10262C1823855
:1027D00091F0833809F034C28091EF028B838091AD
:1027E000F0028C832DC28091EE0280FF02C086959C
:1027F00050C180E04EC18091F2024BC16091EE0267
:102800007091EF028091F0029091F1020E9478178E
:1028100017C21A828FEB3DC1EA80FB80FE24EF24B1
:10282000FE246C80712C8DE16816710408F008C2DA
:102830004801C7018F5B9C4F9401201B310B26156B
:10284000370508F0FDC1EFEBEE16F10428F40E9405
:102850003534F401848302C0F4011482FFEFEF1ACF
:10286000FF0A2FEF821A920AE4CF8091070190911C
:102870000801892B09F4E4C1EA80FB80FE24EF24DF
:10288000FE248C80912C3DE18316910408F0D8C180
:102890003801C7018F5B9C4F9301201B310B28151A
:1028A000390508F0CDC14FEBE416F10420F4F30133
:1028B00064810E944934FFEFEF1AFF0A2FEF621A7A
:1028C000720AE7CF0E943022BBC184E05BC1EA807C
:1028D000FB80FE24EF24FE246C80712C3DE1631606
:1028E000710408F0ADC14801C70187969401201B0F
:1028F000310B2615370508F0A3C148E5E41642E080
:10290000F40628F40E943534F401848302C0F401F3
:102910001482FFEFEF1AFF0A2FEF821A920AE4CF18
:10292000EA80FB80FE24EF24FE248C80912C3DE184
:102930008316910408F084C148E5E41642E0F406E9
:1029400008F07EC188E592E08E199F0988159905E7
:1029500008F476C13801C70187969301201B310B1B
:102960002815390508F06CC1E8E5EE16E2E0FE0630
:1029700020F4F30164810E944934FFEFEF1AFF0A4B
:102980002FEF621A720AE7CFEA818E2F90E08E3025
:10299000910508F055C1FC01EE59FF4F0C94AD3480
:1029A00088E0E7E2F1E0DE01919601900D928A95D0
:1029B000E1F780E2F80111928A95E9F784E08983D2
:1029C00088E0FE01B196DE01159601900D928A9580
:1029D000E1F736C184EE8983BA821B821C8230C142
:1029E0008C8190E0982F88272B81820F911D092ED2
:1029F000000CAA0BBB0B55E0880F991FAA1FBB1F29
:102A00005A95D1F7AC01BD01405E5F4F6F4F7F4FCC
:102A1000481759076A077B0708F412C1843EF1E0A2
:102A20009F07A105B10508F00BC1453E21E0520703
:102A30006105710520F044EE51E060E070E0481B54
:102A4000590BBC016B547E4FC8010E941C34F8C066
:102A500040E250E06FEF70E0C8010E94D0348091F6
:102A600007018983EA82ECC081E090E09093020341
:102A70008093010382E390E09093EB028093EA025B
:102A80000E948D30DDC0809107018983EA828091A8
:102A9000EA028B83D5C0EB80FC8040E250E06FEF10
:102AA00070E0C8010E94D0342DE131E080E090E078
:102AB000AC014E5F5F4F4132510508F0C1C0F901D2
:102AC00065917491E616F70630F4F801E80FF91FE6
:102AD00071836083CA01285F3F4F41E0253B340783
:102AE00039F7AEC02B813C818DE191E0FC0145912D
:102AF00054912417350709F4E1C00896E1E0853BBD
:102B00009E07A1F79BC08B819C813DE1E32E31E0C4
:102B1000F32EF701259134912817390709F485C060
:102B2000F8E0EF0EF11C25EBE21621E0F20689F742
:102B300085C00E94EF2184C08B81823029F1A8F4E6
:102B40008823C9F0813009F07BC08C812AE0F22E05
:102B50004E01F1E28F0E911CF4012F2D11922A9556
:102B6000E9F7B4010E9455223DC0833061F1843001
:102B700009F441C065C080E2F80111928A95E9F735
:102B800088E089838A835CC06C818AE0FE01359687
:102B9000DE01919601900D928A95E1F7683070F40C
:102BA0003AE0639FB00111246F557D4F4AE050E039
:102BB000CE0181960E946D3480E001C08FEF898341
:102BC0000E9481233DC08C819AE0F92E4E0141E2A2
:102BD000840E911CF4012F2D11922A95E9F7B4016E
:102BE0000E9440228983F401DE01129601900D9229
:102BF000FA94E1F725C06C818AE0FE013596DE018A
:102C0000919601900D928A95E1F76830B8F43AE018
:102C1000639FB00111246F507D4F4AE050E0CE0118
:102C200081960E946D3480E00AC0C7010296FC01C3
:102C3000259134912D31310508F456C08FEF8983E9
:102C40008091B303843009F049CA8091E9008F7004
:102C50002091EC00922F917020FD90E8F92EF82A37
:102C600082E08093E9008091E80080FF0CC040E0A2
:102C700050E060E270E0C8010E947E2F8091E80081
:102C80008E778093E8008F2D8F708093E90026CA9D
:102C900009BD19BD09B400FEFDCF8091D8008F7D1C
:102CA0008093D8008091E00082608093E000809162
:102CB000E00081FDFCCF0E94BE2617CA9C012E5F5A
:102CC0003F4FF901459154914032510508F0B6CF7C
:102CD000F90145915491FC01349665917491CE01AE
:102CE00002960E94C7349FCFFC0145915491F70191
:102CF000349685919491BE016B5F7F4F0E94C734DB
:102D00000E94D221F701369685919491009709F49B
:102D10008ACFFC01099587CF86E290E00E94353486
:102D20001B821C821D828E838BCF60E086E290E046
:102D30000E9449340E94A0220E94302265EE83E264
:102D400090E00E9449346CE984E290E00E944934AA
:102D500066E285E290E00E94493477C99091BA0218
:102D600092FF0DC0282F2871283019F4877F8460C6
:102D700006C0282F2471243011F48B7F886093FFC4
:102D80000DC0282F2871283119F4877E846106C070
:102D9000282F2471243111F48B7E88612091BB028D
:102DA00020FF0DC0382F3871383019F4877F8160CB
:102DB00006C0382F3171313011F48E7F886021FFC9
:102DC0000DC0282F2871283119F4877E816106C033
:102DD000282F2171213111F48E7E886194FD877E28
:102DE00008959C013A9521153F4138F5DC01AA2749
:102DF000B270AC01442754709C012227387094FFB4
:102E00000FC090FF02C080E101C080E0AB2B09F051
:102E10008062452B09F08064232B69F080680BC029
:102E2000892F8170AB2B09F08260452B09F08460FB
:102E3000232B09F08860FB01099408958091EE022C
:102E400080FF0AC0559A8BB18F7D9BB190622FB7DE
:102E5000F894E7E0F3E00BC0E7E0F3E011821082C2
:102E60001282339633E0EB38F307C1F7EBCF33E050
:102E7000EB38F30789F0319148E09BB9000000C0BE
:102E800037FF8BB9330F000000C000C000C08BB902
:102E900000C04A9591F7EBCF2FBF8FE594E00197E3
:102EA000F1F700C0000008959091EE0290FF0CC071
:102EB000E7E0F3E0818360834283339693E0EB386D
:102EC000F907C1F70C941E1708958091EE02282F80
:102ED000269530E02115310519F48170826005C016
:102EE0002C31310524F0817086638093EE020895C1
:102EF000CF92DF92EF92FF926B017C010E946517E7
:102F0000B701A60188E090E0FF90EF90DF90CF90AE
:102F10000C945B348091F202882319F081508093E5
:102F2000F2026091EE027091EF028091F0029091B6
:102F3000F1020C9478178091F202833018F48F5FBD
:102F40008093F2026091EE027091EF028091F002A4
:102F50009091F1020C947817EEEEF2E083E080831A
:102F60008FE781838FEF82838383148260817181F5
:102F7000828193810C947817AF92BF92CF92DF92A7
:102F8000EF92FF920F931F93CF93DF93E82EF62ECD
:102F9000E901E42FF0E0611106C0E75BFB4FE4912B
:102FA0004E2F2E2F71C0062F10E0E75BFB4F449190
:102FB000F42FC42ED12C26E0829FC00111242FEFC4
:102FC00030E0B9010E9485345BEA5603C001579F87
:102FD000900D11248E0D911D8E0D911D582F550FA2
:102FE000580FD901A01BB10BAC9DC001AD9D900D38
:102FF000BC9D900D1124E92FF59ED0011124AB2F1B
:10300000BB277901EA1AFB0AEC9CD001ED9CB00DBC
:10301000FC9CB00D11245901A51AB108A09E7001A5
:10302000A19EF00CB09EF00C1124EF2CFF242E1961
:103030003F092C9D80012D9D100D3C9D100D1124EC
:10304000212F6230710591F048F461157105E1F0AE
:1030500061307105B9F4242F4B2F16C0643071050F
:1030600069F040F06630710579F00CC0242F492FCB
:10307000E12F0AC0492FEF2F2B2F06C0292FE42F55
:10308000412F02C0292FEB2F49832883EA83DF9148
:10309000CF911F910F91FF90EF90DF90CF90BF9055
:1030A000AF900895CF93DF9300D01F92CDB7DEB7D6
:1030B0009091EE0290FF0AC09E012F5F3F4F0E9449
:1030C000BC174B8169818A810E9454170F900F9021
:1030D0000F90DF91CF9108955F926F927F928F92C0
:1030E0009F92AF92BF92CF92DF92EF92FF920F9397
:1030F0001F93CF93DF9300D01F92CDB7DEB7182F69
:10310000762E042F622E9091EE0290FF6DC0E92F73
:10311000E695AE2FB0E0AD5BBE4F8C918093EC0294
:103120009E7F923061F49E012F5F3F4F812F0E945E
:10313000BC174B8169818A810E94541743C0823039
:1031400019F40091F1023EC0863019F41091EF029B
:1031500039C08930D9F38231A9F5E2518E2F8170BF
:10316000582EE695F0E0E75BFA4FA590B49087E023
:10317000C82E83E0D82EE12CF12CBB249CE2892EB2
:10318000912CAE9CC001AF9C900DBE9C900D112463
:10319000B4010E948534812F511002C0860F01C0F6
:1031A000861B9601402F672D0E94BC178FEFE81AEF
:1031B000F80A83E0C80ED11C8CE2E816F10409F786
:1031C0000E941E171093EF027092F0020093F1021A
:1031D000662051F06091EE027091EF028091F00252
:1031E0009091F1020E9478170F900F900F90DF914D
:1031F000CF911F910F91FF90EF90DF90CF90BF90F4
:10320000AF909F908F907F906F905F900895EEEEBB
:10321000F2E0438128E0421B08F440E021E06281B3
:1032200081810C946C18EEEEF2E0438128E0420FAD
:1032300008F44FEF21E0628181810C946C18EEEE6E
:10324000F2E0628128E0621B08F460E021E0438143
:1032500081810C946C18EEEEF2E0628128E0620F3E
:1032600008F46FEF21E0438181810C946C18EEEE3D
:10327000F2E0818121E04381628188500C946C18D6
:10328000EEEEF2E0818121E043816281885F0C945F
:103290006C189091EE0290FF36C09170811102C0BF
:1032A000926006C08C3110F0966302C0880F982B94
:1032B0009093EE02662351F06091EE027091EF025E
:1032C0008091F0029091F1020E9478176091EE02D5
:1032D000669570E04BE050E083E191E00E94BA34E3
:1032E000892B19F01092ED0202C00E94EF2381E0B9
:1032F0008093CF0220E04091F1026091F002809132
:10330000EF020C946C1808958091EE02869581501E
:1033100009F48BE161E00C9449198091EE028695E5
:103320008F5F8C3108F081E061E00C9449190E94B4
:103330008D302091DA02211104C02091DB0222237A
:1033400021F09093D7028093D6022091DC022111C4
:1033500004C02091DD02222321F09093D4028093B7
:10336000D302E091C702F091C802309749F082E0A1
:103370008093D8020480F581E02D88ED92E00994D5
:103380000895803F39F48091DB0287FF6AC0109274
:10339000DB0267C0813F29F48091DB021816BCF381
:1033A00060C09091DA02823F29F497FF5AC01092D0
:1033B000DA0257C0833F19F41916CCF352C090912A
:1033C000DC02893F31F419160CF04BC01092DC027C
:1033D00048C08A3F19F497FF44C0F8CF8B3F39F4B7
:1033E0008091DD0287FF3DC01092DD023AC08C3F24
:1033F00029F48091DD021816BCF333C0843F21F418
:103400008091D9028E7F17C0853F21F48091D90227
:103410008D7F11C0863F21F48091D9028B7F0BC034
:10342000873F21F48091D902877F05C0883F31F41E
:103430008091D9028F7E8093D90213C08D3F21F4F1
:103440008091A5038E7F0BC08E3F21F48091A50350
:103450008D7F05C08F3F29F48091A5038B7F8093DA
:10346000A5038091DA02811106C08091DB028111EF
:1034700002C01092D5028091DC02811106C08091B9
:10348000DD02811102C01092D20208958091A5033D
:1034900080FF08C06091210170E075956795759572
:1034A000679521C081FF06C06091210170E075958C
:1034B000679519C082FF04C06091210170E010C0BF
:1034C0009091D202992399F0609120019617A0F76C
:1034D00080912101899FC001112470E00E949934DC
:1034E0006038710540F46115710519F406C061E09A
:1034F00070E0862F08958FE7089581E00895809108
:10350000A503209178023091790280FF0CC0809150
:103510002301829FB001839F700D112476956795DA
:10352000769567952FC081FF0AC080912301829F05
:10353000B001839F700D11247695679523C082FF9B
:1035400008C080912301829FB001839F700D1124D8
:1035500019C04091D502411102C0B90113C0609158
:103560002201461770F780912301849FA001112446
:10357000429FC001439F900D529F900D112470E017
:103580000E9485346038710528F46115710521F0B9
:10359000862F08958FE7089581E00895803F21F4F4
:1035A0000E947F1A819504C0813F29F40E947F1AEE
:1035B0008093DB020895823F21F40E947F1A819557
:1035C00004C0833F29F40E947F1A8093DA02089591
:1035D000893F19F40E94461A05C08A3F31F40E94BF
:1035E000461A81958093DC0208958B3F21F40E9456
:1035F000461A819504C08C3F29F40E94461A809394
:10360000DD020895843F21F48091D902816017C0C2
:10361000853F21F48091D902826011C0863F21F458
:103620008091D90284600BC0873F21F48091D90238
:10363000886005C0883F31F48091D9028061809311
:10364000D90208958D3F21F48091A50381600BC0BC
:103650008E3F21F48091A503826005C08F3F29F43D
:103660008091A50384608093A5030895F894E82FC2
:10367000E295EF70F0E031A1282F2F7081E090E00B
:1036800001C0880F2A95EAF7982F9095932391A36C
:1036900092A1892B82A3789408958F929F92AF92E2
:1036A000BF92CF92DF92EF92FF920F931F93CF932F
:1036B000DF938FE2E82E81E0F82ECCEBD2E096EC9F
:1036C000A92E92E0B92E10E0CC24C394D12CB701DE
:1036D000D7018C91F894E82FE295EF70F0E021A1EA
:1036E0008F70A60102C0440F551F8A95E2F7CA01E8
:1036F000922F982B91A392A18095892382A37894ED
:1037000000C0E4E3F1E020E030E0812C912C419115
:10371000842F82958F7090E0DC0190968C9190E0E0
:103720004F7002C0959587954A95E2F780FD08C0D5
:10373000C601022E02C0880F991F0A94E2F702C048
:1037400080E090E0882A992A2F5F3F4F2F30310583
:10375000F1F6BFEFEB1AFB0AFB0180810E94361BDA
:10376000F0EAFA95F1F7888199818816990621F097
:103770009982888281E001C080E0182B2296AC16E5
:10378000BD0609F0A4CF112349F081E08093050321
:103790000E948D309093040380930303809105036E
:1037A000882391F180910303909104030E947E305D
:1037B000069750F18091BC029091BD029093F40263
:1037C0008093F3028091BE029091BF029093F60223
:1037D0008093F5028091C0029091C1029093F8020B
:1037E0008093F7028091C2029091C3029093FA02F3
:1037F0008093F9028091C4029091C5029093FC02DB
:103800008093FB0210920503809100018F3F41F1EC
:10381000D12C06E11BC00E9DF0010F9DF00D11246F
:10382000EC55FE4FA288B388A114B10421F4A090F6
:103830008802B09089020E9DE0010F9DD00D1124E9
:10384000CC55DE4F8E81811110C0D394ED2CF12C1C
:1038500080910001082E000C990B8E159F05DCF657
:1038600080910101811118C02BC08D859E850E9419
:103870007E30A816B90648F78989811103C0CE01A8
:103880000E949A200E9DC0010F9D900D1124865517
:103890009E4F0E94BB20D9CF809163029091640219
:1038A000009771F00E947E3020918602309187024D
:1038B0002817390728F481E00E9414210E94022170
:1038C00080918B0280FF1CC08091020182FF18C092
:1038D0000E948D3020916A0230916B02AC01421B34
:1038E000530B20912401309125014217530740F0DA
:1038F00041E0BC0180916802909169020E943920E8
:10390000812FDF91CF911F910F91FF90EF90DF906A
:10391000CF90BF90AF909F908F900895CF93DF93FB
:103920000E946523EC018238910559F1A0F481339E
:10393000910509F473C040F48932910509F467C018
:103940008A9709F472C084C08533910509F458C080
:10395000C997B9F07DC0833E910571F138F4803E7E
:103960009105B1F0823E910511F172C0863E91053C
:10397000B9F1873E9105C9F1843E910509F068C00F
:1039800024C08091BA0280FD5DC081FD5BC060C033
:103990008091BA0280FD50C08091BB0280FF49C176
:1039A0008091BA0284FD43C1C3EED0E042C1809150
:1039B000BA0282FF3EC1F4CF8091BA0282FD3FC0BD
:1039C0008091BB0280FD3EC0EBCF8091BB0281FFA6
:1039D00030C18091BA0284FD2AC1C7EED0E029C16E
:1039E0008091BA0283FF25C1F4CF8091BA0283FD92
:1039F0002CC08091BB0281FFECCFC4EED0E019C196
:103A00008091BA0285FF15C1C9E2D0E012C1809150
:103A1000BA0285FF0EC1C5E3D0E00BC18091BA02A6
:103A200086FF07C1CAE2D0E004C18091BA0286FFD6
:103A300000C1C1E3D0E0FDC0C9E3D0E0FAC0C2EEEE
:103A4000D0E0F7C0C0EED0E0F4C0C6EED0E0F1C0E8
:103A5000C11581E5D80708F066C0C11520E5D20779
:103A6000E0F0CE0174E0969587957A95E1F7837042
:103A70009C2F937021E030E002C0220F331F9A95F3
:103A8000E2F73C68382BCF70C695C69540E2C49FDC
:103A9000E0011124C22BD32BCCC0C83ED10560F568
:103AA000C03ED10508F0C5C0C83AD105B0F4C53A4A
:103AB000D10540F0C55AD0E0C15ADE4FC881D0E0F0
:103AC000D064B7C0C130D10509F4B3C008F4AFC0A9
:103AD000C430D10508F4ABC0ACC0CF3BD10508F071
:103AE000A6C0C85AD0E0CC0FDD1FCE59DE4F0990DA
:103AF000D881C02DD4649DC0C11540E2D40758F4CC
:103B0000C11581E0D80708F094C0C03FD10508F482
:103B10008EC0D0658EC0C11520E4D20708F487C0DE
:103B2000DF70D06A86C0C11545E5D40708F042C0F1
:103B3000C11584E5D80728F0DC2FCC27C46FD06AE4
:103B400078C0C11523E5D207B0F0CE018370992764
:103B500021E030E002C0220F331F8A95E2F78C2F5C
:103B60008695869540E2849FC0011124E901C82B07
:103B7000D92BDA685EC0C11542E5D40728F4DC2FE2
:103B8000CC27C16FD06A55C0CE018370992721E040
:103B900030E002C0220F331F8A95E2F78C2F869502
:103BA000869540E2849FC0011124E901C82BD92BDE
:103BB000DC683FC0C11589E5D807B8F4C11528E510
:103BC000D20728F0DC2FCC27C06FD06A32C0C115D5
:103BD00046E5D40760F58C2F0E94AE168F71C82F72
:103BE000D0E0DC2FCC27D06224C0C1158AE5D807ED
:103BF00080F48C2F8F700E94AE1694E0D695C795F6
:103C00009A95E1F7CF70D0E0DC2FCC27D069C82B94
:103C100010C0CE0190568115904248F48D2F8F71BF
:103C20000E94AE16DD27D0628F71D82B02C0C0E093
:103C3000D0E0CE01DF91CF91089581FF02C0589A64
:103C4000089558980895AF92BF92CF92DF92EF9265
:103C5000FF920F931F93CF93DF93EC018AE0A82E7E
:103C60002881222309F497C0213009F041C08981BD
:103C7000813039F48E010E5F1F4F8A810E94CD275B
:103C800008C0823041F48E010E5F1F4F8A810E946E
:103C90002927E8017EC0833039F48E010E5F1F4F63
:103CA0008A810E94C926F5CF843011F0219671C017
:103CB0002A81229680E090E030E0205331092A30BA
:103CC000310558F4A89EA001A99E500D1124C901E8
:103CD000840F951F21962881EFCF009709F459C0D2
:103CE000EFE9FFE03197F1F700C000000197F5CF51
:103CF000E22FF0E0E753FC4FB490822F8695869533
:103D0000869590E0FC01E754FC4FE4902770F12C7D
:103D1000022E02C0F594E7940A94E2F7F1E0EF2254
:103D2000FF24FC01E755FC4FC490D12C022E02C0A9
:103D3000D594C7940A94E2F731E0C322DD24FC0154
:103D4000E756FC4F049110E002C0159507952A959F
:103D5000E2F701701127E114F10419F081EE0E94DD
:103D60002927C114D10419F086EE0E9429278B2D32
:103D70000E94CD27CD2819F086EE0E94C926EF2893
:103D800019F081EE0E94C926012B19F08CE20E94E5
:103D9000CD27219665CFDF91CF911F910F91FF9095
:103DA000EF90DF90CF90BF90AF9008951F93CF9387
:103DB000DF9300D000D01F92CDB7DEB749835A837E
:103DC00089819A81662359F0222349F00E94FA31B1
:103DD000182F682F89819A810E94773203C00E9430
:103DE0004732182F69817A81812F0F900F900F90A1
:103DF0000F900F90DF91CF911F910C946523CF937B
:103E0000DF93EC010E94C926CE01805E91090897DC
:103E100010F0209719F461E776E202C06AE676E2D4
:103E2000CE01DF91CF910C94F116CF93DF93EC018B
:103E3000805E9109089710F0209719F460E676E209
:103E400002C066E576E2CE010E94F1168C2FDF916A
:103E5000CF910C942927E0E7F2E0848195812AE054
:103E600030E0B9010E94853460930501868180931A
:103E700006018285809323018485809322018685B3
:103E80009785B9010E9485346093030180898093EE
:103E900004018289809321018489809320010895FF
:103EA000809170029091710290932501809324017A
:103EB000089508950F931F93CF93DF93C7E0D3E046
:103EC000FE01118210821282339683E0EB38F807EC
:103ED000C1F700E010E080910603082E000C990B5A
:103EE0000817190794F080911F01082E000C990BF8
:103EF0008017910754F09E014091F1026091F00209
:103F00008091EF020E94BC1703C0198218821A82A6
:103F10000F5F1F4F23960C321105E9F60E941E1702
:103F200080911E0190910603980F909306032091B3
:103F30001F01280F20931F01121614F49B321CF04E
:103F4000819580931E01DF91CF911F910F9108956C
:103F5000EF92FF921F93CF93DF93EC0187E0E82E5F
:103F600083E0F82E10E08C8197014091F10260917E
:103F7000F002810F0E94BC171B5F83E0E80EF11C6A
:103F80001C3D89F70E941E179A818C8190FF02C008
:103F90008F5F01C081508C83DF91CF911F91FF9083
:103FA000EF900895CF93DF93EC01EEEEF2E04381C2
:103FB00062818C810E9452188C818F5F8C83DF918B
:103FC000CF910895CF93DF93EC01EC81F0E0E25BB9
:103FD000FA4F4491EEEEF2E0628181810E94521824
:103FE0008C818F5F8C83DF91CF910895009741F092
:103FF000EFE9FFE03197F1F700C000000197F6CF3D
:1040000008952091A3033091A4032817390771F074
:104010009093A4038093A303E091C702F091C80298
:10402000309721F00084F185E02D099408952091C6
:10403000A1033091A2032817390771F09093A203CE
:104040008093A103E091C702F091C802309721F05C
:104050000680F781E02D09940895E091C702F09160
:10406000C802309721F00190F081E02D099480E0A2
:104070000895FF920F931F93CF93DF938C01EB0171
:10408000F42E8091020182FF3CC08B7F809302015D
:1040900080916A0290916B029B01281B390B8091E1
:1040A0002401909125012817390750F48091680266
:1040B0000E942927809102018D7F8093020116C002
:1040C00080913904826080933904809168020E9453
:1040D00029278091020182608093020180918B02E6
:1040E00085FF04C086FD02C0F1101EC080918E02C3
:1040F00090918F020E94F61F809168020E94C9264B
:104100000AC0802F0E94C92680916802909169029E
:104110000817190719F482E00E9470310E94B93122
:10412000D0936B02C0936A02DF91CF911F910F91E0
:10413000FF900895CF93DF93EC0181E0898B9091FC
:1041400038048F81892B80933804909139048885B5
:10415000892B809339040E94B931EA81FB81CE0119
:104160000696309729F06C897D89DF91CF9109946B
:10417000DF91CF910895EF92FF920F931F93CF930A
:10418000DF93FC012285211136C0EC01E380F4802D
:10419000F7E5FF1A26E12E9DC0012F9D900D1124F9
:1041A000DC01AC55BE4F1496ED91FC9115978655E8
:1041B0009E4F309729F054966D917C9155970995B3
:1041C00086E18E9D80018F9D100D11240C551E4F90
:1041D000F80187810E947731F80180850E94703153
:1041E0000E94B931188219861B861E821D82109288
:1041F000A3011092A201DF91CF911F910F91FF9027
:10420000EF900895E2E9F2E080E090E088309105D7
:1042100031F0248127FF148201963596F7CF9093D1
:104220006702809366020895CF939091620299236A
:10423000C9F0882311F0C0E003C01092620212C0DE
:1042400080916202C817C8F7EC2FF0E0EE0FFF1F55
:10425000EC5AFD4F808191810E94151F0E94B93157
:10426000CF5FEECFCF9108950F931F93CF93DF933E
:10427000C42FD22FFC0182818823C9F040936C02A5
:104280000E948D309093A00380939F0380E28C0F57
:10429000883008F05BC0C77081E001C0880FCA9504
:1042A000EAF7DF91CF911F910F910C9460268091D6
:1042B0006C02481334C080919F039091A0030E9428
:1042C0007E3020918802309189028217930738F559
:1042D00010E21D0FCD17B9F080E28C0F883040F44A
:1042E000C77081E001C0880FCA95EAF70E94712665
:1042F000183028F581E09D2F977001C0880F9A959E
:10430000EAF70E946026802F0E94CD271830F0F433
:10431000D77081E001C0880FDA95EAF70AC080E221
:104320008C0F883098F4C77081E001C0880FCA955F
:10433000EAF7DF91CF911F910F910C947126802F96
:10434000DF91CF911F910F910C94CD27DF91CF91E9
:104350001F910F9108950F931F93CF93DF9300E761
:1043600012E0CFE7D2E0CE010E943534F80181930C
:104370008F012196C13AF2E0DF07A9F7C0E0D0E053
:10438000FE01ED5DFE4F85919491009711F0FC01C7
:1043900009952896C839D10599F7DF91CF911F91DA
:1043A0000F9108950F931F93CF93DF9300E712E0CF
:1043B000CFE7D2E0CE010E943534F80161918F0140
:1043C000681719F0CE010E9449342196C13AF2E0F3
:1043D000DF0781F7DF91CF911F910F910895E0E7FB
:1043E000F2E0128E138E8FEA90E09183808385E055
:1043F000848F88E893E1938382832CE231E03583D4
:10440000248382E390E09783868385E090E0918720
:1044100080878AE090E09387828744E150E0558767
:1044200044873787268724E630E0318B208B28E0CD
:1044300030E0338B228B28E230E0358B248B28EC64
:1044400030E0378B268B318F208F158E978F868F9C
:1044500080E590E091A380A30E94D2210C94AB212F
:10446000CF93DF93C1E4D3E060E0CE010E944934F2
:104470002196C11584E0D807B9F7DF91CF9108954F
:10448000883080F49B01982F8AE0989FB001112416
:104490006F507D4F4AE050E0C9010E94253480E012
:1044A00090E008958FEF9FEF0895883080F49B018E
:1044B000982F8AE0989FB00111246F557D4F4AE0F4
:1044C00050E0C9010E94253480E090E008958FEF0C
:1044D0009FEF08950F931F93CF93DF93843058F588
:1044E000653048F54F3038F521159CE5390731F432
:1044F000E0910701F0910801EF2BE9F08901C42F49
:10450000D0E0CC0FDD1F9EE1699FC00DD11D1124AD
:1045100096E9899FC00DD11D1124612FCE01879688
:104520000E944934602FCE018896DF91CF911F9170
:104530000F910C944934DF91CF911F910F91089501
:104540006F927F928F929F92AF92BF92CF92DF92A3
:10455000EF92FF920F931F93CF93DF93CDB7DEB708
:1045600064970FB6F894DEBF0FBECDBFA0900701D1
:10457000B090080181E090E09093080180930701DA
:10458000612CC12CD12C712CE12CF12C00E010E01D
:1045900046018E0C9F1CF801EE0FFF1FE80DF91D60
:1045A000E25BF94F25913491402F672D862D0E94B3
:1045B0006A220F5F1F4F0F30110569F78EE1E80E79
:1045C000F11C7394E5E07E12E1CFF6E9CF0ED11C29
:1045D000639484E06812D7CF0E94EF211A82198277
:1045E0001C821B821E821D8218861F8288EC90E02E
:1045F0009A87898701EA12E04AE050E0B801CE01CB
:1046000001960E946D34065F1F4F013FE2E01E07D6
:1046100099F77E01FBE0EF0EF11C8AE0F7011192A1
:104620008A95E9F74AE050E0B801C7010E946D346D
:10463000065F1F4F0134F3E01F07A1F7B092080196
:10464000A092070164960FB6F894DEBF0FBECDBFEF
:10465000DF91CF911F910F91FF90EF90DF90CF905E
:10466000BF90AF909F908F907F906F9008950F9321
:104670001F93CF93DF93843008F56530F8F44F3003
:10468000E8F4C42FD0E0CC0FDD1F2EE1629FC00DF7
:10469000D11D112436E9839FC00DD11D1124CE01F7
:1046A00087960E94353490E0182F0027CE01889617
:1046B0000E9435349801282BC90102C080E090E0A7
:1046C000DF91CF911F910F910895462F2091010303
:1046D00030910203232B91F47E3F39F46E3F71F445
:1046E00080919D0390919E030895843038F4753035
:1046F00028F46F3018F4672F0C94372380E090E093
:1047000008958F929F92AF92BF92CF92DF92EF92D5
:10471000FF920F931F93CF93DF93CDB7DEB72A9706
:104720000FB6F894DEBF0FBECDBF04EA11E0E12C56
:10473000F12C8BEAC82E85E2D82E96EDA92E95E2B3
:10474000B92E21E1822E25E2922EF801D182C0827B
:10475000B382A28295828482F58AE48ABE016F5F69
:104760007F4F8E2D0E945522892B29F489859A85A9
:10477000F801938B828BFFEFEF1AFF0A0A5E1F4F3F
:1047800088E0E816F10409F72A960FB6F894DEBF20
:104790000FBECDBFDF91CF911F910F91FF90EF9092
:1047A000DF90CF90BF90AF909F908F9008959091A1
:1047B000EE0290FF04C09695981740F003C0811157
:1047C00005C090E0961710F40C948D1961E00C94DC
:1047D0004919882311F0FA0101C0FB010994609185
:1047E000EE02669570E04BE050E083E191E00E94BC
:1047F000BA34892B19F481E08093ED020E948D3048
:104800009093CD028093CC020895CF92DF92FF92D5
:104810000F931F93CF93DF93CDB7DEB767970FB694
:10482000F894DEBF0FBECDBFF42E4B8B052F5C8BF3
:10483000162F6D8B7E8B8F8BCE88DF88A601602F25
:104840008F2D0E945133811109C080916E02909189
:104850006F02019690936F0280936E021111109275
:104860003904FE013D9686E0DF011D928A95E9F745
:104870008091720290917302892B11F10E948D3008
:104880002091340430913504821B930B20917202E5
:10489000309173028217930740F08091360482FBB7
:1048A000992790F981E0892701C080E080FF03C04B
:1048B00082E00E94D3320E949F3181110E946531B3
:1048C000FD860E871F87D98AC88A86E0FE013D963D
:1048D000DE01179601900D928A95E1F7CE010796B9
:1048E0000E946A28811146C086E0FE013796DE01EB
:1048F000119601900D928A95E1F7DF80F8840A8580
:104900001B85A8016F2D8D2D0E945133811132C05E
:104910002091CF0330E0C90101968770992740911B
:10492000000450E084179507B9F0D982FA821D83FC
:104930000C8396E0929FD001939FB00D1124A05359
:10494000BC4FFE01319601900D929A95E1F780934C
:10495000CF030E9460330EC00E94BE261092CF0388
:1049600010920004E9ECF3E086E0DF011D928A95E5
:10497000E9F719C016E0809100049091CF038917E0
:1049800091F0189FC001112480539C4F0E946A2807
:10499000882349F08091000490E001968770992760
:1049A00080930004E8CF67960FB6F894DEBF0FBE81
:1049B000CDBFDF91CF911F910F91FF90DF90CF90EE
:1049C0000895CF93DF9300D000D01F92CDB7DEB70C
:1049D00090939E0380939D03811520E2920748F4F3
:1049E0000F900F900F900F900F90DF91CF910C943C
:1049F000FF1E8EEF89838A831B820E948D30816027
:104A0000782F9D838C8349815A816B818D810E948F
:104A100005240F900F900F900F900F90DF91CF9182
:104A200008950F931F93CF93DF938C01EB0163E9FC
:104A300073E08C2F0E945522892B09F046C080918B
:104A40008E0290918F020E94F61FDD27C557DC4F22
:104A50008881F80110821882833079F048F481301F
:104A600041F1823091F5809195039091960309C0B0
:104A7000843051F08530E9F028C0809197039091FF
:104A800098030097B1F01BC08091990390919A030D
:104A90000097A9F42091930330919403809195039A
:104AA000909196032115310541F0009741F4C90119
:104AB00006C08091930390919403009731F0DF91A9
:104AC000CF911F910F910C94E124DF91CF911F9111
:104AD0000F910895CF93DF9300D000D01F92CDB7F0
:104AE000DEB790939E0380939D03811520E2920789
:104AF00048F40F900F900F900F900F90DF91CF918F
:104B00000C94151F8EEF89838A8381E08B830E942A
:104B10008D308160782F9D838C8349815A816B8190
:104B20008D810E9405240F900F900F900F900F9091
:104B3000DF91CF910895CF93DF93EC010E946A2516
:104B400080918E0290918F020E94F61FCE01DF911C
:104B5000CF910C94E1240F931F93CF93DF938C019B
:104B6000862F63E973E00E945522892BD1F4C0910E
:104B70009303D09194032097A1F0F80180818330B2
:104B800039F4CE010E949B25CE010E949B2502C0D4
:104B9000843038F0CE01DF91CF911F910F910C94AA
:104BA0009B25DF91CF911F910F9108950F931F9334
:104BB000CF93DF938C01EB0163E973E08C2F0E94AC
:104BC0005522892B09F06DC0DD27F80180818130E5
:104BD00041F49185911115C09285992391F082E05D
:104BE00010C0823049F4F8018185811107C08285A7
:104BF000811106C083E005C086E003C085E001C0E6
:104C000084E0C557DC4F88838330B1F028F48130CD
:104C100071F0823031F045C08430A9F0853079F1EF
:104C200040C080919503909196030097A1F58091E3
:104C300093039091940320C08091970390919803DF
:104C40000097E9F028C08091990390919A0300970A
:104C500011F58091930390919403009749F00E947D
:104C60009B258091950390919603009781F013C046
:104C70008091950390919603009799F00CC08091D4
:104C8000930390919403009761F00E949B2580917B
:104C9000930390919403DF91CF911F910F910C9406
:104CA0006A25DF91CF911F910F910895882339F0E4
:104CB00090913904892B809339040C94B93108956B
:104CC000882339F090913804892B809338040C9410
:104CD000B9310895882321F00E9470310C94B931C4
:104CE0000895882321F00E9477310C94B9310895FA
:104CF000E92FE295EF704E2F50E0FA013297EE3037
:104D0000F105B0F4E059FF4F0C94AD34803F91F0C1
:104D100018F4883E68F40EC0843F51F40BC0883EFE
:104D200048F0813F29F406C093FB882780F9089555
:104D300080E0089581E008950E943C320E94782628
:104D4000089580E090E00E94172080E090E00E94AB
:104D5000012010923904109237040E94B931E8ED15
:104D6000F2E086E0DF011D928A95E9F71092D50204
:104D70001092D2021092A5030C9497191092380445
:104D800086E0E3ECF3E0DF011D928A95E9F70C94ED
:104D9000A126882309F45CC0823869F40E942D2082
:104DA00081FF56C069E381EC93E00E94CF300E94FE
:104DB000B93169E30EC0833891F40E942D2080FF41
:104DC00047C063E581EC93E00E94CF300E94B93187
:104DD00063E581EC93E00E94C2300C94B9318438D1
:104DE00069F40E942D2082FF33C067E481EC93E0D8
:104DF0000E94CF300E94B93167E4EBCF9CEF980F4F
:104E0000913A10F4682FE5CF90E2980F983050F463
:104E1000877091E001C0990F8A95EAF7892F0E9467
:104E20007731DBCF9BE5980F933020F480E090E062
:104E30000C94172098E5980F973120F480E090E0CB
:104E40000C940120803F20F00E94C1190C94971906
:104E50000895CF93882309F49EC0C82F8238B1F4F7
:104E60000E942D2081FD97C069E381EC93E00E94B0
:104E7000CF300E94B9312FEF81EE94E02150804075
:104E80009040E1F700C0000069E317C08338E1F407
:104E90000E942D2080FD7FC063E581EC93E00E949D
:104EA000CF300E94B9312FEF81EE94E02150804045
:104EB0009040E1F700C0000063E581EC93E00E94C0
:104EC000C230CF910C94B9318438B1F40E942D20B6
:104ED00082FD61C067E481EC93E00E94CF300E94C4
:104EE000B9312FEF81EE94E0215080409040E1F7FE
:104EF00000C0000067E4E1CF8CEF8C0F813A80F4B2
:104F0000E3ECF3E089EC93E02191C217E1F18E1715
:104F10009F07D1F76C2F81EC93E00E94CF30D1CF67
:104F200080E28C0F883068F4C77081E090E001C0A7
:104F3000880FCA95EAF790913804892B809338043A
:104F4000C0CFEBE5EC0FE33040F4F0E0E15AFE4F68
:104F5000808190E0CF910C941720E8E5EC0FE731C9
:104F600050F4F0E0EE0FFF1FEE59FE4F808191816B
:104F7000CF910C940120C03F70F08C2F0E94CE1A6C
:104F8000CF910C9497196C2F81EC93E00E94C23062
:104F90000E94B931BFCFCF9108951F93CF93DF9374
:104FA000182F893329F4C0919002D091910204C046
:104FB000C0918E02D0918F02812F0E9429272097C5
:104FC00041F08FE99FE00197F1F700C000002197C1
:104FD000F6CF812FDF91CF911F910C94C926BF92FC
:104FE000CF92DF92EF92FF920F931F93CF93DF93B5
:104FF0008091CE0382958F7009F062C08091CB03BF
:10500000882309F45DC0C091000486E0B82E809129
:10501000CF03C81709F454C0F090C903E090CA0345
:10502000C090CC03D090CD03A6016E2D8F2D0E9491
:105030005133D0E0811141C0BC9E8001BD9E100D56
:105040001124F801E053FC4F51815E1136C04081BC
:105050004F1133C08281811130C0E380F480EC189D
:10506000FD0820E06091CB037091CC038091CD03CB
:105070000E94D61E8091880290918902E816F90656
:10508000E0F48091CE038F7080618093CE03F801AD
:10509000EB52FC4F80818F708061808389EC93E0BC
:1050A0000E946405DF91CF911F910F91FF90EF90C7
:1050B000DF90CF90BF900C9460332196C770A7CF3C
:1050C000DF91CF911F910F91FF90EF90DF90CF90E4
:1050D000BF9008954F925F926F927F928F929F92AE
:1050E000AF92BF92CF92DF92EF92FF920F931F93F6
:1050F000CF93DF93CDB7DEB761970FB6F894DEBFDD
:105100000FBECDBF8C0185E0F801DE011D96019038
:105110000D928A95E1F7D801EC901196FC901197C9
:1051200012966C9089ECA82E83E0B82E8090CC0368
:105130009090CD03A4016091CA038091C9030E949D
:105140005133782E8111DBC1F801C380D4804090A7
:10515000CB03C601881999094C0120E04091C9038D
:105160005091CA03442009F457C1642D7091CC03B7
:105170008091CD030E94D61E809188029091890271
:105180005090CE038816990608F013C14091CC03C5
:105190005091CD03B090C903A090CA03852D807FA4
:1051A0006A2D09F0A5C08B2D0E945133811115C0C5
:1051B000AF1013C0BE1011C061100FC0852D8F70CD
:1051C00080618093CE0389EC93E00E946405809116
:1051D000CE03D80115968C93B1C120E04091C9034C
:1051E0005091CA036091CB037091CC038091CD03A1
:1051F0000E94D61E8091880290918902843F91403E
:1052000050F0A6016F2D8E2D0E945133811115C0D3
:1052100081E0862514C020E04091C9035091CA0363
:105220006091CB037091CC038091CD030E94D61E78
:1052300080918D0280FDE5CF17C080E090E080FF77
:1052400013C0462D6F2D8E2D0E943133882361F0BF
:1052500089EC93E00E946405E9ECF3E086E0DF016D
:105260001D928A95E9F76AC1A6016F2D8E2D0E94C5
:105270005133811103C081E0862502C080E090E0B7
:10528000B82FB170CB2E80FF2AC0462D6F2D8E2DEA
:105290000E943133D82E811122C0ED86FE868D8585
:1052A0009E850E943C32292F22952F70223018F0C3
:1052B000243078F405C09F7049F0811107C00DC0FB
:1052C0009F7021F0F8019581907F39F0805E8830E1
:1052D00020F0C8010E946405DC2C7D2C2FC16620C3
:1052E00009F42BC18091CE0381608093CE0326C147
:1052F0008B2D0E945133811115C0AF1013C0BE1009
:1053000011C061100FC0D80115965C92C8010E94AF
:10531000640586E0F801A9ECB3E001900D928A954E
:10532000E1F760C0ED86FE868D859E850E949C26F5
:105330008823C9F16620B9F12091CE03822F82958E
:105340008F7090E0029774F08091C9039091CA0326
:1053500098878F831986DB86CA862C87CE010796AD
:105360000E94640586E0F801A9ECB3E001900D927B
:105370008A95E1F70E94EF2719C09090C9038090A9
:10538000CA034091CC035091CD03682D892D0E9412
:1053900051338823B1F0ED86FE868D859E850E946F
:1053A0009C26811121C0C8010E9464057724739452
:1053B000C5C0852D807F09F789EC93E00E946405C4
:1053C00098C08F10E8CF9E10E6CF6110E4CFD801CF
:1053D00015965C92C8010E94640586E0F501119261
:1053E0008A95E9F7742CAAC06620E9F22091CE03D1
:1053F000822F82958F7090E002970CF4B3CF80914A
:10540000C9039091CA039A8389831B82DD82CC826F
:105410002E83CE010196A4CF60E07091CC038091E1
:10542000CD030E94D61E8091880290918902881631
:10543000990608F05EC0762C662009F4B4CFC090BF
:10544000C903D090CA034091CC035091CD036D2D78
:105450008C2D0E94513381113BC0DF1039C0CE101A
:1054600037C020E0A6016091CB037091CC038091FE
:10547000CD030E94D61E80918D0282FD20C08091B6
:10548000CE0380FD1CC082958F70482F50E04115DF
:105490005105A9F02091CE03D80115962C931597AC
:1054A0004F30510549F08F5F982F9295907F822F52
:1054B0008F70892B15968C93C8010E94640586E035
:1054C000F801A9ECB3E001900D928A95E1F736C09E
:1054D000ED86FE868D859E850E949C26811142CF99
:1054E0008091CE0381608093CE03C8010E94640541
:1054F00025C086E0F50111928A95E9F71FC0662064
:1055000009F451CFED86FE868D859E850E949C26EE
:10551000782E882309F447CF86E0F801A9ECB3E0A0
:1055200001900D928A95E1F78091C9039091CA0389
:105530000E943C320E94EF2701C0712C872D61969A
:105540000FB6F894DEBF0FBECDBFDF91CF911F9194
:105550000F91FF90EF90DF90CF90BF90AF909F9012
:105560008F907F906F905F904F9008950F931F934F
:105570008091BD039091BE03A091BF03B091C00381
:105580008C019D010670112722273327BC01CD0114
:10559000063011052105310511F4686001C0677FEF
:1055A0001F910F910C94A4321F93CF93DF93CDB72B
:1055B000DEB7AA970FB6F894DEBF0FBECDBFE5EBFE
:1055C000F3E08091F100819343E0ED3BF407C9F7EC
:1055D0008091B603833009F462C030F4813071F0F9
:1055E000823009F49CC0B3C08A3009F488C08B3083
:1055F00009F46DC0893009F0AAC020C08091B503BC
:10560000813A09F0A4C08091E800877F8093E80088
:105610008091B9039091BA03892B21F468E089EA5B
:1056200093E003C060E080E090E070E00E94BE3351
:105630008091E8008B778093E80089C08091B50362
:10564000813209F084C08091B9039091BA03009728
:1056500019F0029709F07BC08091E800877F809362
:10566000E8008091E80082FD05C08091B3038111BC
:10567000F8CF6DC02091F3008091F20090E0922B62
:10568000029729F48091F1008B7F813021F4809181
:10569000F1008093A8038091E8008B7754C080913B
:1056A000B503813A09F053C08091B9039091BA03D0
:1056B000892B09F04CC08091E800877F8093E80037
:1056C0008091E80080FFFCCF8091260137C0809157
:1056D000B5038132E1F58091B9039091BA03892B2A
:1056E000B1F58091E800877F8093E8000E946A33DB
:1056F0008091B703809326010E94BE2628C0809126
:10570000B503813221F58091E800877F8093E8001E
:105710000E946A338091B8038093A70318C08091D8
:10572000B503813AA1F48091E800877F8093E80077
:105730008091E80080FFFCCF8091A7038093F10067
:105740008091E8008E778093E8000E946A33809110
:10575000E80083FFE9C18091B5039091B603492F1A
:1057600050E04A30510508F0DFC1FA01E258FF4F1E
:105770000C94AD34803821F0823809F0D5C108C0CE
:105780008091B1039091B203992389F082600FC098
:105790008091B9038F70873008F0C6C18093E9000B
:1057A0008091EB0085FB882780F91092E9009091A9
:1057B000E800977F9093E8008093F1001092F10049
:1057C0007CC1282F2D7F09F0AFC1882319F08230CA
:1057D00061F0AAC18091B703813009F0A5C193306F
:1057E00009F080E08093B2032EC08091B70381114D
:1057F0002AC08091B9038F702FEF280F263008F050
:1058000093C18093E9002091EB0020FF1CC09330EE
:1058100021F48091EB00806214C09091EB009061C4
:105820009093EB0021E030E0A90102C0440F551F26
:105830008A95E2F74093EA001092EA008091EB002B
:1058400088608093EB001092E9008091E800877FE8
:105850008093E8000E946A3367C1811165C110918D
:10586000B7031F778091E3008078812B8093E3005A
:105870008091E800877F8093E8000E946A338091DE
:10588000E80080FFFCCF8091E30080688093E30014
:10589000111102C082E001C083E08093B30344C1D0
:1058A0008058823008F040C12091B7033091B8038E
:1058B0002C3D53E0350779F583E08A838AE28983BA
:1058C0004FB7F894DE01139620E03EE051E2E32F5B
:1058D000F0E050935700E49120FF03C0E295EF7091
:1058E0003F5FEF708E2F90E0EA3010F0C79601C056
:1058F000C0968D939D932F5F243149F74FBF8091C0
:10590000E800877F8093E8006AE270E0CE010196AC
:105910000E94BE33C0C08091B9039091BA03432F57
:10592000552743305105B1F068F44130510509F471
:105930000AC14230510509F0F7C08BE590E0E9E873
:10594000F9E057C04132510589F14232510509F45D
:105950003CC0EAC0C901992781309105B9F070F0C7
:1059600082309105D9F0039709F0DEC0E6EFF9E047
:10597000E4918E2F90E0E6EFF9E038C0E2E3FAE040
:10598000E4918E2F90E0E2E3FAE030C0E2E2FAE048
:10599000E4918E2F90E0E2E2FAE028C0E4E1FAE040
:1059A000E4918E2F90E0E4E1FAE020C0833091058D
:1059B00008F0BAC0880F991FFC01E756FE4F01900E
:1059C000F081E02D89E090E014C08330910508F06B
:1059D000ABC0FC01EE0FFF1FED56FE4F0190F081B2
:1059E000E02DDC01A057BE4F8C9190E0009709F4A8
:1059F0009BC02091E800277F2093E8002091BB0303
:105A00003091BC032817390708F4C90140E000971A
:105A100089F12091B303222309F43DC02530D9F147
:105A20002091E80023FD37C02091E80022FD2FC01F
:105A30002091E80020FFEBCF4091F3002091F2008D
:105A400030E0342B009759F02830310540F4449170
:105A50004093F100319601972F5F3F4FF3CF41E024
:105A60002830310509F040E02091E8002E7720939E
:105A7000E800CDCF4111CDCF0AC08091B303882378
:105A800051F0853041F08091E80083FD04C08091A1
:105A9000E80082FFF2CF8091E8008B778093E800E6
:105AA00043C0803809F040C08091E800877F809330
:105AB000E8008091B4038093F1008091E8008E7734
:105AC000C7CE811131C08091B7039091B803992757
:105AD000029754F58091E800877F8093E800109149
