:100000000C94AF030C94F6030C94F6030C94F603D3
:100010000C94F6030C94F6030C94F6030C94F6037C
:100020000C94F6030C94F6030C947E210C94BA20E5
:100030000C94B7180C94F6030C94F6030C94F60386
:100040000C94F6030C94F6030C94F6030C94F6034C
:100050000C94F6030C9485180C94F6030C94F60398
:100060000C94F6030C94F6030C94F6030C94F6032C
:100070000C94F6030C94F6030C94F6030C94F6031C
:100080000C94F6030C94F6030C94F6030C94F6030C
:100090000C94F6030C94F6030C94F6030C94F603FC
:1000A0000C94F6030C94F6030C94F603BB10BB10EF
:1000B000F310F31068112C132C132C1384116212FB
:1000C0007312731238163B16621671167816831661
:1000D0008616C816EA1695179517F516F716FB1625
:1000E000231748174B174E177317661A661A791A93
:1000F000791A6F1A791A791A791A661A661A741A9D
:10010000791A791A741AC21EE91E9C20E91E9C20D5
:10011000351F581F9C205920692000000000000056
:1001200000000000000000000000000000000000CF
:1001300000000000000000000000000000007E0F32
:1001400000D4FFFFFFC7000000780000000000009F
:1001500000002A2B28000000000000000000000022
:10016000000000000029000000002C1E3420212285
:1001700024342627252E362D3738271E1F202122EE
:10018000232425263333362E37381F040506070867
:10019000090A0B0C0D0E0F10111213141516171857
:1001A000191A1B1C1D2F3130232D35040506070895
:1001B000090A0B0C0D0E0F10111213141516171837
:1001C000191A1B1C1D2F3130354C00010101010192
:1001D0000101010102020202020202020203030300
:1001E00003030303030404040404040405050505D0
:1001F0000506060606060707070707080808080990
:100200000909090A0A0A0B0B0B0C0C0C0D0D0D0E3B
:100210000E0E0F0F0F1010111111121213131414D0
:10022000151516161717181819191A1A1B1B1C1D45
:100230001D1E1E1F2020212222232424252626279E
:100240002829292A2B2C2D2D2E2F303132323334D0
:1002500035363738393A3B3C3D3E3F4041424344D6
:1002600045464748494A4C4D4E4F505153545556B8
:1002700058595A5B5D5E5F616264656668696B6C64
:100280006D6F7072737577787A7B7D7E80828385DF
:1002900087888A8C8E8F91939596989A9C9EA0A21F
:1002A000A3A5A7A9ABADAFB1B3B5B7BABCBEC0C229
:1002B000C4C6C9CBCDCFD1D4D6D8DBDDDFE2E4E7ED
:1002C000E9EBEEF0F3F5F8FAFDFFFFAA7F554022C7
:1002D00023252628292A2C2D2F3032333536383A3B
:1002E0003B3D3E4042434547494A4C4E5051535591
:1002F00057595A5C5E6062646668696B6D6F7173B2
:100300007577797B7D7F81838587898A8C8E9092B2
:100310009496989A9C9E9FA1A3A5A7A8AAACAEAFBD
:10032000B1B3B4B6B8B9BBBCBEBFC1C2C3C5C6C702
:10033000C9CACBCCCDCED0D1D2D2D3D4D5D6D7D7B3
:10034000D8D9D9DADADBDBDBDCDCDCDCDCDDDDDDFB
:10035000DDDCDCDCDCDCDBDBDBDADAD9D9D8D7D7F7
:10036000D6D5D4D3D2D2D1D0CECDCCCBCAC9C7C6A4
:10037000C5C3C2C1BFBEBCBBB9B8B6B4B3B1AFAEE2
:10038000ACAAA8A7A5A3A19F9E9C9A989694929088
:100390008E8C8A89878583817F7D7B797775737160
:1003A0006F6D6B6968666462605E5C5A595755533D
:1003B00051504E4C4A4947454342403E3D3B3A38F6
:1003C00036353332302F2D2C2A2928262523222971
:1003D000001E001F00200021002200230024002511
:1003E00000260027002D002E002A0049002B0014B3
:1003F000001A000800150017001C0018000C00125D
:100400000013002F00300031004C003900040016AA
:1004100000070009000A000B000D000E000F00335A
:10042000003400310028000000E10064001D001BC2
:1004300000060019000500110010003600370038D2
:1004400000E50052000000E000E300E200000000D0
:100450000000002C0000000000E6000151E4005004
:100460000051004F000100010001000100010001E6
:100470000001000100010001000100010001000174
:100480000001000100010001000100010001000164
:100490000001000100010001000100010001000154
:1004A0000001000100010001000100010001000144
:1004B0000001000100010001000100010000000135
:1004C0000001000100010001000100010001000124
:1004D0000001000100010001000100000001000115
:1004E0000001000000000000000100000000000109
:1004F00000010001000100010001000100010001F4
:1005000000010001000100010001000100010001E3
:1005100000010001000100010001000100010001D3
:1005200000010001000100010001000100010001C3
:1005300000010001000100010001000100010001B3
:1005400000010001000100010001000100010001A3
:100550000001000000010001000100010001000194
:100560000001000100010001000100010001000183
:100570000000000100010001000000000000000177
:100580000000000000010001000100010001000165
:100590000001000100010001000100010001000153
:1005A0000001000100010001000100010001000143
:1005B0000001000100010001000100010001000133
:1005C0000001000100010001000100010001000123
:1005D0000001000100010001000100010001000113
:1005E0000001000100010001000000010001000104
:1005F00000010001000100010001000100010001F3
:1006000000010001000100000001000100010000E4
:1006100000000000000100000000000100010001D6
:10062000000100010001007F3F1F643214783C1E6E
:100630001E140A0505010980A101850319012AB7C5
:1006400000150126B700950175108100C0050C0941
:1006500001A101850419012AA002150126A0029515
:100660000175108100C00660FF0961A101096215D2
:100670000026FF009520750881020963150026FFFA
:1006800000952075089102C005010906A101050722
:1006900019E029E7150025019508750181029501EA
:1006A000750881010507190029FF150026FF00952F
:1006B0000675088100050819012905950575019140
:1006C00002950175039101C009025B00030100A0BE
:1006D000FA090400000103010100092111010001D0
:1006E0002240000705810308000A090401000203F3
:1006F00000000009211101000122220007058203E8
:100700002000010705030320000109040200010382
:1007100000000009211101000122320007058403B5
:1007200020000A12011001000000080547021F0105
:1007300000010203010403300000000C036E00748A
:100740000036003600300000000E034500760079C8
:100750000064003100330000000403090400112488
:100760001FBECFEFDAE0DEBFCDBF04B603FE27C069
:1007700080917C0290917D02A0917E02B0917F02D7
:100780008730904BA740B04BD1F410927C0210926E
:100790007D0210927E0210927F0214BE84B7877F82
:1007A00084BF0FB6F894A89580916000886180930B
:1007B0006000109260000FBEE0E0F8E3099511E0E0
:1007C000A0E0B1E0EEE9F9E402C005900D92A8388E
:1007D000B107D9F722E0A8E8B1E001C01D92AC371B
:1007E000B207E1F70E946A130C94CD240C94000028
:1007F0000895AF92BF92CF92DF92EF92FF920F9344
:100800001F93CF93DF93E82EF62EE901E42FF0E05B
:10081000611106C0E653FE4FE4914E2F2E2F71C09A
:10082000062F10E0E653FE4F4491F42FC42ED12C36
:1008300026E0829FC00111242FEF30E0B9010E9411
:100840009F245BEA5603C001579F900D11248E0D23
:10085000911D8E0D911D582F550F580FD901A01BBA
:10086000B10BAC9DC001AD9D900DBC9D900D1124B0
:10087000E92FF59ED0011124AB2FBB277901EA1A8D
:10088000FB0AEC9CD001ED9CB00DFC9CB00D11243A
:100890005901A51AB108A09E7001A19EF00CB09E4E
:1008A000F00C1124EF2CFF242E193F092C9D800100
:1008B0002D9D100D3C9D100D1124212F62307105CE
:1008C00091F048F461157105E1F061307105B9F4FA
:1008D000242F4B2F16C06430710569F040F066304C
:1008E000710579F00CC0242F492FE12F0AC0492F40
:1008F000EF2F2B2F06C0292FE42F412F02C0292FC5
:10090000EB2F49832883EA83DF91CF911F910F91C9
:10091000FF90EF90DF90CF90BF90AF9008959091AF
:10092000A80192FF0DC0282F2871283019F4877F65
:10093000846006C0282F2471243011F48B7F8860D6
:1009400093FF0DC0282F2871283119F4877E846108
:1009500006C0282F2471243111F48B7E88612091E8
:10096000A90120FF0DC0382F3871383019F4877F66
:10097000816006C0382F3171313011F48E7F88606C
:1009800021FF0DC0282F2871283119F4877E81613D
:1009900006C0282F2171213111F48E7E886194FDCB
:1009A000877E0895CF92DF92FF920F931F93CF938C
:1009B000DF93CDB7DEB767970FB6F894DEBF0FBEF3
:1009C000CDBFF42E4B8B052F5C8B162F6D8B7E8B42
:1009D0008F8BCE88DF88611110925802FE013D9600
:1009E00086E0DF011D928A95E9F70E94AB182091FD
:1009F000540230915502821B930B8838934140F08A
:100A00008091560282FB992790F981E0892701C0E5
:100A100080E080FF03C082E00E94031B0E94AB18AD
:100A200020915A0230915B02821B930B88389341CC
:100A300010F00E948319FD860E871F87D98AC88A05
:100A400086E0FE013D96DE01179601900D928A9593
:100A5000E1F7CE0107960E94D71B81113EC086E0C8
:100A6000FE013796DE01119601900D928A95E1F70D
:100A7000FF81E8856A857B856115710531F0EF3F5F
:100A800031F481E0FF3F19F403C081E001C080E050
:100A900080FD23C02091EF0130E0C90101968770ED
:100AA00099274091200250E08417950779F1F98346
:100AB000EA837D836C8396E0929FD001939FB00D73
:100AC0001124A051BE4FFE01319601900D929A95CE
:100AD000E1F78093EF010E94611B16E080912002F4
:100AE0009091EF018917F9F0189FC00111248051EE
:100AF0009E4F0E94D71B8823B1F08091200290E086
:100B000001968770992780932002E8CF0E94861D66
:100B10001092EF0110922002E9EEF1E086E0DF0191
:100B20001D928A95E9F767960FB6F894DEBF0FBE5F
:100B3000CDBFDF91CF911F910F91FF90DF90CF90AC
:100B400008952091A4013091A5012817390771F06B
:100B50009093A5018093A401E091B501F091B601B5
:100B6000309721F00084F185E02D099408952091BB
:100B7000A2013091A3012817390771F09093A301C6
:100B80008093A201E091B501F091B601309721F078
:100B90000680F781E02D09940895E091B501F09168
:100BA000B601309721F00190F081E02D099480E0AA
:100BB00008950F931F93CF93DF93C42F122FFC013F
:100BC00082818823C9F04093A6010E94AB189093BC
:100BD000A1018093A00180E28C0F883008F063C0EF
:100BE000C77081E001C0880FCA95EAF7DF91CF9105
:100BF0001F910F910C94981D8091A60148133CC041
:100C00002091A0013091A1014FB7F8948091DD01AE
:100C10009091DE01A091DF01B091E0014FBF821BF6
:100C2000930B883C910540F5D0E2D10FC117B9F084
:100C300080E28C0F883040F4C77081E001C0880FDB
:100C4000CA95EAF70E94911DD83030F581E0912FC6
:100C5000977001C0880F9A95EAF70E94981D802F1F
:100C60000E94A21DD830F8F4212F277081E001C026
:100C7000880F2A95EAF70AC080E28C0F883098F432
:100C8000C77081E001C0880FCA95EAF7DF91CF9164
:100C90001F910F910C94911D802FDF91CF911F9187
:100CA0000F910C94A21DDF91CF911F910F91089588
:100CB000CF93DF93CFE7D2E060E0CE010E946B24B8
:100CC0002196C11584E0D807B9F7DF91CF91089537
:100CD0001F93CF93DF93962F843000F56530F0F4A7
:100CE0004F30E0F4632F122FC42FD0E0CC0FDD1F64
:100CF0002EE1929FC00DD11D112496E9899FC00D50
:100D0000D11D1124CE0187960E946B24612FCE0144
:100D10008896DF91CF911F910C946B24DF91CF9136
:100D20001F910895AF92BF92CF92DF92EF92FF9200
:100D30000F931F93CF93DF93A12CE12CF12CB12CB7
:100D400000E010E0C0E0D0E06701C00ED11EFE015F
:100D5000EE0FFF1FEC0DFD1DE153FC4F259134916B
:100D60004C2F6B2D8A2D0E9468062196CF30D1051D
:100D700071F7025E1F4FB39485E0B812E3CF86E9A6
:100D8000E80EF11CA39484E0A812D9CFDF91CF9193
:100D90001F910F91FF90EF90DF90CF90BF90AF9099
:100DA00008950F931F93CF93DF93843008F5653038
:100DB000F8F44F30E8F4C42FD0E0CC0FDD1F2EE163
:100DC000629FC00DD11D112436E9839FC00DD11D36
:100DD0001124CE0187960E94572490E0182F0027F7
:100DE000CE0188960E9457249801282BC90102C081
:100DF00080E090E0DF91CF911F910F910895462FF1
:100E0000843038F4753028F46F3018F4672F0C9460
:100E1000D10680E090E00895882311F0FA0101C026
:100E2000FB0109946091CE01669570E04BE050E0C3
:100E300080E091E00E94C024892B19F481E0809326
:100E4000CD010E94AB189093BB018093BA01089525
:100E50008091CE0180FF0AC0559A8BB18F7D9BB1E6
:100E600090622FB7F894EEE8F1E00BC0EEE8F1E005
:100E7000118210821282339631E0E03AF307C1F713
:100E8000EBCF31E0E03AF30789F0319148E09BB9CC
:100E9000000000C037FF8BB9330F000000C000C056
:100EA00000C08BB900C04A9591F7EBCF2FBF8FE5FB
:100EB00094E00197F1F700C0000008950F931F938D
:100EC000CF93DF93CEE8D1E0FE011182108212822F
:100ED000339681E0E03AF807C1F700E010E0809136
:100EE0008D01082E000C990B0817190794F08091BA
:100EF0000C01082E000C990B8017910754F09E01ED
:100F00004091D1016091D0018091CF010E94F903FD
:100F100003C0198218821A820F5F1F4F2396063072
:100F20001105E9F60E94280780910B0190918D012F
:100F3000980F90938D0120910C01280F20930C01A4
:100F4000121614F495301CF0819580930B01DF91FB
:100F5000CF911F910F910895EF92FF921F93CF931E
:100F6000DF93EC018EE8E82E81E0F82E10E08C8112
:100F700097014091D1016091D001810F0E94F90346
:100F8000165D83E0E80EF11C1C3F89F70E942807DC
:100F90009A818C8190FF02C08F5F01C081508C8349
:100FA000DF91CF911F91FF90EF9008959091CE0126
:100FB00090FF0CC0EEE8F1E08183608342833396BA
:100FC00091E0E03AF907C1F70C9428070895CF9310
:100FD000DF9300D01F92CDB7DEB79091CE0190FF86
:100FE0000AC09E012F5F3F4F0E94F9034B81698128
:100FF0008A810E94D6070F900F900F90DF91CF91BA
:101000000895CF93DF93EC01EEECF1E04381628130
:101010008C810E94E7078C818F5F8C83DF91CF9159
:101020000895CF93DF93EC01EC81F0E0E153FD4FA5
:101030004491EEECF1E0628181810E94E7078C81AE
:101040008F5F8C83DF91CF9108958091CE01282FFF
:10105000269530E02115310519F48170826005C0B4
:101060002C31310524F0817086638093CE01089580
:10107000CF92DF92EF92FF926B017C010E942508D4
:10108000B701A60188E090E0FF90EF90DF90CF904D
:101090000C947D245F926F927F928F929F92AF9279
:1010A000BF92CF92DF92EF92FF920F931F93CF9355
:1010B000DF9300D01F92CDB7DEB7182F762E042F06
:1010C000622E9091CE0190FF6DC0E92FE695AE2F74
:1010D000B0E0A85EBE4F8C918093CC019E7F923091
:1010E00061F49E012F5F3F4F812F0E94F9034B81D6
:1010F00069818A810E94D60743C0823019F4009129
:10110000D1013EC0863019F41091CF0139C0893029
:10111000D9F38231A9F5E2518E2F8170582EE695D0
:10112000F0E0E653FD4FA590B4908EE8C82E81E024
:10113000D82EE12CF12CBB2496E0892E912CAE9C6C
:10114000C001AF9C900DBE9C900D1124B4010E9473
:101150009F24812F511002C0860F01C0861B96016B
:10116000402F672D0E94F9038FEFE81AF80A83E0F9
:10117000C80ED11C86E0E816F10409F70E94280782
:101180001093CF017092D0010093D101662051F0ED
:101190006091CE017091CF018091D0019091D101E9
:1011A0000E9438080F900F900F90DF91CF911F9100
:1011B0000F91FF90EF90DF90CF90BF90AF909F90F6
:1011C0008F907F906F905F900895EEECF1E04381F7
:1011D00028E0421B08F440E021E0628181810C9408
:1011E0004A08EEECF1E0438128E0420F08F44FEFAB
:1011F00021E0628181810C944A08EEECF1E0628189
:1012000028E0621B08F460E021E0438181810C94B6
:101210004A08EEECF1E0628128E0620F08F46FEF1B
:1012200021E0438181810C944A08EEECF1E0818158
:1012300021E04381628188500C944A08EEECF1E091
:10124000818121E043816281885F0C944A0880910A
:10125000D201882319F081508093D2016091CE0190
:101260007091CF018091D0019091D1010C943808F8
:101270008091D201833018F48F5F8093D201609106
:10128000CE017091CF018091D0019091D1010C9449
:1012900038089091CE0190FF36C09170811102C044
:1012A000926006C08C3110F0966302C0880F982BB4
:1012B0009093CE01662351F06091CE017091CF01E1
:1012C0008091D0019091D1010E9438086091CE01A7
:1012D000669570E04BE050E080E091E00E94C02411
:1012E000892B19F01092CD0102C00E94120781E0F3
:1012F0008093BD0120E04091D1016091D0018091A7
:10130000CF010C944A0808958091CE0186958150B2
:1013100009F48BE161E00C9449098091CE01869536
:101320008F5F8C3108F081E061E00C944909909165
:10133000CE0190FF04C09695981740F003C081112C
:1013400005C090E0961710F40C948D0961E00C94A0
:101350004909EEECF1E083E080838FE781838FEF32
:1013600082838383148260817181828193810C9452
:101370003808F894E82FE295EF70F0E031A1282FBB
:101380002F7081E090E001C0880F2A95EAF7982F2E
:101390009095932391A392A1892B82A37894089589
:1013A0009F92AF92BF92CF92DF92EF92FF920F93F4
:1013B0001F93CF93DF9304E311E0CAEAD1E084EBFB
:1013C000E82E81E0F82E912CCC24C394D12CB801C6
:1013D000D8018C91F894E82FE295EF70F0E021A10C
:1013E0008F70A60102C0440F551F8A95E2F7CA010B
:1013F000922F982B91A392A18095892382A3789410
:1014000000C0E9E3F1E020E030E0A12CB12C4191F3
:10141000842F82958F7090E0DC0190968C9190E003
:101420004F7002C0959587954A95E2F780FD08C0F8
:10143000C601022E02C0880F991F0A94E2F702C06B
:1014400080E090E0A82AB92A2F5F3F4F2F30310566
:10145000F1F60F5F1F4FFB0180810E94B909F0EA8E
:10146000FA95F1F788819981A816B90621F0B98219
:10147000A88281E001C080E0982A2296EC16FD0641
:1014800009F0A5CF992049F081E080938C010E945A
:10149000AB1890938B0180938A0180918C018823F3
:1014A000E9F120918A0130918B014FB7F894809136
:1014B000DD019091DE01A091DF01B091E0014FBF0D
:1014C000821B930B069750F18091AA019091AB017A
:1014D0009093D4018093D3018091AC019091AD01A0
:1014E0009093D6018093D5018091AE019091AF0188
:1014F0009093D8018093D7018091B0019091B10170
:101500009093DA018093D9018091B2019091B30157
:101510009093DC018093DB0110928C01892DDF9187
:10152000CF911F910F91FF90EF90DF90CF90BF90E0
:10153000AF909F900895CF93DF930E94FF06EC0138
:101540008238910559F1A0F48133910509F473C0F3
:1015500040F48932910509F467C08A9709F472C092
:1015600084C08533910509F458C0C997B9F07DC08E
:10157000833E910571F138F4803E9105B1F0823ED1
:10158000910511F172C0863E9105B9F1873E910532
:10159000C9F1843E910509F068C024C08091A8017A
:1015A00080FD5DC081FD5BC060C08091A80180FDB1
:1015B00050C08091A90180FF36C18091A80184FDAF
:1015C00030C1C3EED0E02FC18091A80182FF2BC1B2
:1015D000F4CF8091A80182FD3FC08091A90180FDD8
:1015E0003EC0EBCF8091A90181FF1DC18091A80170
:1015F00084FD17C1C7EED0E016C18091A80183FF1A
:1016000012C1F4CF8091A80183FD2CC08091A90163
:1016100081FFECCFC4EED0E006C18091A80185FF28
:1016200002C1C9E2D0E0FFC08091A80185FFFBC0E4
:10163000C5E3D0E0F8C08091A80186FFF4C0CAE2FB
:10164000D0E0F1C08091A80186FFEDC0C1E3D0E0F9
:10165000EAC0C9E3D0E0E7C0C2EED0E0E4C0C0EE2B
:10166000D0E0E1C0C6EED0E0DEC0C11582E5D8070B
:1016700008F066C0C11591E5D90728F0DC2FCC270A
:10168000C16FD06AD0C0C83ED10560F5C03ED1055B
:1016900008F0C9C0C83AD105B0F4C53AD10540F048
:1016A000C55AD0E0C95ADE4FC881D0E0D064BBC073
:1016B000C130D10509F4B7C008F4B3C0C430D105B6
:1016C00008F4AFC0B0C0CF3BD10508F0AAC0C85ADB
:1016D000D0E0CC0FDD1FC65ADE4F0990D881C02D57
:1016E000D464A1C0C11520E5D207E0F0CE0174E0BA
:1016F000969587957A95E1F783709C2F937021E0FA
:1017000030E002C0220F331F9A95E2F73C68382B75
:10171000CF70C695C69580E2C89FE0011124C22B08
:10172000D32B81C0C11580E4D80718F0DF70D06AD0
:101730007AC0CE019A9581159F4108F474C071C09A
:10174000C11586E5D807F0F5C11595E5D90750F024
:101750008C2F0E948F048F71C82FD0E0DC2FCC27F4
:10176000D06261C0C11524E5D20728F0DC2FCC2758
:10177000C46FD06A58C09E01237033278C2F869582
:101780008695C115D34578F4C1E0D0E002C0CC0FF6
:10179000DD1F2A95E2F720E2829FC0011124C82BA9
:1017A000D92BDC6840C0C1E0D0E002C0CC0FDD1F07
:1017B0002A95E2F720E2829FC0011124C82BD92B81
:1017C000DA6831C0C1152AE5D207E8F4C11589E508
:1017D000D80780F08C2F8F700E948F0494E0D695EC
:1017E000C7959A95E1F7CF70D0E0DC2FCC27D06970
:1017F000C82B19C0C11598E5D90798F0DC2FCC2764
:10180000C06FD06A10C0CE0190568115904248F446
:101810008D2F8F710E948F04DD27D0628F71D82B9E
:1018200002C0C0E0D0E0CE01DF91CF91089581FFEA
:1018300002C0589A089558980895AF92BF92CF92D7
:10184000DF92EF92FF920F931F93CF93DF93EC0100
:101850008AE0A82E2881222309F497C0213009F0BC
:1018600041C08981813039F48E010E5F1F4F8A811A
:101870000E94A21D08C0823041F48E010E5F1F4FEE
:101880008A810E940923E8017EC0833039F48E01E9
:101890000E5F1F4F8A810E94B222F5CF843011F073
:1018A000219671C02A81229680E090E030E020539A
:1018B00031092A30310558F4A89EA001A99E500D87
:1018C0001124C901840F951F21962881EFCF00971D
:1018D00009F459C0EFE9FFE03197F1F700C00000CB
:1018E0000197F5CFE22FF0E0E65BFE4FB490822F38
:1018F00086958695869590E0FC01E65CFE4FE49027
:101900002770F12C022E02C0F594E7940A94E2F7B6
:10191000F1E0EF22FF24FC01E65DFE4FC490D12CE4
:10192000022E02C0D594C7940A94E2F731E0C32294
:10193000DD24FC01E65EFE4F049110E002C0159527
:1019400007952A95E2F701701127E114F10419F0C7
:1019500081EE0E940923C114D10419F086EE0E9481
:1019600009238B2D0E94A21DCD2819F086EE0E941E
:10197000B222EF2819F081EE0E94B222012B19F059
:101980008CE20E94A21D219665CFDF91CF911F911D
:101990000F91FF90EF90DF90CF90BF90AF900895A0
:1019A0008F929F92AF92BF92CF92DF92EF92FF926F
:1019B0000F931F93CF93DF93CDB7DEB729970FB661
:1019C000F894DEBF0FBECDBFFC01808191812381E1
:1019D0003481232B31F09F3F31F491E08F3F19F494
:1019E00003C091E001C090E090FD61C66F0185E009
:1019F000DE01119601900D928A95E1F7F6012281A0
:101A000089819A81222349F00E94071A182F682F92
:101A100089819A810E94A91A03C00E947D1A182FF9
:101A200069817A81812F0E94FF068C01F6018281F3
:101A3000882309F482C0980122513F4520313105A5
:101A400008F093C08FEF93E00E94572481117FC06C
:101A50002EEEF22EF00E0FE712E0FF2071F00115CE
:101A6000F4E01F0709F473C0C8010E9457248111D4
:101A700001C0FA940F5F1F4FF0CF1E821F8218869D
:101A80001986AA24AA9478012FEFE21AF20AC80153
:101A90000E9457248E831F82882309F458C0813006
:101AA00009F046C0480132E0830E911CC7010E9434
:101AB00057248F83882309F44AC09FEF980F9330EF
:101AC00060F4780183E0E80EF11CC4010E94572401
:101AD000888781112DC08701D6CF843011F0740121
:101AE000FACFC4010E945724B82E780194E0E90E81
:101AF000F11CC80103960E945724BB2041F18823A2
:101B000031F1282F30E021503109A29EA001A39E7F
:101B1000500D11248B2D90E00197840F951F019794
:101B2000D0F2EFE9FFE03197F1F700C00000F7CF06
:101B3000CE0106960E941D0CCECF00313FE5130763
:101B400009F0ACC581E00E94DE1A0E94BE1D8091A2
:101B50005602877009F4ABC5F6018281882309F427
:101B6000A6C582E00E94031BA2C50031FFE51F0746
:101B700011F481E005C001312FE5120721F482E064
:101B80000E94201BE2CF033FFCE51F0749F406E259
:101B900021EE40EE63EF7CE5C6010E94D905D7CF68
:101BA000043F2CE5120708F049C1083D3CE5130746
:101BB00031F407E225EE45EE68ED7CE5EDCF093D19
:101BC0009CE5190731F408E221E045EE69ED7CE57A
:101BD000E3CF073DECE51E0731F406E221EE41EECE
:101BE00067ED7CE5D9CF882309F45DC11092A60189
:101BF00002302CE5120708F440C106313CE513071A
:101C000030F0C8018A5F9C45099708F036C10E94F0
:101C100007199093A9018093A80100318CE518075A
:101C200009F4C3C008F041C00830ECE51E0709F410
:101C30009AC0F0F404302CE5120709F487C068F468
:101C400002308CE5180709F477C003301C4509F011
:101C5000E5C08091A801826076C00630ECE51E07E1
:101C600009F46EC008F07BC08091A80188606BC049
:101C70000C302CE5120709F485C068F40A308CE5B5
:101C8000180709F474C008F079C00E94861D80917D
:101C9000A801806858C00E30ECE51E0709F476C034
:101CA00008F07FC08091A8018BC00B3F2CE5120784
:101CB00009F44FC018F503318CE5180709F47DC00D
:101CC00078F40131ECE51E0709F473C002311C45BC
:101CD00009F0A4C00E94861D8091A8018F7733C0AF
:101CE00005312CE5120709F472C008F486C00A3FDA
:101CF0001C4509F093C08091A9013EC00F3F9CE5AF
:101D0000190709F45FC058F40D3FFCE51F0709F4FB
:101D100044C008F43FC08091A90182602DC0013009
:101D20003DE5130709F475C008F45DC002301D4598
:101D300009F074C060E06EC08091A801816003C0AA
:101D40008091A80180618093A80168C08091A8015A
:101D500011C08091A90182608093A9015FC0809128
:101D6000A8018062F0CF8091A8018064ECCF8091BF
:101D7000A80188608460E7CF8160EECF8091A801E0
:101D80008E7FE1CF8091A8018D7FDDCF8091A8016A
:101D9000877FD9CF8091A90118C08091A9018D7F3B
:101DA000DBCF8091A8018F7ECECF8091A8018F7D5F
:101DB000CACF8091A8018F7BC6CF8091A801877F71
:101DC0008B7FC1CF8091A9018D7F8E7FC5CF809100
:101DD000A80182FB222720F991E0922790FB82F94B
:101DE00090FB83F9B0CF8091A901982F90959170C5
:101DF0008E7F892B90FB81F9AFCF0E94861D809149
:101E0000A80187FB222720F991E0922790FB87F910
:101E10009ACF61E08EE090E00E946B246091A8016F
:101E20001091A90184E090E00E946B24612F82E26E
:101E300090E00E946B240E94861D89CE053FFCE540
:101E40001F0731F406E221EE42EE65EF7CE5A4CEF9
:101E5000053F2CE5120730F407E225EE44EE64EF6F
:101E60007CE59ACE063F3CE5130709F0BCCE07E2BD
:101E700025EE46EE66EF7CE58FCE80915902063165
:101E80009CE5190709F58A7A91E009F490E09093AE
:101E9000A701882311F065E301C069E281EE91E0BA
:101EA0000E94ED180EC006311C4509F01EC180913C
:101EB000A701882309F4F9C365E381EE91E00E944C
:101EC000E0180E94951943CE82720C3CECE51E0787
:101ED00009F4C0C008F045C0063C2CE5120709F41F
:101EE000A5C0D8F4033C9CE5190709F495C030F46B
:101EF000023CFCE51F0709F46AC0C6C0043C2CE59F
:101F0000120709F48EC0053C3CE5130709F0BCC07C
:101F100045E159E06EE179E0A1C0093C9CE5190773
:101F200009F48EC078F4073CFCE51F0709F483C070
:101F3000083C2CE5120709F0A7C049E059E06DEF15
:101F400078E08CC00A3C3CE5130709F47EC00B3CEA
:101F50009CE5190709F098C047E259E068E379E089
:101F60007DC0013DECE51E0709F4F1CDA0F40E3C67
:101F70002CE5120709F47AC008F473C00F3C8CE515
:101F8000180709F476C0003D9CE5190709F07CC0EC
:101F90006EE089E076C0043DECE51E0709F46FC0F1
:101FA00058F4023D2CE5120709F466C0033D3CE5F8
:101FB000130709F4CCCD68C0053D8CE5180709F47A
:101FC000C6CD0D359DE5190709F4C1CD5DC08091E1
:101FD000CE0180FF1BC08E7F8093CE016091CE0129
:101FE0007091CF018091D0019091D1010E94380869
:101FF0001092CD01EFEFF0E702E0E150F040004039
:10200000E1F700C000000E942807A1CD8160809305
:10201000CE0161E0869527C044E859E06DE879E09B
:102020001DC04DE859E064E879E018C04EE159E080
:1020300065E179E013C04DEF58E069E079E00EC04A
:1020400045EE58E061EF78E009C041EF58E065EEF9
:1020500078E004C048E359E067E279E00E940C07A9
:1020600076CD61E081E00E94490971CD65E082E0B2
:1020700008C068E086E005C061E18FE002C06BE166
:1020800082E10E94970963CD0A352DE5120741F1DF
:1020900050F401158CE51807A9F00E3D1C4529F5F3
:1020A0000E94181954CD0B35EDE51E07D9F00C35FB
:1020B0001D45D9F48091A90182FB882780F991E020
:1020C000892711C00E94861D0FEF14E32CE00150F8
:1020D00010402040E1F700C000000E94611837CD99
:1020E00081E001C080E00E94E019F6018281008158
:1020F0001181882349F0C8010E94071AF82E682F21
:10210000C8010E94A91A04C0C8010E947D1AF82EB5
:10211000B8018F2D0E949B0A8C01A82EF601B28077
:10212000F580F2949FE0F92280915602877099F031
:10213000BB2089F0812F807F803421F080E2800FE6
:10214000883048F082E00E94031B8091560287701D
:10215000EE24E3948111E12C912E92948FE0982249
:10216000892D90E08C30910508F076C2FC01EA5A86
:10217000FF4F0C94B324812F807F1F70882311F0B0
:102180001295107FBB20B9F0112309F44BC280E2F5
:10219000800F883010F0A11006C080915902182BD2
:1021A0001093590205C080915802182B10935802C1
:1021B0000E94951937C2802F0E94B222112309F480
:1021C0004BC2005E083010F0A11004C0812F0E94A5
:1021D0008E1906C01095809158021823109358024A
:1021E0000E94951939C2812F807F1F70803211F0B3
:1021F0001295107FAA2029F0F1E0AF1609F443C030
:102200004EC0BB2051F1FF2011F101E0F01213C0CC
:102210008091A90182FD20C280915C02182B1817C1
:1022200009F41AC20E94AB1890935B0280935A0281
:1022300010935C0211C225E0F21209C00E948319BA
:10224000809153021817A9F11093530232C0809164
:102250005C02812B0E94981DFFC1FF2051F031E0EC
:10226000F3120DC080915902812309F4F5C10E9437
:10227000011A0E948319812F0E94911DEDC185E0F2
:10228000F812F7CFE9C1BB2029F095E09F1508F4BB
:10229000E3C10FC0E4E0EF1508F4DEC1ECCFBB20D2
:1022A00051F0FF2031F0F601858180FFBBC18F70B6
:1022B0008583812FCFCFFF20F1F2093309F0C3C10D
:1022C000FFEF17EE23E0F15010402040E1F7BFC1CF
:1022D000812F86958695837019F0813059F0BCC1A5
:1022E000BB2019F0C801937002C080E090E00E940A
:1022F000B705BAC1BB2019F0C801937002C080E0D5
:1023000090E00E94A105B0C1812F837009F069C0DF
:10231000B110A6C1902F929596959770990F990F2D
:10232000802F8F70882E912CA12CB12C092E04C0E7
:10233000880C991CAA1CBB1C0A94D2F704FF12C07B
:102340004FE050E060E070E004C0440F551F661F8E
:10235000771F9A95D2F7DB01CA0180959095A095D9
:10236000B09503C080E090E0DC0116951695412FF2
:102370004370423019F1C8F400915D0210915E0281
:1023800020915F0230916002413059F088299929EB
:10239000AA29BB29BC01CD01602371238223932389
:1023A0000AC0802A912AA22AB32ABC01CD01682939
:1023B00079298A299B290E94571B52C1882999296A
:1023C000AA29BB2900915D0210915E0220915F0253
:1023D00030916002BC01CD016027712782279327CD
:1023E000EACFBB2019F0812F817001C08695882328
:1023F00009F436C1902F929596959770990F990F81
:10240000802F8F70882E912CA12CB12C092E04C006
:10241000880C991CAA1CBB1C0A94D2F704FF12C09A
:102420004FE050E060E070E004C0440F551F661FAD
:10243000771F9A95D2F7DB01CA0180959095A095F8
:10244000B09503C080E090E0DC0116951695412F11
:1024500043704230D9F068F500917802109179020A
:1024600020917A0230917B02413059F088299929D4
:10247000AA29BB29BC01CD016023712382239323A8
:102480001EC0802A912AA22AB32A13C0882999291A
:10249000AA29BB29009178021091790220917A0231
:1024A00030917B02BC01CD016027712782279327E1
:1024B00006C0BC01CD01682979298A299B290E947F
:1024C000D41ACEC01F70BB2039F0812F0E94201B70
:1024D000802F0E94981DC4C0802F0E94911D812FC3
:1024E0000E94DE1ABDC0802F92EFA91609F442C0E7
:1024F0009A1538F0E0EFAE1661F0F1EFAF1699F1F2
:102500008CC023EFA216E9F134EFA31609F450C0F2
:1025100084C0BB2019F184E08F1508F49DC01F71A1
:1025200081E090E0A0E0B0E0AC01BD0104C0440F48
:10253000551F661F771F1A95D2F7809178029091E8
:102540007902A0917A02B0917B028A019B0108274F
:1025500019272A273B27C901B80127C025E02F15D5
:1025600008F47AC0DCCFBB2039F0812F8F710E9434
:10257000201B72C0BB20C9F3812F8F710E94DE1A0D
:102580006BC0BB2079F01F7181E090E0A0E0B0E06B
:10259000BC01CD0104C0660F771F881F991F1A95D3
:1025A000D2F703C060E070E0CB010E94D41A54C09F
:1025B000BB20D9F0809153020E948E19809156025F
:1025C0008770843039F40E94FA19812F8F710E942C
:1025D000DE1A62C034E03F1508F45EC01F71812F1F
:1025E0000E94201B63E0812F11C0909159028091BD
:1025F0005302892B8093590284E08F1550F40E9476
:10260000FA190E94011A64E0812F8F710E94411B08
:1026100043C081E00E94031B3FC0BB2039F0FF2074
:1026200009F4A3CF802F0E94092316C0FF2009F4CC
:10263000A3CF893341F49FEFE7EEF3E09150E04000
:10264000F040E1F704C08FE39CE90197F1F700C087
:102650000000802F0E94B22288EF890D843020F480
:102660000E94CD050E94170CEE2009F180915602C0
:1026700080FD1DC0F60112828595859585950E9485
:10268000201BC6010E94D00C80915602859585952D
:1026900085950E94DE1A0BC0E12CE2CF01319FE547
:1026A000190709F070CA82E04ECA69E206CC299681
:1026B0000FB6F894DEBF0FBECDBFDF91CF911F9153
:1026C0000F91FF90EF90DF90CF90BF90AF909F90D1
:1026D0008F900895CF93DF93CDB7DEB7AA970FB64B
:1026E000F894DEBF0FBECDBF84B7877F84BF0FB61F
:1026F000F894A895809160008861809360001092A2
:1027000060000FBE90E080E80FB6F89480936100FF
:10271000909361000FBE85B7806885BF85B78068DC
:1027200085BF89EF97E190938901809388010E948A
:10273000FE200E941D218091E20084608093E200CF
:10274000789480916E028823A1F01091E9001F70A7
:102750009091EC00892F817090FD80E8182B1092E9
:10276000E9008091E80083FD0E94DC1D1F7010933A
:10277000E90082E084BD93E095BD9AEF97BD809318
:102780006E0087E30E94B90986EC0E94B90986EFC2
:102790000E94B90987EF0E94B90987E60E94B9092A
:1027A00009E311E0E8E4EE2EE1E0FE2EF80181916C
:1027B0008F010E94B909E016F106C1F7EAEAF1E0DB
:1027C00084EB91E0A3EDB1E0119211921D921D9264
:1027D0008E179F07C9F780E090E00E9465248A3E2B
:1027E0009E4F11F00E94181982E090E00E94572439
:1027F0008093C1010E9407199093A9018093A801B9
:102800000E94D0098FE39CE90197F1F700C0000016
:102810000E94D0098091D30180FF17C06FEF83E23F
:1028200090E00E946B246FEF84E290E00E946B24A2
:102830006FEF85E290E00E946B246FEF7FEF80E006
:1028400090E00E9489240E94611883E090E00E9439
:102850005724682F70E080E090E00E94571B509A48
:10286000589883E290E00E945724823281F484E2F7
:1028700090E00E945724863051F485E290E00E9457
:10288000572491E0833009F090E0892F01C080E067
:1028900080FF92C38091B401811136C080E090E046
:1028A0000E9465248A3E9E4F21F00E9418190E94C2
:1028B000A90988E090E00E945F246093CE017093A4
:1028C000CF018093D0019093D1016E7F71F40E946B
:1028D000A90988E090E00E945F246093CE01709384
:1028E000CF018093D0019093D1010E9425081092CE
:1028F000CD018091CE0180FF04C060E086950E94EA
:10290000490981E08093B4018DE091E09093B60194
:102910008093B50158E1452E512C60E4362E7DEDB3
:10292000672E71E0772ECE0101967C016E019BE04F
:10293000C90ED11C80916E02853009F077C0BB248E
:10294000B39400E112E180916E02853009F057C026
:1029500080916E02843009F440C080E00E94170C20
:102960001092CD018091B901811116C0B092B901C8
:102970008091CE01982F91709093B8018E7F8093B3
:10298000CE01EFEFF0E722E0E150F0402040E1F728
:1029900000C000000E9428071092B7010FB6F894FB
:1029A000A895409260000FBE3092600083B7817F8F
:1029B000846083BF83B7816083BF7894889583B731
:1029C0008E7F83BF0FB6F894A895809160008861D0
:1029D00080936000109260000FBE80916D0288238A
:1029E00009F4B1CF0E94D009E3EDF1E0819191911A
:1029F000892B09F0C2C26E167F06C1F7A4CF0E94D0
:102A0000861D0E94CD050E94170C1092B90180917D
:102A1000B801882349F08091CE0181608093CE0176
:102A200060E086950E9449090E9412070E94D00921
:102A3000882359F08FB7F8944091DD015091DE0161
:102A40006091DF017091E0018FBFA2ECB1E0E3ED96
:102A5000F1E000E010E0702F219131918D919D9176
:102A600082279327009779F160E0AA24A394B12CE0
:102A7000A50148235923452B09F169A37AA32A21EB
:102A80003B2181E0232B09F480E08BA30E94AB184B
:102A90008160782F9DA38CA349A15AA16BA18DA120
:102AA0000E94D204000F111FF801EE53FE4F8081E7
:102AB0009181A826B926B182A0821AC06F5FAA0CA4
:102AC000BB1C6F30A9F60F5F1F4F0530110519F6BB
:102AD0008FEF8EA38FA318A60E94AB188160782F6A
:102AE0009AA789A74EA15FA168A58AA50E94D204D2
:102AF0008091CD01882309F468C08091CC01E091D8
:102B0000CE01E695E81BE093BC01823059F4F0E079
:102B1000E05DF94FE4910E2F10E041E1A42E48E072
:102B2000B42E2EC0863059F4F0E0E35DF94FE49105
:102B30000E2F10E031E0A32E38E0B32E21C08930F3
:102B400061F4E695F0E0E65DF94FE4910E2F10E0B8
:102B50002CEAA22E27E0B22E13C08F3059F4F0E0F9
:102B6000E95DF94FE4910E2F10E09EE5A92E97E064
:102B7000B92E06C000ED17E088EFA82E83E0B82E2E
:102B80008091BD01882361F01092BD010E94AB18B5
:102B90009093BB018093BA011092BF011092BE01C5
:102BA0000E94AB18E091BA01F091BB018E1B9F0B04
:102BB0008F3F9F4750F40E0F1F1F1093BB010093D0
:102BC000BA018AEB91E0F50109950E94CD0590913B
:102BD000C001891731F00E94CD058093C0010E9489
:102BE000170C80916E02843009F0A4CE83E08093AC
:102BF000E9008091E80082FF9DCE8091E80085FF8A
:102C000021C00E94532281111BC000E210E0CE01BE
:102C100001965C0108C08091F100F50181935F018C
:102C20000150110969F08091E80085FDF4CF809191
:102C3000E8008B778093E8000E945322882399F361
:102C400091E001C090E08091E8008B778093E800EC
:102C5000992309F46FCEE9818E2F90E0FC01319722
:102C6000E331F10508F061C1EE59FF4F0C94B32434
:102C70001A8289E0ADC08A81823009F494C1833020
:102C800089F0813009F051C12FB7F8948091DD01AE
:102C90009091DE01A091DF01B091E0012FBFBB83D5
:102CA000AC8324C0FE013196A3EDB1E08C91119666
:102CB0009C9111971296928383833296EC15FD05B1
:102CC000A9F735C18A81823009F02FC16B817C81DF
:102CD0008D819E810E94B92486E290E00E946B243F
:102CE00026C14C816B818A810E94D1069D8362C17D
:102CF0002D813E813227232732274C816B818A81A7
:102D00000E94680614C10E94920611C18A8181380E
:102D1000B1F050F4803809F00AC120E04B81609195
:102D2000D0018091CF0131C0823859F1833809F048
:102D3000FEC020E04091D1016C818B8126C060E013
:102D40008B810E9449099B818091CE01911111C014
:102D50008E7F8093CE011092CD01FFEF20E782E0BD
:102D6000F15020408040E1F700C000000E94280799
:102D7000DEC081608093CE0160E086950E944909A3
:102D8000D6C08B818093D201D2C00E944A08CFC0A6
:102D90008A81813899F030F4803809F0C8C0809178
:102DA000D10116C0823891F0833809F0C0C08091FB
:102DB000CF018B838091D0018C83B9C08091CE01EB
:102DC00080FF02C0869504C080E002C08091D201DD
:102DD0008B83ADC06091CE017091CF018091D00105
:102DE0009091D1010E943808A2C080E155C081E0D5
:102DF0008A8381E8EDCF0A811B81102701271027E4
:102E00008C80912C9DE18916910408F090C05701A7
:102E1000C80181589D4F95012E193F092815390584
:102E200008F085C00138E1E01E0728F40E9457240D
:102E3000F501848302C0F50114820F5F1F4FFFEF7D
:102E4000AF1ABF0AE5CF0A811B811027012710277F
:102E5000AC80B12C2DE1A216B10408F068C0470186
:102E6000C80181589D4F94012E193F092A153B0531
:102E700008F05DC00138E1E01E0720F4F401648130
:102E80000E946B240F5F1F4FFFEF8F1A9F0AE8CF3E
:102E90000E9458064CC084E08A8349C00A811B8185
:102EA0001027012710278C80912C2DE18216910488
:102EB000F0F55701C801879695012E193F0928158D
:102EC0003905A8F50835E2E01E0728F40E945724CA
:102ED000F501848302C0F50114820F5F1F4FFFEFDD
:102EE000AF1ABF0AE7CF0A811B81102701271027DD
:102EF000AC80B12C2DE1A216B104C8F44701C80181
:102F0000879694012E193F092A153B0580F4083550
:102F1000E2E01E0720F4F40164810E946B240F5F3D
:102F20001F4FFFEF8F1A9F0AEACF8FEF898380919F
:102F30006E02843009F0FECC1091E9001F70909170
:102F4000EC00892F817090FD80E8182B82E080933F
:102F5000E9008091E80080FF0CC040E050E060E2B2
:102F600070E0C7010E9486228091E8008E778093EE
:102F7000E8001F701093E900DDCC09BD19BD09B44C
:102F800000FEFDCF8091D8008F7D8093D800809186
:102F9000E00082608093E0008091E00081FDFCCF42
:102FA0000E94861DD0CC86E290E00E9457241B82AE
:102FB0001C821D828E83BBCF60E086E290E00E947F
:102FC0006B240E9492060E94580662E283E290E01F
:102FD0000E946B2466E084E290E00E946B2463E030
:102FE00085E290E00E946B2455CC089580916302A5
:102FF000089580E00895CF93DF9300D01F92CDB75E
:10300000DEB790916E02943011F589837B836A83D9
:103010009093E9008FEF9091E800815095FD06C0F4
:1030200095ED9A95F1F700008111F5CF8091E800B8
:1030300085FF0DC040E050E063E070E0CE010196F6
:103040000E9486228091E8008E778093E8000F909E
:103050000F900F90DF91CF910895BC0184E00C9404
:10306000FB17BC0183E00C94FB17CF93DF9321E0A7
:103070002093E9002FEF3091E800215035FD06C084
:1030800035ED3A95F1F700002111F5CF2091E800D8
:1030900025FF14C0EC0140E050E068E070E00E94C1
:1030A00086228091E8008E778093E80088E0FE0118
:1030B000A4E6B2E001900D928A95E1F7DF91CF91FD
:1030C000089581E08093E00080E28093D800109220
:1030D000C9008FE19EE40197F1F700C0000087E08E
:1030E00090EBDC0180937C0290937D02A0937E02A2
:1030F000B0937F029CE088E10FB6F894A895809386
:1031000060000FBE90936000FFCF78941F920F92E3
:103110000FB60F9211248F939F93AF93BF9380911B
:10312000DD019091DE01A091DF01B091E0010196F7
:10313000A11DB11D8093DD019093DE01A093DF01FD
:10314000B093E001BF91AF919F918F910F900FBE0F
:103150000F901F9018952FB7F8948091DD019091F2
:10316000DE01A091DF01B091E0012FBF08951F9211
:103170000F920FB60F9211248F939F93AF93BF932B
:103180008091B701811113C08091DD019091DE0122
:10319000A091DF01B091E0014196A11DB11D809386
:1031A000DD019093DE01A093DF01B093E001BF91B8
:1031B000AF919F918F910F900FBE0F901F90189518
:1031C0009C012A5F3F4FFC014281461301C01282DD
:1031D000019682179307B9F708959C01FC01329676
:1031E0009FEF80E04191461789F09F3F19F441110C
:1031F00001C0982F8F5F8630A9F79F3F39F0F90102
:10320000E90FF11D97FDFA95628308950895CF9314
:1032100084E090E00E945724C82F82E290E00E9450
:1032200057242C2F30E0A901582BCA01CF910895C3
:103230006AEE7EEF80E090E00E94892460E082E008
:1032400090E00E946B2460E083E090E00E946B2499
:1032500010925D0210925E0210925F021092600264
:1032600060E084E090E00E946B2460E082E290E005
:103270000E946B2460E085E090E00E946B2460E097
:1032800086E090E00E946B246FEF87E090E00E9460
:103290006B2440E050E0BA0188E090E00E947D2479
:1032A00060E08DE090E00E946B2440E050E0BA01C5
:1032B00088E190E00E947D2460E087E190E00E9438
:1032C0006B2440E050E0BA018CE190E00E947D2444
:1032D00060E070E080E290E00E94892440E050E0ED
:1032E000BA0188E190E00E947D2440E050E0BA01FC
:1032F0008FE090E00E947D2440E050E0BA0183E13D
:1033000090E00C947D2480915C02882331F010922F
:103310005C0210925B0210925A020895809590917F
:1033200059028923809359020895909159028091FE
:103330005802892B90915702892B8093E10180914B
:103340005C02882311F10E94AB1820915A0230913F
:103350005B02821B930B8838934110F00E94831903
:103360009091E10180915C02892B8093E101E3EE71
:10337000F1E097E080E0915029F021912223D9F3E8
:103380008F5FF9CF81110E948319E091B501F0910F
:10339000B601309731F00280F381E02D81EE91E0AB
:1033A0000994089580E090E00E94B70580E090E0E5
:1033B0000E94A10510925802109257020C94951980
:1033C000CF93C091A901C2FB992790F9981781F07A
:1033D00080FBC2F9C093A9016091A80184E090E04C
:1033E0000E946B246C2F82E290E0CF910C946B24AE
:1033F000CF910895109256021092550210925402E5
:103400000895809153028111109253020895BF9242
:10341000CF92DF92EF92FF920F931F93CF93DF93A0
:103420008C01C0907802D0907902E0907A02F090FE
:103430007B0280915D0290915E02A0915F02B0914B
:103440006002C82AD92AEA2AFB2ACFE1D0E0D701B4
:10345000C6010C2E04C0B695A795979587950A943A
:10346000D2F780FD04C0219790F7B12C07C0BC2E85
:10347000B8018C2F0E949B0A0197A9F38B2DDF9135
:10348000CF911F910F91FF90EF90DF90CF90BF9061
:103490000895CF93DF93EC010E94071ABE010E94AA
:1034A0009B0ADF91CF9108950E94491A292F2F700E
:1034B000E92FE295EF704E2F50E0FA013297EE308F
:1034C000F105B8F4EB58FF4F0C94B324803F99F00A
:1034D00018F4883E70F40FC0843F59F40CC0883E45
:1034E00050F0813F31F407C0822F869586958695EE
:1034F000089580E0089581E008952FE0929F800D67
:103500001124682F669566956695982F977085E0CB
:10351000689FB001112440E050E080E0FB01E40F1F
:10352000F51FEF5DFD4F208130E0092E02C036957A
:1035300027950A94E2F721703327042E01C0220F49
:103540000A94EAF7822B4F5F5F4F4530510531F700
:1035500008952FE0929F800D1124E82FE695E695BF
:10356000E695877051E001C0550F8A95EAF785E02E
:10357000E89FF0011124EF5DFD4F20E030E070E0A6
:103580004081CB01022E02C0969587950A94E2F7FE
:103590008170819584278523842781932F5F3F4FF6
:1035A0002530310569F708956093780270937902A8
:1035B00080937A0290937B020C94D2190F931F93FD
:1035C00041E050E060E070E004C0440F551F661F0A
:1035D000771F8A95D2F740955095609570958091A8
:1035E000780290917902A0917A02B0917B028A01CF
:1035F0009B01082319232A233B23C901B8011F91EA
:103600000F910C94D41A20915602809582238093B6
:103610005602982F977041F430E0482F082E000C86
:10362000550B2417350721F49091A90192FF07C08B
:103630008595859585950E94DE1A0C94FA19089552
:103640000F931F9341E050E060E070E004C0440F2E
:10365000551F661F771F8A95D2F780917802909147
:103660007902A0917A02B0917B028A019B01082B1A
:10367000192B2A2B3B2BC901B8011F910F910C94D8
:10368000D41A9091A90192FD10C098E0899F9001F1
:103690001124262B209356020E94201B0E94AB1857
:1036A000909355028093540208950C94201B6093CC
:1036B0005D0270935E0280935F02909360020C94AF
:1036C000D219809120029091EF01891719F08F5F34
:1036D0008770FBCF08950F931F93CF93DF93809153
:1036E000EE0182958F7009F05DC08091EB01882317
:1036F00009F458C0809120021091EF016091E90116
:103700007091EA01C091EC01D091ED0191E06F3F21
:1037100009F090E0292F06E0811709F443C02097B3
:1037200021F07F3F21F030E003C031E001C0322FB3
:1037300090E030FD34C0089FF001099FF00D112486
:10374000DF01A051BE4F11963C911197371327C04E
:103750003C91361324C012963C91129731111FC030
:1037600013964D915C9114974C1B5D0B483C510591
:10377000B0F48091EE018F7080618093EE01EB5088
:10378000FE4F80818F708061808389EE91E00E947E
:10379000D00CDF91CF911F910F910C94611B01967A
:1037A0008770BACFDF91CF911F910F9108959F92AB
:1037B000AF92BF92CF92DF92EF92FF920F931F933F
:1037C000CF93DF93CDB7DEB761970FB6F894DEBF26
:1037D0000FBECDBF8C0185E0F801DE011D96019082
:1037E0000D928A95E1F7F80190818181E280309114
:1037F000E9016091EA014091EC015091ED01411520
:10380000510531F06F3F31F421E03F3F19F403C01F
:1038100021E001C020E0F22FF1709F2E20FD23C196
:10382000F801C380D48029EEA22E21E0B22EF090C0
:10383000EB01F601E41BF50BFF2009F4CEC020914B
:10384000EE01E83CF10508F099C0422F407F09F0F5
:1038500051C0681311C039130FC0FE2CE1100CC009
:103860002F7020612093EE01C5010E94D00C809141
:10387000EE01F801858337C1CD2831F08F3F31F457
:1038800021E09F3F19F403C021E001C020E020FDAA
:1038900003C021E02E2502C020E030E0F22FF170BD
:1038A000FF2E20FF1DC0209120024091EF0156E025
:1038B000241709F4F6C030E0529FF001539FF00D39
:1038C0001124E051FE4F6181861306C0608196137A
:1038D00003C06281E61204C02F5F3F4F2770E8CF1C
:1038E000FE2CEE2009F4FFC08091EE0181608093F0
:1038F000EE0150C0681307C0391305C0E11003C0C2
:10390000F80125838DC09D878E878D859E850E94B9
:10391000541A882369F1EE2059F12091EE01822F8B
:1039200082958F7090E0029774F08091E9019091F8
:10393000EA0198878F831986DB86CA862C87CE0199
:1039400007960E94D00C86E0F801A9EEB1E0019044
:103950000D928A95E1F70E946B1B0DC06817E1F08C
:103960009D878E878D859E850E94541A81111EC069
:10397000C8010E94D00CFF24F394B5C0422F407FB1
:1039800069F789EE91E00E94D00C86E0F501119272
:103990008A95E9F7F12CA7C03913E2CFE110E0CF07
:1039A000F8012583C8010E94D00C57C0EE2001F316
:1039B0002091EE01822F82958F7090E002971CF289
:1039C0008091E9019091EA019A8389831B82DD82CB
:1039D000CC822E83CE010196B4CFE83CF105E8F508
:1039E000FE2CEE2029F2681327C0391325C0209140
:1039F000EE0120FD18C0822F82958F70482F50E075
:103A00004115510581F0F80125834F30510541F0F2
:103A10008F5F982F9295907F822F8F70892B85834F
:103A2000C8010E94D00C86E0F801A9EEB1E0019037
:103A30000D928A95E1F757C09D878E878D859E856B
:103A40000E94541A81117FCF8091EE018160809392
:103A5000EE01C8010E94D00C46C086E0F50111922B
:103A60008A95E9F740C0EE2009F482CF9D878E87C2
:103A70008D859E850E94541AF82E882309F478CFEC
:103A800086E0F801A9EEB1E001900D928A95E1F788
:103A90008091E9019091EA010E94491A0E946B1BF2
:103AA00022C09D878E878D859E850E94491A292F69
:103AB00022952F70223028F49F7039F0811105C0B3
:103AC0000BC0243028F49F7049F4805E883020F0C9
:103AD000C8010E94D00C9F2CF92C05C0F8019581DB
:103AE000907F99F7F9CF8F2D61960FB6F894DEBFCE
:103AF0000FBECDBFDF91CF911F910F91FF90EF903F
:103B0000DF90CF90BF90AF909F9008951092590290
:103B100086E0E3EEF1E0DF011D928A95E9F70C946F
:103B2000D219882321F00E948E190C9495190895BA
:103B3000882339F090915902892B809359020C9473
:103B4000951908951F93CF93DF93182F893319F098
:103B5000CAE0D0E002C0C0E5D0E0812F0E94092376
:103B60008FE99FE00197F1F700C000002197C1F7AE
:103B7000812FDF91CF911F910C94B2220F931F934D
:103B80008091780290917902A0917A02B0917B02A3
:103B90008C019D010670112722273327BC01CD011E
:103BA000063011052105310511F4686001C0677FF9
:103BB0001F910F910C94D41A1F93CF93DF93CDB71D
:103BC000DEB7AA970FB6F894DEBF0FBECDBFE0E711
:103BD000F2E08091F100819342E0E837F407C9F701
:103BE00080917102833009F462C030F4813071F049
:103BF000823009F49CC0B3C08A3009F488C08B308D
:103C000009F46DC0893009F0AAC020C0809170020B
:103C1000813A09F0A4C08091E800877F8093E80092
:103C20008091740290917502892B21F468E084E6FA
:103C300092E003C060E080E090E070E00E94F92331
:103C40008091E8008B778093E80089C080917002B2
:103C5000813209F084C080917402909175020097BE
:103C600019F0029709F07BC08091E800877F80936C
:103C7000E8008091E80082FD05C080916E0281110C
:103C8000F8CF6DC02091F3008091F20090E0922B6C
:103C9000029729F48091F1008B7F813021F480918B
:103CA000F100809363028091E8008B7754C080918B
:103CB0007002813A09F053C08091740290917502AC
:103CC000892B09F04CC08091E800877F8093E80041
:103CD0008091E80080FFFCCF8091170137C0809170
:103CE00070028132E1F58091740290917502892B06
:103CF000B1F58091E800877F8093E8000E94A523BA
:103D000080917202809317010E94861D28C08091C5
:103D10007002813221F58091E800877F8093E8006E
:103D20000E94A523809173028093620218C0809143
:103D30007002813AA1F48091E800877F8093E800C7
:103D40008091E80080FFFCCF809162028093F100B7
:103D50008091E8008E778093E8000E94A5238091EF
:103D6000E80083FFE9C18091700290917102492FB0
:103D700050E04A30510508F0DFC1FA01ED57FF4F1E
:103D80000C94B324803821F0823809F0D5C108C0E2
:103D900080916C0290916D02992389F082600FC02E
:103DA000809174028F70873008F0C6C18093E9005B
:103DB0008091EB0085FB882780F91092E9009091B3
:103DC000E800977F9093E8008093F1001092F10053
:103DD0007CC1282F2D7F09F0AFC1882319F08230D4
:103DE00061F0AAC180917202813009F0A5C19330BF
:103DF00009F080E080936D022EC0809172028111E3
:103E00002AC0809174028F702FEF280F263008F09F
:103E100093C18093E9002091EB0020FF1CC09330F8
:103E200021F48091EB00806214C09091EB009061CE
:103E30009093EB0021E030E0A90102C0440F551F30
:103E40008A95E2F74093EA001092EA008091EB0035
:103E500088608093EB001092E9008091E800877FF2
:103E60008093E8000E94A52367C1811165C110916C
:103E700072021F778091E3008078812B8093E300AA
:103E80008091E800877F8093E8000E94A5238091BD
:103E9000E80080FFFCCF8091E30080688093E3001E
:103EA000111102C082E001C083E080936E0244C120
:103EB0008058823008F040C1209172023091730224
:103EC0002C3D53E0350779F583E08A838AE28983C4
:103ED0004FB7F894DE01139620E03EE051E2E32F65
:103EE000F0E050935700E49120FF03C0E295EF709B
:103EF0003F5FEF708E2F90E0EA3010F0C79601C060
:103F0000C0968D939D932F5F243149F74FBF8091C9
:103F1000E800877F8093E8006AE270E0CE010196B6
:103F20000E94F923C0C08091740290917502432FC2
:103F3000552743305105B1F068F44130510509F47B
:103F40000AC14230510509F0F7C08BE590E0E8EC7A
:103F5000F6E057C04132510589F14232510509F46A
:103F60003CC0EAC0C901992781309105B9F070F0D1
:103F700082309105D9F0039709F0DEC0E5E3F7E060
:103F8000E4918E2F90E0E5E3F7E038C0E9E5F7E053
:103F9000E4918E2F90E0E9E5F7E030C0E9E4F7E046
:103FA000E4918E2F90E0E9E4F7E028C0EBE3F7E03E
:103FB000E4918E2F90E0EBE3F7E020C08330910591
:103FC00008F0BAC0880F991FFC01EF5AFE4F01900C
:103FD000F081E02D89E090E014C08330910508F075
:103FE000ABC0FC01EE0FFF1FE55BFE4F0190F081BF
:103FF000E02DDC01A85BBE4F8C9190E0009709F4A6
:104000009BC02091E800277F2093E8002091760252
:10401000309177022817390708F4C90140E000976A
:1040200089F120916E02222309F43DC02530D9F197
:104030002091E80023FD37C02091E80022FD2FC029
:104040002091E80020FFEBCF4091F3002091F20097
:1040500030E0342B009759F02830310540F444917A
:104060004093F100319601972F5F3F4FF3CF41E02E
:104070002830310509F040E02091E8002E772093A8
:10408000E800CDCF4111CDCF0AC080916E028823C8
:1040900051F0853041F08091E80083FD04C08091AB
:1040A000E80082FFF2CF8091E8008B778093E800F0
:1040B00043C0803809F040C08091E800877F80933A
:1040C000E80080916F028093F1008091E8008E7784
:1040D000C7CE811131C080917202909173029927ED
:1040E000029754F58091E800877F8093E800109153
:1040F000720210936F020E94A523111106C08091D5
:10410000E30087FD02C081E001C084E080936E027D
:1041100042E061EC81E00E94C42342E261EC84E071
:104120000E94C42342E261EC82E00E94C42342E286
:1041300060EC83E00E94C4238091E80083FF10C0FC
:104140008091E800877F8093E8008091EB00806297
:104150008093EB0005C082E190E0E3E2F7E051CF0D
:10416000AA960FB6F894DEBF0FBECDBFDF91CF91F8
:104170001F9108951F920F920FB60F9211242F9343
:104180003F934F935F936F937F938F939F93AF93DF
:10419000BF93CF93DF93EF93FF93C091E900CF706C
:1041A0008091EC00D82FD17080FDD0E81092E9000A
:1041B0008091F000877F8093F00078940E94DC1D4E
:1041C0001092E9008091F00088608093F000CD2B80
:1041D000CF70C093E900FF91EF91DF91CF91BF9134
:1041E000AF919F918F917F916F915F914F913F918F
:1041F0002F910F900FBE0F901F901895E8EDF0E0F3
:1042000080818E7F80831092E2001092DA001092FB
:10421000E100A0EEB0E08C9181608C9380818F777B
:10422000808319BCA7EDB0E08C918E7F8C93808148
:104230008F7E8083109261020895CF92DF92EF9279
:10424000FF920F931F93CF93DF93C8EDD0E0888147
:104250008F7E8883E7EDF0E080818160808384E059
:1042600082BF81E08093610288818E7F888302EE25
:1042700010E0F80110821092DA0081EEC82ED12CE5
:10428000F601108288818F7788838881806888838F
:1042900088818F7D888319BC10926E0210926F0204
:1042A00010926D0210926C0290EEE92EF12CF70143
:1042B00080818B7F808388818160888342E060E099
:1042C00080E00E94C423F60180818E7F8083F80104
:1042D000808181608083808188608083F701808114
:1042E0008E7F8083888180618883DF91CF911F9149
:1042F0000F91FF90EF90DF90CF9008951F920F9253
:104300000FB60F9211242F933F934F935F936F93A8
:104310007F938F939F93AF93BF93EF93FF9380917E
:10432000E10082FF09C08091E20082FF05C0809118
:10433000E1008B7F8093E1008091DA0080FF2AC04A
:104340008091D80080FF26C08091DA008E7F809314
:10435000DA008091D90080FF18C080E189BD82E138
:1043600089BD09B400FEFDCF81E080936E0280918B
:10437000610281110FC00E94FE200E941D218091C8
:10438000E20084608093E20005C019BC10926E02C6
:10439000109261028091E10080FF17C08091E200DD
:1043A00080FF13C08091E2008E7F8093E2008091B5
:1043B000E20080618093E2008091D8008062809367
:1043C000D80019BC85E080936E028091E10084FFE3
:1043D0002EC08091E20084FF2AC080E189BD82E185
:1043E00089BD09B400FEFDCF8091D8008F7D8093F8
:1043F000D8008091E1008F7E8093E1008091E200FF
:104400008F7E8093E2008091E20081608093E200E1
:1044100080916F02882311F084E007C08091E3004F
:1044200087FD02C081E001C083E080936E0280912D
:10443000E10083FF27C08091E20083FF23C08091C9
:10444000E100877F8093E10082E080936E0210920A
:104450006F028091E1008E7F8093E1008091E20005
:104460008E7F8093E2008091E20080618093E20081
:1044700042E060E080E00E94C4238091F000886008
:104480008093F000FF91EF91BF91AF919F918F9139
:104490007F916F915F914F913F912F910F900FBE40
:1044A0000F901F9018952091E4003091E50095E65B
:1044B0004091EC00842F817040FF23C08091E80080
:1044C00080FD1DC080916E02882399F0853099F09F
:1044D0008091EB0085FD11C04091E4005091E50012
:1044E0002417350729F3915011F09A01E1CF84E0A8
:1044F000089582E0089583E0089581E0089580E0C2
:1045000008954091E80042FFDDCF0895EF92FF92B9
:104510000F931F93CF93DF937C018B010E94532253
:10452000811119C0E70101151105A1F08091E80082
:1045300085FD0AC08091E8008E778093E8000E9494
:104540005322882381F307C089918093F1000150A1
:104550001109E9CF80E0DF91CF911F910F91FF907A
:10456000EF900895882309F453C0682F823869F4C6
:104570000E94CD0581FF4CC069E381EE91E00E946D
:10458000ED180E94951969E30EC0833891F40E94DA
:10459000CD0580FF3DC063E581EE91E00E94ED18FE
:1045A0000E94951963E581EE91E00E94E0180C9459
:1045B0009519843869F40E94CD0582FF29C067E40B
:1045C00081EE91E00E94ED180E94951967E4EBCF0F
:1045D0008CEF860F813A38F380E2860F883048F4FA
:1045E000677081E001C0880F6A95EAF70E948E1912
:1045F000DECF8BE5860F833020F480E090E00C94D2
:10460000B705685A673120F480E090E00C94A1056A
:104610000895CF93882309F496C0C82F8238B1F447
:104620000E94CD0581FD8FC069E381EE91E00E947B
:10463000ED180E9495192FEF81EE94E021508040F3
:104640009040E1F700C0000069E317C08338E1F44F
:104650000E94CD0580FD77C063E581EE91E00E9468
:10466000ED180E9495192FEF81EE94E021508040C3
:104670009040E1F700C0000063E581EE91E00E9408
:10468000E018CF910C9495198438B1F40E94CD05AF
:1046900082FD59C067E481EE91E00E94ED180E940E
:1046A00095192FEF81EE94E0215080409040E1F782
:1046B00000C0000067E4E1CF8CEF8C0F813A80F4FA
:1046C000E3EEF1E089EE91E02191C217A1F18E179E
:1046D0009F07D1F76C2F81EE91E00E94ED18D1CFAA
:1046E00080E28C0F883068F4C77081E090E001C0F0
:1046F000880FCA95EAF790915902892B8093590245
:10470000C0CFEBE5EC0FE33040F4F0E0E95AFE4FA8
:10471000808190E0CF910C94B705C85AC73198F4C6
:10472000EC2FF0E0EE0FFF1FE65AFE4F80819181E3
:10473000CF910C94A1056C2F81EE91E00E94E018BE
:104740000E949519C7CFCF9108958091700287FF7D
:1047500011C08091E80082FD05C080916E02811138
:10476000F8CF11C08091E8008B770BC080916E026A
:10477000882349F08091E80080FFF8CF8091E8001D
:104780008E778093E8000895982F973068F590937E
:10479000E900981739F07091EC002091ED005091EC
:1047A000F00003C0242F762F50E021FD02C09F5F50
:1047B000ECCF3091EB003E7F3093EB003091ED0079
:1047C0003D7F3093ED003091EB0031603093EB0092
:1047D0007093EC002093ED005093F0002091EE00D8
:1047E00027FDE5CF80E008958F708093E90081E098
:1047F000089520917602309177022617370748F006
:104800006115710539F42091E8002E772093E800B6
:1048100001C0B901FC0120E06115710579F18091B9
:104820006E028823F1F18530F1F18091E80083FD7B
:104830003CC08091E80082FD2EC08091E80080FF9E
:10484000EBCF2091F3008091F20090E0922B611564
:10485000710551F08830910538F421912093F100D1
:10486000615071090196F3CF21E0089709F020E02B
:104870008091E8008E778093E800CECF2111CFCFD2
:104880000AC080916E02882361F0853061F08091CA
:10489000E80083FD0AC08091E80082FFF2CF80E04B
:1048A000089582E0089583E0089581E00895F999DC
:1048B000FECF92BD81BDF89A992780B50895A6E1F3
:1048C000B0E044E050E00C949124A8E1B0E042E074
:1048D00050E00C949124262FF999FECF92BD81BD12
:1048E000F89A019700B4021639F01FBA20BD0FB62E
:1048F000F894FA9AF99A0FBE08950396272F0E940A
:104900006C240E946B24252F0E946C24242F0C946D
:104910006C240196272F0E946C240C946B24DC01DC
:10492000CB01FC01F999FECF06C0F2BDE1BDF89ABA
:10493000319600B40D9241505040B8F70895AA1B2B
:10494000BB1B51E107C0AA1FBB1FA617B70710F07A
:10495000A61BB70B881F991F5A95A9F780959095AC
:10496000BC01CD010895EE0FFF1F0590F491E02DDD
:104970000994692796276927782787277827089534
:10498000FC014150504030F001900616D1F73197AC
:0E499000CF010895882799270895F894FFCF46
:10499E000112131415161718191A1B0102F61735E2
:1049AE0018F51731182D1801000102020202060631
:1049BE00060909090909090F0F0F12121212121214
:1049CE001212121237C6F6F76796973435366630DE
:1049DE00313233F0F1F4F594402232880666063413
:1049EE0006DA06F3061307818283E200E900EA0085
:1049FE00B500B600B700CD008301CC008A0192014C
:104A0E0094012102230224022502260227022A02F1
:084A1E00B300B4006F0070004A
:00000001FF
