:100000000C94BE010C9405020C9405020C9405029C
:100010000C9405020C9405020C9405020C94050244
:100020000C9405020C9405020C9405020C94CE1A53
:100030000C948A1A0C9472080C9405020C94050214
:100040000C9405020C9405020C9405020C944008D3
:100050000C9405020C9405020C9405020C94050204
:100060000C9405020C9405020C9405020C940502F4
:100070000C9405020905090541054105B6057A07F5
:100080007A077A07D205B006C106C106210A210AFD
:10009000340A340A2A0A340A340A340A210A210AA0
:1000A0002F0A340A340A2F0A0D1010103A10491082
:1000B00050105B10061106110611061106115E1094
:1000C000611066109010B710BA10BC10E3109618AB
:1000D000BD186C1ABD186C1A09192C196C1A291A3A
:1000E000391A0000000000000000000000000000BD
:1000F0000000000000000000000000000000000000
:100100000000000000007E0F00D4FFFFFFC70000CA
:10011000007800000000000000002A2B28000000EA
:1001200000000000000000000000000000290000A6
:1001300000002C1E3420212224342627252E362D83
:100140003738271E1F202122232425263333362E1D
:1001500037381F0405060708090A0B0C0D0E0F108F
:100160001112131415161718191A1B1C1D2F3130D4
:10017000232D350405060708090A0B0C0D0E0F1078
:100180001112131415161718191A1B1C1D2F3130B4
:10019000354C29002B002E002A0053005400550036
:1001A00056005F006000610057005C005D005E006B
:1001B000000059005A005B00580062000000630014
:1001C0000000010001000100010001000100010028
:1001D0000100010001000100010001000100010017
:1001E0000100010001000100010001000100010007
:1001F00001000100010001000100010001000100F7
:1002000001000100010001000100010001000100E6
:1002100001000100010001000100010001000100D6
:1002200001000100010001000100010001000100C6
:1002300001000100010001000100010001000100B6
:1002400001000100010001000100010001000100A6
:10025000010005010980A101850319012AB70015D4
:100260000126B700950175108100C0050C0901A198
:1002700001850419012AA002150126A00295017525
:10028000108100C00660FF0961A101096215002606
:10029000FF009520750881020963150026FF00956F
:1002A0002075089102C005010906A101050719E0A2
:1002B00029E715002501950875018102950175084A
:1002C00081010507190029FF150026FF0095067515
:1002D0000881000508190129059505750191029508
:1002E0000175039101C009025B00030100A0FA0936
:1002F0000400000103010100092111010001224055
:10030000000705810308000A090401000203000038
:1003100000092111010001222200070582032000AB
:100320000107050303200001090402000103000086
:100330000009211101000122320007058403200079
:100340000A120110010000000805473FCC0100011E
:100350000203010403300000000C036E007400323D
:10036000003100300000000E034500760079006483
:1003700000310033000000040309040011241FBEF3
:10038000CFEFD4E0DEBFCDBF04B603FE27C080911F
:10039000F8019091F901A091FA01B091FB01873029
:1003A000904BA740B04BD1F41092F8011092F90194
:1003B0001092FA011092FB0114BE84B7877F84BFAC
:1003C0000FB6F894A89580916000886180936000D2
:1003D000109260000FBEE0E0F8E3099511E0A0E0A4
:1003E000B1E0E4E9F9E302C005900D92A635B1074A
:1003F000D9F721E0A6E5B1E001C01D92A83FB20700
:10040000E1F70E94DD0D0C94C81C0C9400008F9243
:100410009F92AF92BF92CF92DF92EF92FF920F9393
:100420001F93CF93DF93CDB7DEB729970FB6F8941C
:10043000DEBF0FBECDBFFC0180819181238134815D
:10044000232B31F09F3F31F491E08F3F19F403C02B
:1004500091E001C090E090FD78C57F0185E0DE016C
:10046000119601900D928A95E1F7F7012281898119
:100470009A81222349F00E94C209182F682F89818E
:100480009A810E94640A03C00E94380A182F698169
:100490007A81812F0E94DD138C01F70182818823EC
:1004A00009F47AC0980122513F452031310508F006
:1004B0008BC08FEF93E00E94681C811177C00251BE
:1004C00027EEC22ED12C002379F0C114F4E0DF0610
:1004D00009F46CC0C6010E94681C811101C0015062
:1004E0001FEFC11AD10AEFCF1E821F82188619860C
:1004F00086010F5F1F4FC6010E94681C8E831F82FA
:10050000882309F453C0813009F041C0560122E02C
:10051000A20EB11CC8010E94681C8F83882309F4B5
:1005200045C09FEF980F933050F40E5F1F4FC501E9
:100530000E94681C888781112AC06801D9CF843045
:1005400011F08501FACFC5010E94681CB82E860102
:100550000C5F1F4FC60103960E94681CBB2031F13F
:10056000882321F190E001976FEF70E00E94AA1CB0
:100570002B2D30E021503109820F931F0197E8F2B3
:10058000EFE9FFE03197F1F700C00000F7CFCE01AF
:1005900006960E943616D1CF00313FE5130709F0C9
:1005A000CBC481E00E949C0A0E9402178091AC019A
:1005B000877009F4CAC4F7018281882309F4C5C48D
:1005C00082E00E94C10AC1C40031FFE51F0711F497
:1005D00081E005C001312FE5120721F482E00E947D
:1005E000DE0AE2CF033FFCE51F0799F406E221EEA5
:1005F00040EE63EF7CE509C0073DECE51E0711F511
:1006000006E221EE41EE67ED7CE5C7010E94B512DE
:10061000CDCF043F2CE5120708F03FC1083D3CE573
:10062000130731F407E225EE45EE68ED7CE5EDCFEA
:10063000093D9CE5190701F708E221E045EE69ED67
:100640007CE5E3CF882309F45DC1109258010230A4
:100650002CE5120708F440C106313CE5130730F0E1
:10066000C8018A5F9C45099708F036C10E94C208FC
:100670009093B9018093B80100318CE5180709F413
:10068000C3C008F041C00830ECE51E0709F49AC069
:10069000F0F404302CE5120709F487C068F4023046
:1006A0008CE5180709F477C003301C4509F0E5C054
:1006B0008091B801826076C00630ECE51E0709F42F
:1006C0006EC008F07BC08091B80188606BC00C30B0
:1006D0002CE5120709F485C068F40A308CE5180788
:1006E00009F474C008F079C00E94420D8091B801ED
:1006F000806858C00E30ECE51E0709F476C008F09B
:100700007FC08091B8018BC00B3F2CE5120709F424
:100710004FC018F503318CE5180709F47DC078F453
:100720000131ECE51E0709F473C002311C4509F0E4
:10073000A4C00E94420D8091B8018F7733C005316B
:100740002CE5120709F472C008F486C00A3F1C4564
:1007500009F093C08091B9013EC00F3F9CE5190795
:1007600009F45FC058F40D3FFCE51F0709F444C0CD
:1007700008F43FC08091B90182602DC001303DE591
:10078000130709F475C008F45DC002301D4509F077
:1007900074C060E06EC08091B801816003C0809138
:1007A000B80180618093B80168C08091B80111C020
:1007B0008091B90182608093B9015FC08091B801D6
:1007C0008062F0CF8091B8018064ECCF8091B80155
:1007D00088608460E7CF8160EECF8091B8018E7F22
:1007E000E1CF8091B8018D7FDDCF8091B801877F07
:1007F000D9CF8091B90118C08091B9018D7FDBCF2D
:100800008091B8018F7ECECF8091B8018F7DCACF05
:100810008091B8018F7BC6CF8091B801877F8B7F95
:10082000C1CF8091B9018D7F8E7FC5CF8091B801F6
:1008300082FB222720F991E0922790FB82F990FB1E
:1008400083F9B0CF8091B901982F909591708E7FE8
:10085000892B90FB81F9AFCF0E94420D8091B801A6
:1008600087FB222720F991E0922790FB87F99ACF06
:1008700061E08EE090E00E94761C6091B8011091DA
:10088000B90184E090E00E94761C612F82E290E042
:100890000E94761C0E94420D89CE053FFCE51F0791
:1008A00031F406E221EE42EE65EF7CE5AECE053F87
:1008B0002CE5120730F407E225EE44EE64EF7CE508
:1008C000A4CE063F3CE5130709F0BCCE07E225EEB7
:1008D00046EE66EF7CE599CE06318CE5180711F5FA
:1008E0008091AF018A7A91E009F490E090935901E8
:1008F000882311F065E301C069E28AE591E00E9476
:10090000A8080DC006311C45F1F5809159018823D6
:1009100009F419C365E38AE591E00E949B080E94EF
:10092000500944CE0A35EDE51E0741F150F401159A
:100930002CE51207A9F00E3D1C4529F50E94D308AD
:1009400035CE0B358DE51807D9F00C351D45D9F49A
:100950008091B90182FB882780F991E0892711C035
:100960000E94420DEFEFF4E30CE0E150F040004054
:10097000E1F700C000000E941C0818CE81E001C011
:1009800080E00E949B09F701828100811181882308
:1009900049F0C8010E94C209D82E682FC8010E94E0
:1009A000640A04C0C8010E94380AD82EB8018D2DEF
:1009B0000E94AC148C01A82EF701B280D580D2948D
:1009C0009FE0D9228091AC01877099F0BB2089F01B
:1009D000812F807F803421F080E2800F883048F0C2
:1009E00082E00E94C10A8091AC018770CC24C3943C
:1009F0008111C12C912E92948FE09822892D90E044
:100A00008C30910508F076C2FC01E65CFF4F0C9437
:100A1000BB1C812F807F1F70882311F01295107FDF
:100A2000BB20B9F0112309F44BC280E2800F88305B
:100A300010F0A11006C08091AF01182B1093AF01E8
:100A400005C08091AE01182B1093AE010E94500991
:100A500037C2802F0E94751B112309F44BC2005E20
:100A6000083010F0A11004C0812F0E94490906C06F
:100A700010958091AE0118231093AE010E94500989
:100A800039C2812F807F1F70803211F01295107F44
:100A9000AA2029F0F1E0AF1609F443C04EC0BB20F4
:100AA00051F1DD2011F101E0D01213C08091B901A4
:100AB00082FD20C28091B201182B181709F41AC2C6
:100AC0000E9466089093B1018093B0011093B20127
:100AD00011C225E0D21209C00E943E098091A901ED
:100AE0001817A9F11093A90132C08091B201812B8E
:100AF0000E94540DFFC1DD2051F031E0D3120DC032
:100B00008091AF01812309F4F5C10E94BC090E94C4
:100B10003E09812F0E944D0DEDC185E0D812F7CF1F
:100B2000E9C1BB2029F095E09D1508F4E3C10FC091
:100B3000E4E0ED1508F4DEC1ECCFBB2051F0DD2080
:100B400031F0F701858180FFBBC18F708583812FD4
:100B5000CFCFDD20F1F2093309F0C3C1FFEF17EE6B
:100B600023E0F15010402040E1F7BFC1812F86956E
:100B70008695837019F0813059F0BCC1BB2019F003
:100B8000C801937002C080E090E00E949312BAC145
:100B9000BB2019F0C801937002C080E090E00E9471
:100BA0007D12B0C1812F837009F069C0B110A6C158
:100BB000902F929596959770990F990F802F8F701F
:100BC000882E912CA12CB12C092E04C0880C991CC4
:100BD000AA1CBB1C0A94D2F704FF12C04FE050E0DD
:100BE00060E070E004C0440F551F661F771F9A95A0
:100BF000D2F7DB01CA0180959095A095B09503C00E
:100C000080E090E0DC0116951695412F437042304C
:100C100019F1C8F40091B3011091B4012091B5010C
:100C20003091B601413059F088299929AA29BB2968
:100C3000BC01CD0160237123822393230AC0802A43
:100C4000912AA22AB32ABC01CD01682979298A29CF
:100C50009B290E94150B52C188299929AA29BB29D1
:100C60000091B3011091B4012091B5013091B6010A
:100C7000BC01CD016027712782279327EACFBB20D3
:100C800019F0812F817001C08695882309F436C13F
:100C9000902F929596959770990F990F802F8F703E
:100CA000882E912CA12CB12C092E04C0880C991CE3
:100CB000AA1CBB1C0A94D2F704FF12C04FE050E0FC
:100CC00060E070E004C0440F551F661F771F9A95BF
:100CD000D2F7DB01CA0180959095A095B09503C02D
:100CE00080E090E0DC0116951695412F437042306C
:100CF000D9F068F50091F4011091F5012091F60109
:100D00003091F701413059F088299929AA29BB2946
:100D1000BC01CD0160237123822393231EC0802A4E
:100D2000912AA22AB32A13C088299929AA29BB2962
:100D30000091F4011091F5012091F6013091F70135
:100D4000BC01CD01602771278227932706C0BC0113
:100D5000CD01682979298A299B290E94920ACEC04F
:100D60001F70BB2039F0812F0E94DE0A802F0E9465
:100D7000540DC4C0802F0E944D0D812F0E949C0AEB
:100D8000BDC0802F92EFA91609F442C09A1538F021
:100D9000E0EFAE1661F0F1EFAF1699F18CC023EFE2
:100DA000A216E9F134EFA31609F450C084C0BB20A9
:100DB00019F184E08D1508F49DC01F7181E090E069
:100DC000A0E0B0E0AC01BD0104C0440F551F661F98
:100DD000771F1A95D2F78091F4019091F501A091B7
:100DE000F601B091F7018A019B01082719272A27EC
:100DF0003B27C901B80127C025E02D1508F47AC0AA
:100E0000DCCFBB2039F0812F8F710E94DE0A72C0C7
:100E1000BB20C9F3812F8F710E949C0A6BC0BB203D
:100E200079F01F7181E090E0A0E0B0E0BC01CD015D
:100E300004C0660F771F881F991F1A95D2F703C049
:100E400060E070E0CB010E94920A54C0BB20D9F050
:100E50008091A9010E9449098091AC01877084307A
:100E600039F40E94B509812F8F710E949C0A62C0DB
:100E700034E03D1508F45EC01F71812F0E94DE0A28
:100E800063E0812F11C09091AF018091A901892B5E
:100E90008093AF0184E08D1550F40E94B5090E9443
:100EA000BC0964E0812F8F710E94FF0A43C081E07A
:100EB0000E94C10A3FC0BB2039F0DD2009F4A3CF56
:100EC000802F0E94CC1B16C0DD2009F4A3CF8933EC
:100ED00041F49FEFE7EEF3E09150E040F040E1F79E
:100EE00004C08FE39CE90197F1F700C00000802F58
:100EF0000E94751B88EF890D843020F40E94A9128E
:100F00000E943016CC2009F18091AC0180FD1DC0FB
:100F1000F70112828595859585950E94DE0AC701A5
:100F20000E9407028091AC018595859585950E9468
:100F30009C0A0BC0C12CE2CF01319FE5190709F0D3
:100F400051CB82E02FCB69E2E6CC29960FB6F8941C
:100F5000DEBF0FBECDBFDF91CF911F910F91FF90EC
:100F6000EF90DF90CF90BF90AF909F908F900895BB
:100F700008958091DF01089580E00895CF93DF9375
:100F800021E02093E9002FEF3091E800215035FD5A
:100F900006C035ED3A95F1F700002111F5CF20910B
:100FA000E80025FF14C0EC0140E050E068E070E08C
:100FB0000E9453178091E8008E778093E80088E0C4
:100FC000FE01A0EEB1E001900D928A95E1F7DF916C
:100FD000CF910895CF93DF9300D01F92CDB7DEB7A6
:100FE0009091EA01943011F589837B836A83909311
:100FF000E9008FEF9091E800815095FD06C095EDD6
:101000009A95F1F700008111F5CF8091E80085FFF6
:101010000DC040E050E063E070E0CE0101960E9418
:1010200053178091E8008E778093E8000F900F901F
:101030000F90DF91CF91089581E08093E00080E2EE
:101040008093D8001092C9008FE19EE40197F1F7D8
:1010500000C0000087E090EBDC018093F8019093E2
:10106000F901A093FA01B093FB019CE088E10FB66F
:10107000F894A895809360000FBE90936000FFCF16
:1010800078941F920F920FB60F9211248F939F9313
:10109000AF93BF938091D1019091D201A091D301E0
:1010A000B091D4010196A11DB11D8093D1019093FF
:1010B000D201A093D301B093D401BF91AF919F917E
:1010C0008F910F900FBE0F901F9018952FB7F89427
:1010D0008091D1019091D201A091D301B091D4011E
:1010E0002FBF08951F920F920FB60F9211248F9366
:1010F0009F93AF93BF938091C201811113C08091E0
:10110000D1019091D201A091D301B091D401419627
:10111000A11DB11D8093D1019093D201A093D30161
:10112000B093D401BF91AF919F918F910F900FBE5B
:101130000F901F9018959C012A5F3F4FFC01428140
:10114000461301C01282019682179307B9F70895DA
:101150009C01FC0132969FEF80E04191461789F097
:101160009F3F19F4411101C0982F8F5F8630A9F776
:101170009F3F39F0F901E90FF11D97FDFA95628360
:1011800008950895CF9384E090E00E94681CC82FD2
:1011900082E290E00E94681C2C2F30E0A901582BBD
:1011A000CA01CF9108956AEE7EEF80E090E00E9440
:1011B000941C60E082E090E00E94761C60E083E096
:1011C00090E00E94761C1092B3011092B40110922C
:1011D000B5011092B60160E084E090E00E94761CB8
:1011E00060E082E290E00E94761C60E085E090E0A2
:1011F0000E94761C60E086E090E00E94761C6FEF13
:1012000087E090E00E94761C40E050E0BA0188E060
:1012100090E00E94881C60E08DE090E00E94761CC7
:1012200040E050E0BA0188E190E00E94881C60E054
:1012300087E190E00E94761C40E050E0BA018CE12A
:1012400090E00E94881C60E070E080E290E00E94E4
:10125000941C40E050E0BA0188E190E00E94881CB4
:1012600040E050E0BA018FE090E00E94881C40E02E
:1012700050E0BA0183E190E00C94881C8091B201A7
:10128000882331F01092B2011092B1011092B00196
:10129000089580959091AF0189238093AF010895BF
:1012A0009091AF018091AE01892B9091AD01892B76
:1012B00080935A018091B201882311F10E9466083F
:1012C0002091B0013091B101821B930B883893417A
:1012D00010F00E943E0990915A018091B201892B31
:1012E00080935A01ECE5F1E097E080E0915029F01D
:1012F00021912223D9F38F5FF9CF81110E943E09FA
:10130000E091C001F091C101309731F00280F3818A
:10131000E02D8AE591E00994089580E090E00E9434
:10132000931280E090E00E947D121092AE01109224
:10133000AD010C945009CF93C091B901C2FB99271C
:1013400090F9981781F080FBC2F9C093B9016091C0
:10135000B80184E090E00E94761C6C2F82E290E05D
:10136000CF910C94761CCF9108951092AC011092FD
:10137000AB011092AA0108958091A90181111092E8
:10138000A9010895BF92CF92DF92EF92FF920F933F
:101390001F93CF93DF938C01C090F401D090F5019F
:1013A000E090F601F090F7018091B3019091B401C3
:1013B000A091B501B091B601C82AD92AEA2AFB2A20
:1013C000CFE1D0E0D701C6010C2E04C0B695A79599
:1013D000979587950A94D2F780FD04C0219790F7DE
:1013E000B12C07C0BC2EB8018C2F0E94AC14019701
:1013F000A9F38B2DDF91CF911F910F91FF90EF906B
:10140000DF90CF90BF900895CF93DF93EC010E94BF
:10141000C209BE010E94AC14DF91CF9108950E94D1
:10142000040A292F2F70E92FE295EF704E2F50E01C
:10143000FA013297EE30F105B8F4EA5BFF4F0C94F5
:10144000BB1C803F99F018F4883E70F40FC0843FB5
:1014500059F40CC0883E50F0813F31F407C0822F10
:10146000869586958695089580E0089581E0089593
:10147000990F990F890FA82FA77086958695869545
:1014800090E065E070E00E94AA1CBC0140E050E0E2
:1014900080E0FB01E40FF51FE656FE4F208130E0AF
:1014A0000A2E02C0369527950A94E2F72170332759
:1014B000042E01C0220F0A94EAF7822B4F5F5F4F80
:1014C0004530510531F70895262F990F990F890F4F
:1014D000982F9770A1E001C0AA0F9A95EAF7869518
:1014E0008695869590E065E070E00E94AA1CFC015C
:1014F000E656FE4F40E050E0622F70E090819B0185
:10150000042E02C0369527950A94E2F721702195A2
:1015100029272A23292721934F5F5F4F4530510503
:1015200069F708956093F4017093F5018093F601D3
:101530009093F7010C948D090F931F9341E050E0B5
:1015400060E070E004C0440F551F661F771F8A9546
:10155000D2F740955095609570958091F4019091E7
:10156000F501A091F601B091F7018A019B010823D2
:1015700019232A233B23C901B8011F910F910C9411
:10158000920A2091AC01809582238093AC01982F20
:10159000977041F430E0482F082E000C550B2417AB
:1015A000350721F49091B90192FF07C08595859583
:1015B00085950E949C0A0C94B50908950F931F937A
:1015C00041E050E060E070E004C0440F551F661F2A
:1015D000771F8A95D2F78091F4019091F501A0913F
:1015E000F601B091F7018A019B01082B192B2A2BD8
:1015F0003B2BC901B8011F910F910C94920A909155
:10160000B90192FD10C0982F990F990F990F692B6E
:101610006093AC010E94DE0A0E9466089093AB01C1
:101620008093AA0108950C94DE0A6093B30170932D
:10163000B4018093B5019093B6010C948D0980910B
:10164000990190916801891719F08F5F8770FBCF1E
:1016500008951F93CF93DF938091670182958F70D8
:1016600009F05CC080916401882309F457C020917F
:10167000990110916801C0916201D0916301A0911C
:101680006501B091660181E0CF3F09F080E0482F0D
:10169000211709F443C0109721F0DF3F21F080E0CB
:1016A00003C081E001C0842F30E080FD33C0C90158
:1016B00066E070E00E94AA1CFC01E759FE4F8181A0
:1016C0008D1328C080818C1325C08281811122C096
:1016D000838194818A1B9B0B883C9105D8F480916F
:1016E00067018F70806180936701C90166E070E0D7
:1016F0000E94AA1CFC01E259FE4F90819F709061EC
:10170000908382E691E00E940702DF91CF911F91C2
:101710000C941F0B2F5F3F4F2770BACFDF91CF91F3
:101720001F9108959F92AF92BF92CF92DF92EF9256
:10173000FF920F931F93CF93DF93CDB7DEB76197DF
:101740000FB6F894DEBF0FBECDBF8C0185E0F80167
:10175000DE011D9601900D928A95E1F7F801308126
:101760002181E28090916201609163014091650165
:10177000509166014115510531F06F3F31F481E020
:101780009F3F19F403C081E001C080E0F82FF170A1
:101790009F2E80FD24C1F801C380D48082E6A82E4C
:1017A00081E0B82EF0906401F601E41BF50BFF20F8
:1017B00009F4CFC080916701E83CF10508F09AC0B8
:1017C000482F407F09F053C0621311C093130FC01C
:1017D000FE2CE1100CC08F70806180936701C50101
:1017E0000E94070280916701F801858338C1CD28E6
:1017F00031F02F3F31F481E03F3F19F403C081E025
:1018000001C080E080FD03C081E08E2502C080E041
:1018100090E0F82FF170FF2E80FF1FC0E09199013A
:1018200040916801E41709F4F8C0F0E0CF0166E0E8
:1018300070E00E94AA1CDC01A759BE4F11968C9142
:101840001197281307C08C91381304C012968C91FD
:10185000E81203C03196E770E5CFFE2CEE2009F4C4
:10186000FEC0809167018160809367014FC0621361
:1018700006C0931304C0E11002C0F8018CC03D877C
:101880002E878D859E850E940F0A882369F1EE20A0
:1018900059F120916701822F82958F7090E0029715
:1018A00074F0809162019091630198878F8319860B
:1018B000DB86CA862C87CE0107960E94070286E047
:1018C000F801A2E6B1E001900D928A95E1F70E943D
:1018D000290B0DC06217E1F03D872E878D859E850F
:1018E0000E940F0A81111EC0C8010E940702FF2436
:1018F000F394B5C0482F407F69F782E691E00E94DB
:10190000070286E0F50111928A95E9F7F12CA7C04C
:101910009313E2CFE110E0CFF8018583C8010E9464
:10192000070257C0EE2001F320916701822F8295B4
:101930008F7090E002971CF2809162019091630198
:101940009A8389831B82DD82CC822E83CE0101960D
:10195000B4CFE83CF105E8F5FE2CEE2029F2621345
:1019600027C0931325C02091670120FD18C0822F46
:1019700082958F70482F50E04115510581F0F80194
:1019800025834F30510541F08F5F982F9295907FBE
:10199000822F8F70892B8583C8010E94070286E001
:1019A000F801A2E6B1E001900D928A95E1F757C0E7
:1019B0003D872E878D859E850E940F0A81117FCFDE
:1019C00080916701816080936701C8010E940702CE
:1019D00046C086E0F50111928A95E9F740C0EE20F5
:1019E00009F482CF3D872E878D859E850E940F0A40
:1019F000F82E882309F478CF86E0F801A2E6B1E05A
:101A000001900D928A95E1F78091620190916301B6
:101A10000E94040A0E94290B22C03D872E878D85D3
:101A20009E850E94040A292F22952F70223028F4C7
:101A30009F7039F0811105C00BC0243028F49F70CD
:101A400049F4805E883020F0C8010E9407029F2C74
:101A5000F92C05C0F8019581907F99F7F9CF8F2D6A
:101A600061960FB6F894DEBF0FBECDBFDF91CF9168
:101A70001F910F91FF90EF90DF90CF90BF90AF90AC
:101A80009F9008951092AF0186E0ECE5F1E0DF0150
:101A90001D928A95E9F70C948D09882321F00E9404
:101AA00049090C9450090895882339F09091AF01A9
:101AB000892B8093AF010C94500908951F93CF9305
:101AC000DF93182F893319F0CAE0D0E002C0C0E5D7
:101AD000D0E0812F0E94CC1B8FE99FE00197F1F7A6
:101AE00000C000002197C1F7812FDF91CF911F9196
:101AF0000C94751BBC0184E00C94EA07BC0183E0E4
:101B00000C94EA072091F2013091F3012617370770
:101B100048F06115710539F42091E8002E77209383
:101B2000E80001C0B901FC0120E06115710561F117
:101B30008091EA018823D9F18530D9F18091E800BC
:101B400083FD39C08091E80082FD2BC08091E800C0
:101B500080FFEBCF8091F20090E06115710551F0AC
:101B60008830910538F421912093F100615071097A
:101B70000196F3CF21E0089709F020E08091E8007A
:101B80008E778093E800D1CF2111D2CF0AC0809107
:101B9000EA01882361F0853061F08091E80083FDDF
:101BA0000AC08091E80082FFF2CF80E0089582E0D1
:101BB000089583E0089581E00895CF93DF93CDB732
:101BC000DEB7AA970FB6F894DEBF0FBECDBF84B7BD
:101BD000877F84BF0FB6F894A895809160008861D4
:101BE00080936000109260000FBE90E080E80FB616
:101BF000F89480936100909361000FBE8CEB97E0A6
:101C000090935701809356011092E2001092E100E8
:101C10008091E00081608093E0008091D8008F7710
:101C20008093D80019BC8091630081608093630029
:101C30001092B701809163008E7F8093630081E0F2
:101C40008093B7011092E2001092E1008091D800D9
:101C50008F778093D8008091D80080688093D800D7
:101C60008091D8008F7D8093D80084E089BD86E084
:101C700089BD09B400FEFDCF1092EA011092EB017C
:101C80001092E9011092E80142E060E080E00E94D9
:101C90007F178091E1008E7F8093E1008091E200C8
:101CA00081608093E2008091E20088608093E2008E
:101CB0008091E0008E7F8093E0008091E20084605C
:101CC0008093E20078948091EA018823A1F010913A
:101CD000E9001F709091EC00892F817090FD80E8E1
:101CE000182B1092E9008091E80083FD0E94B41740
:101CF0001F701093E90082E084BD93E095BD9AEFD8
:101D000097BD80936E000BE011E061E1E62E61E08B
:101D1000F62EF80181918F010E94EA13E016F10678
:101D2000C1F780E30E94EA1386E90E94EA1385E97D
:101D30000E94EA1384E90E94EA13EAEBF1E0ABECBB
:101D4000B1E011921D9221E0E03CF207D1F780E072
:101D500090E00E94701C8A3E9E4F11F00E94D308B2
:101D600082E090E00E94681C8093C4010E94C20837
:101D70009093B9018093B8010E9401148FE39CE90C
:101D80000197F1F700C000000E9401148091CB017F
:101D900080FF17C06FEF83E290E00E94761C6FEF28
:101DA00084E290E00E94761C6FEF85E290E00E9452
:101DB000761C6FEF7FEF80E090E00E94941C0E9401
:101DC0001C0883E090E00E94681C682F70E080E0AF
:101DD00090E00E94150B249A2C9883E290E00E94D8
:101DE000681C823281F484E290E00E94681C833097
:101DF00051F485E290E00E94681C91E0893009F07E
:101E000090E0892F01C080E080FF49C280E091E02E
:101E10009093C1018093C00198E1C92ED12C20E498
:101E2000422E34E0532E46E0842E54E0952E8E014F
:101E30000F5F1F4F8091EA01853009F044C0809107
:101E4000EA01853009F039C08091EA01843021F13E
:101E500080E00E9430161092C2010FB6F894A89547
:101E6000C09260000FBE4092600083B7817F8460A3
:101E700083BF83B7816083BF7894889583B78E7F53
:101E800083BF0FB6F894A895809160008861809315
:101E90006000109260000FBE8091E901882309F470
:101EA000CECF0E940114EBECF1E081918111D8C1F9
:101EB00091E0E13DF907C9F7C2CF0E94420D0E94AF
:101EC000A9120E9430160E940114882359F08FB77E
:101ED000F8944091D1015091D2016091D301709159
:101EE000D4018FBFA5ECB1E0EBECF1E0E12CF12CDB
:101EF0003E2D21919D91922721F180E0BB24B39446
:101F0000492F4B21D1F089A33AA32B2181E009F479
:101F100080E08BA30E9466088160782F9DA38CA32C
:101F200049A15AA16BA18DA10E94AB11F701EB53FE
:101F3000FE4F8081B826B0821BC08F5FBB0C8430FF
:101F4000F9F62FEFE21AF20A86E0E816F10481F6BC
:101F50008FEF8EA38FA318A60E9466088160782F4A
:101F60009AA789A74EA15FA168A58AA50E94AB1177
:101F70000E94A9129091C301891731F00E94A91201
:101F80008093C3010E9430168091EA01843009F0E9
:101F900051CF83E08093E9008091E80082FF4ACF2F
:101FA0008091E80085FF23C00E94201781111DC089
:101FB00080E2E82EF12CFE0131965F0109C080918C
:101FC000F100F50181935F01F1E0EF1AF10869F08A
:101FD0008091E80085FDF3CF8091E8008B778093B6
:101FE000E8000E942017882399F391E001C090E057
:101FF0008091E8008B778093E800992309F41ACF49
:10200000E9818E2F90E0FC013197E331F10508F072
:10201000FDC0EC5AFF4F0C94BB1C1A8289E054C0DF
:102020008A81823009F432C1833089F0813009F02D
:10203000EDC02FB7F8948091D1019091D201A09179
:10204000D301B091D4012FBFBB83AC8327C0809153
:10205000CB018B838091CC018C838091CD018D83CA
:102060008091CE018E838091CF018F838091D001AA
:102070008887CEC08A81823009F0C8C06B817C819C
:102080008D819E810E94C11C86E290E00E94761C98
:10209000BFC04C816B818A810E94AA139D83FDC0C1
:1020A0002D813E813227232732274C816B818A8103
:1020B0000E944413ADC00E947213AAC080E18A83BB
:1020C000A7C083E08A8389E18B83A2C0EA80FB807A
:1020D000FE24EF24FE246C80712C2DE16216710425
:1020E00008F096C05801C70189519F4F9501201BE8
:1020F000310B2615370508F08BC0E9E1EE16E3E059
:10210000FE0628F40E94681CF501848302C0F501D4
:102110001482FFEFEF1AFF0A2FEFA21AB20AE3CFE1
:10212000EA80FB80FE24EF24FE24AC80B12C8DE1FC
:10213000A816B10408F06CC03801C70189519F4F3F
:102140009301201B310B2A153B0508F061C0E9E122
:10215000EE16E3E0FE0620F4F30164810E94761C93
:10216000FFEFEF1AFF0A2FEF621A720AE6CF0E9402
:1021700034134EC09A824CC0EA80FB80FE24EF24C8
:10218000FE246C80712C8DE16816710408F040C04B
:102190005801C70187969501201B310B261537057D
:1021A000B8F5E0ECEE16F10428F40E94681CF50185
:1021B000848302C0F5011482FFEFEF1AFF0A2FEFAC
:1021C000A21AB20AE6CFEA80FB80FE24EF24FE24A6
:1021D000AC80B12C8DE1A816B104D0F43801C70150
:1021E00087969301201B310B2A153B0588F4E0EC00
:1021F000EE16F10420F4F30164810E94761CFFEFD7
:10220000EF1AFF0A2FEF621A720AE9CF8FEF898364
:102210008091EA01843009F00DCE8091E9008F7041
:102220002091EC00922F917020FD90E8F92EF82A71
:1022300082E08093E9008091E80080FF0CC040E0DC
:1022400050E060E270E0C8010E9453178091E800FE
:102250008E778093E8008F2D8F708093E900EACD10
:1022600059BC89BC09B400FEFDCF8091D8008F7D98
:102270008093D8008091E00082608093E00080919C
:10228000E00081FDFCCF0E94420DD9CD86E290E0B6
:102290000E94681C1B821C821D828E83B9CF60E065
:1022A00086E290E00E94761C0E9472130E94341312
:1022B00062E283E290E00E94761C63E084E290E0B8
:1022C0000E94761C69E085E290E00E94761C9ECD1B
:1022D0009091B80192FF0DC0282F2871283019F471
:1022E000877F846006C0282F2471243011F48B7FEF
:1022F000886093FF0DC0282F2871283119F4877E3C
:10230000846106C0282F2471243111F48B7E8861EA
:102310002091B90120FF0DC0382F3871383019F4E1
:10232000877F816006C0382F3171313011F48E7F84
:10233000886021FF0DC0282F2871283119F4877E6D
:10234000816106C0282F2171213111F48E7E8861B0
:1023500094FD877E0895CF92DF92FF920F931F9393
:10236000CF93DF93CDB7DEB767970FB6F894DEBF94
:102370000FBECDBFF42E4B8B052F5C8B162F6D8BB4
:102380007E8B8F8BCE88DF8861111092AE01FE01AB
:102390003D9686E0DF011D928A95E9F70E94660866
:1023A0002091AA013091AB01821B930B8838934195
:1023B00040F08091AC0182FB992790F981E0892758
:1023C00001C080E080FF03C082E00E94C10A0E9439
:1023D00066082091B0013091B101821B930B8838BF
:1023E000934110F00E943E09FD860E871F87D98A0F
:1023F000C88A86E0FE013D96DE01179601900D9297
:102400008A95E1F7CE0107960E94920B811153C085
:1024100086E0FE013796DE01119601900D928A95B5
:10242000E1F7FF81E8856A857B856115710531F0EB
:10243000EF3F31F481E0FF3F19F403C081E001C0B8
:1024400080E080FD38C08091680190E09C012F5FA2
:102450003F4F277033274091990150E024173507EB
:1024600089F1F983EA837D836C8366E070E00E94E2
:10247000AA1CDC01A759BE4F96E0FE0131960190DF
:102480000D929A95E1F7209368010E941F0B13C0EB
:1024900090E066E070E00E94AA1C87599E4F0E945F
:1024A000920B8823E1F08091990190E0019687706A
:1024B00099278093990180919901909168018913DE
:1024C000E7CF0DC00E94420D109268011092990151
:1024D000E2E6F1E086E0DF011D928A95E9F7679672
:1024E0000FB6F894DEBF0FBECDBFDF91CF911F9125
:1024F0000F91FF90DF90CF9008952091DC013091F3
:10250000DD012817390771F09093DD018093DC011C
:10251000E091C001F091C101309721F00084F18574
:10252000E02D099408952091DA013091DB012817FC
:10253000390771F09093DB018093DA01E091C001DB
:10254000F091C101309721F00680F781E02D0994C8
:102550000895E091C001F091C101309721F0019000
:10256000F081E02D099480E008950F931F93CF939D
:10257000DF93C42F122FFC0182818823C9F040937E
:1025800058010E9466089093D9018093D80180E297
:102590008C0F883008F063C0C77081E001C0880FDD
:1025A000CA95EAF7DF91CF911F910F910C94540DCA
:1025B0008091580148133CC02091D8013091D90135
:1025C0004FB7F8948091D1019091D201A091D3019D
:1025D000B091D4014FBF821B930B883C910540F50D
:1025E000D0E2D10FC117B9F080E28C0F883040F4EF
:1025F000C77081E001C0880FCA95EAF70E944D0DAF
:10260000D83030F581E0912F977001C0880F9A95EE
:10261000EAF70E94540D802F0E945E0DD830F8F426
:10262000212F277081E001C0880F2A95EAF70AC0A0
:1026300080E28C0F883098F4C77081E001C0880F69
:10264000CA95EAF7DF91CF911F910F910C944D0D30
:10265000802FDF91CF911F910F910C945E0DDF9130
:10266000CF911F910F910895CF93DF93C7EED0E0E4
:1026700060E0CE010E94761C2196C11584E0D80747
:10268000B9F7DF91CF9108951F93CF93DF938430F3
:1026900028F5663018F5443008F5122FC62FD0E023
:1026A00093E0CC0FDD1F9A95E1F750E0440F551FE2
:1026B000C40FD51F90E060E370E00E94AA1CC80F11
:1026C000D91F632FCE0187960E94761C612FCE0101
:1026D0008896DF91CF911F910C94761CDF91CF915A
:1026E0001F910895DF92EF92FF920F931F93CF9364
:1026F000DF93C0E0D0E0CE0168E170E00E94AA1C48
:102700007C01D12C00E010E0F801EE0DFF1DEE0F72
:10271000FF1FEE56FE4F25913491402F6D2D8C2FCB
:102720000E9444130F5F1F4F0430110569F784E0C6
:10273000E80EF11CD39486E0D812E4CF2196C43081
:10274000D105C9F6DF91CF911F910F91FF90EF90C6
:10275000DF9008950F931F93CF93DF93843030F56C
:10276000663020F5443010F5C62FD0E093E0CC0F52
:10277000DD1F9A95E1F750E0440F551FC40FD51F98
:1027800090E060E370E00E94AA1CC80FD91FCE0140
:1027900087960E94681C90E0182F0027CE0188962B
:1027A0000E94681C9801282BC90102C080E090E0BB
:1027B000DF91CF911F910F910895462F843038F407
:1027C000763028F4643018F4672F0C94AA1380E054
:1027D00090E00895F894E82FE295EF70F0E031A1D1
:1027E000282F2F7081E090E001C0880F2A95EAF72A
:1027F000982F9095932391A392A1892B82A37894EB
:1028000008958F929F92AF92BF92CF92DF92EF92F4
:10281000FF920F931F93CF93DF93CBE0D1E00AEBAE
:1028200011E081E1C82E81E0D82E5801912CEE24D0
:10283000E394F12CBE018881F894E82FE295EF70C3
:10284000F0E021A18F70A70102C0440F551F8A95A7
:10285000E2F7CA01922F982B91A392A18095892328
:1028600082A3789400C0E1E1F1E020E030E0812C27
:102870004191842F82958F7090E0DC0190968C912D
:1028800090E04F7002C0959587954A95E2F780FDDC
:1028900007C08E2D022E01C0880F0A94EAF701C0EE
:1028A00080E0882A2F5F3F4F2430310509F72196B9
:1028B000FB0180810E94EA13F0EAFA95F1F7D50155
:1028C0008C91881619F08C9281E001C080E0982AE2
:1028D000BFEFAB1ABB0ACC16DD0609F0ABCF9920CF
:1028E00049F081E08093D7010E9466089093D60159
:1028F0008093D5018091D701882301F12091D501E2
:102900003091D6014FB7F8948091D1019091D201C6
:10291000A091D301B091D4014FBF821B930B0697B6
:1029200068F0EBECF1E080EC91E0D8012D918D01A5
:1029300021938A179B07C9F71092D701892DDF9140
:10294000CF911F910F91FF90EF90DF90CF90BF90AC
:10295000AF909F908F900895CF93DF930E94DD13E7
:10296000EC018238910559F1A0F48133910509F405
:1029700073C040F48932910509F467C08A9709F45D
:1029800072C084C08533910509F458C0C997B9F065
:102990007DC0833E910571F138F4803E9105B1F020
:1029A000823E910511F172C0863E9105B9F1873ED4
:1029B0009105C9F1843E910509F068C024C0809159
:1029C000B80180FD5DC081FD5BC060C08091B80131
:1029D00080FD50C08091B90180FF3EC18091B80157
:1029E00084FD38C1C3EED0E037C18091B80182FFC9
:1029F00033C1F4CF8091B80182FD3FC08091B9010D
:102A000080FD3EC0EBCF8091B90181FF25C180914F
:102A1000B80184FD1FC1C7EED0E01EC18091B8018E
:102A200083FF1AC1F4CF8091B80183FD2CC080913F
:102A3000B90181FFECCFC4EED0E00EC18091B801A6
:102A400085FF0AC1C9E2D0E007C18091B80185FFC6
:102A500003C1C5E3D0E000C18091B80186FFFCC08E
:102A6000CAE2D0E0F9C08091B80186FFF5C0C1E3A9
:102A7000D0E0F2C0C9E3D0E0EFC0C2EED0E0ECC0DD
:102A8000C0EED0E0E9C0C6EED0E0E6C0C11522E558
:102A9000D20708F069C0C11581E5D80728F0DC2FFE
:102AA000CC27C16FD06AD8C0C83ED10560F5C03E02
:102AB000D10508F0D1C0C83AD105B0F4C53AD10566
:102AC00040F0C55AD0E0CC5DDE4FC881D0E0D06484
:102AD000C3C0C130D10509F4BFC008F4BBC0C430C5
:102AE000D10508F4B7C0B8C0CF3BD10508F0B2C0DB
:102AF000C85AD0E0CC0FDD1FC95DDE4F0990D881E8
:102B0000C02DD464A9C0C11590E5D907F8F0CE0155
:102B1000F4E096958795FA95E1F7282F23703C2FDE
:102B2000337081E090E002C0880F991F3A95E2F778
:102B30009C68922BCF70C695C695D0E0A5E0CC0FCF
:102B4000DD1FAA95E1F7C82BD92B86C0C11520E45B
:102B5000D20718F0DF70D06A7FC0CE019A95811538
:102B60009F4108F479C076C0C11586E5D80708F002
:102B700042C0C11595E5D90750F08C2F0E9468110D
:102B80008F71C82FD0E0DC2FCC27D06265C0C11573
:102B900024E5D20728F0DC2FCC27C46FD06A5CC0B4
:102BA0009E01237033278C2F86958695C115D345BA
:102BB00088F4C1E0D0E002C0CC0FDD1F2A95E2F717
:102BC00090E075E0880F991F7A95E1F7C82BD92B13
:102BD000DC6842C0C1E0D0E002C0CC0FDD1F2A9506
:102BE000E2F790E065E0880F991F6A95E1F7C82B3E
:102BF000D92BDA6831C0C1152AE5D207E8F4C1152E
:102C000089E5D80780F08C2F8F700E94681194E0BE
:102C1000D695C7959A95E1F7CF70D0E0DC2FCC27F9
:102C2000D069C82B19C0C11598E5D90798F0DC2FD9
:102C3000CC27C06FD06A10C0CE019056811590424B
:102C400048F48D2F8F710E946811DD27D0628F713B
:102C5000D82B02C0C0E0D0E0CE01DF91CF91089523
:102C600080FF02C02C9A08952C980895BF92CF92AD
:102C7000DF92EF92FF920F931F93CF93DF93EC01BC
:102C80002881222309F495C0213009F03FC08981B1
:102C9000813039F48E010E5F1F4F8A810E945E0DD4
:102CA00008C0823041F48E010E5F1F4F8A810E945E
:102CB000CC1BE8017CC0833039F48E010E5F1F4FBE
:102CC0008A810E94751BF5CF843011F021966FC068
:102CD0002A81229680E090E030E0205331092A30AA
:102CE000310548F46AE070E00E94AA1C820F931F2D
:102CF00021962881F1CF009709F459C0EFE9FFE050
:102D00003197F1F700C000000197F5CFE22FF0E016
:102D1000EE5EFE4FB490822F86958695869590E064
:102D2000FC01EE5FFE4FE4902770F12C022E02C0F2
:102D3000F594E7940A94E2F7F1E0EF22FF24FC0116
:102D4000EE50FF4FC490D12C022E02C0D594C794F0
:102D50000A94E2F731E0C322DD24FC01EE51FF4F7B
:102D6000049110E002C0159507952A95E2F70170CD
:102D70001127E114F10419F081EE0E94CC1BC1145B
:102D8000D10419F086EE0E94CC1B8B2D0E945E0DA3
:102D9000CD2819F086EE0E94751BEF2819F081EE00
:102DA0000E94751B012B19F08CE20E945E0D21968A
:102DB00067CFDF91CF911F910F91FF90EF90DF9040
:102DC000CF90BF9008958091EC0187FF11C0809152
:102DD000E80082FD05C08091EA018111F8CF11C0A1
:102DE0008091E8008B770BC08091EA01882349F03D
:102DF0008091E80080FFF8CF8091E8008E77809383
:102E0000E80008950F931F938091F4019091F501CC
:102E1000A091F601B091F7018C019D010670112778
:102E200022273327BC01CD010630110521053105CC
:102E300011F4686001C0677F1F910F910C94920A92
:102E40002091E4003091E50095E64091EC00842F5C
:102E5000817040FF23C08091E80080FD1DC08091FB
:102E6000EA01882399F0853099F08091EB0085FD87
:102E700011C04091E4005091E5002417350729F373
:102E8000915011F09A01E1CF84E0089582E0089515
:102E900083E0089581E0089580E008954091E8007E
:102EA00042FFDDCF0895EF92FF920F931F93CF93D0
:102EB000DF937C018B010E942017811119C0E7016B
:102EC00001151105A1F08091E80085FD0AC08091EF
:102ED000E8008E778093E8000E942017882381F312
:102EE00007C089918093F10001501109E9CF80E07A
:102EF000DF91CF911F910F91FF90EF900895982F40
:102F0000953068F59093E900981739F07091EC00CE
:102F10002091ED005091F00003C0242F762F50E057
:102F200021FD02C09F5FECCF3091EB003E7F3093DC
:102F3000EB003091ED003D7F3093ED003091EB00E0
:102F400031603093EB007093EC002093ED005093D0
:102F5000F0002091EE0027FDE5CF80E008958F700E
:102F60008093E90081E008951F93CF93DF93CDB75D
:102F7000DEB7AA970FB6F894DEBF0FBECDBFECEE5A
:102F8000F1E08091F100819341E0E43FF407C9F75B
:102F90008091ED01833009F45EC030F4813071F02E
:102FA000823009F498C0AFC08A3009F484C08B30F5
:102FB00009F469C0893009F0A6C020C08091EC01F5
:102FC000813A09F0A0C08091E800877F8093E800F3
:102FD0008091F0019091F101892B21F468E080EE5D
:102FE00091E003C060E080E090E070E00E94820D1C
:102FF0008091E8008B778093E80085C08091EC0198
:10300000813209F080C08091F0019091F101009728
:1030100019F0029709F077C08091E800877F8093CC
:10302000E8008091E80082FD05C08091EA018111ED
:10303000F8CF69C08091F200823029F48091F100CC
:103040008B7F813021F48091F1008093DF018091AA
:10305000E8008B7754C08091EC01813A09F053C0AD
:103060008091F0019091F101892B09F04CC0809181
:10307000E800877F8093E8008091E80080FFFCCF24
:1030800080910A0137C08091EC018132E1F5809195
:10309000F0019091F101892BB1F58091E800877FD3
:1030A0008093E8000E94E3168091EE0180930A016C
:1030B0000E94420D28C08091EC01813221F580915F
:1030C000E800877F8093E8000E94E3168091EF017B
:1030D0008093DE0118C08091EC01813AA1F48091C7
:1030E000E800877F8093E8008091E80080FFFCCFB4
:1030F0008091DE018093F1008091E8008E778093CB
:10310000E8000E94E3168091E80083FFE5C180910A
:10311000EC019091ED01492F50E04A30510508F043
:10312000DBC1FA01E959FF4F0C94BB1C803821F038
:10313000823809F0D1C108C08091E8019091E9017D
:10314000992389F082600FC08091F0018F708530E3
:1031500008F0C2C18093E9008091EB0085FB8827CD
:1031600080F91092E9009091E800977F9093E80031
:103170008093F1001092F10078C1282F2D7F09F083
:10318000ABC1882319F0823061F0A6C18091EE01B5
:10319000813009F0A1C1933009F080E08093E9010A
:1031A0002EC08091EE0181112AC08091F0018F70B4
:1031B0002FEF280F243008F08FC18093E900209171
:1031C000EB0020FF1CC0933021F48091EB00806263
:1031D00014C09091EB0090619093EB0021E030E0FF
:1031E000A90102C0440F551F8A95E2F74093EA00F7
:1031F0001092EA008091EB0088608093EB001092BF
:10320000E9008091E800877F8093E8000E94E31640
:1032100063C1811161C11091EE011F778091E300BC
:103220008078812B8093E3008091E800877F8093F2
:10323000E8000E94E3168091E80080FFFCCF8091B7
:10324000E30080688093E300111102C082E001C0B6
:1032500083E08093EA0140C18058823008F03CC18D
:103260002091EE013091EF012C3D53E0350779F5C7
:1032700083E08A838AE289834FB7F894DE0113964C
:1032800020E03EE051E2E32FF0E050935700E4915C
:1032900020FF03C0E295EF703F5FEF708E2F90E04C
:1032A000EA3010F0C79601C0C0968D939D932F5FB2
:1032B000243149F74FBF8091E800877F8093E80071
:1032C0006AE270E0CE0101960E94820DBCC080913E
:1032D000F0019091F101432F552743305105B1F092
:1032E00068F44130510509F406C14230510509F036
:1032F000F3C08BE590E0E6EEF2E057C041325105B5
:1033000089F14232510509F43CC0E6C0C901992750
:1033100081309105B9F070F082309105D9F00397B2
:1033200009F0DAC0E3E5F3E0E4918E2F90E0E3E505
:10333000F3E038C0E7E7F3E0E4918E2F90E0E7E7B1
:10334000F3E030C0E7E6F3E0E4918E2F90E0E7E6AB
:10335000F3E028C0E9E5F3E0E4918E2F90E0E9E5A1
:10336000F3E020C08330910508F0B6C0880F991FA4
:10337000FC01E25EFE4F0190F081E02D89E090E0DB
:1033800014C08330910508F0A7C0FC01EE0FFF1FA9
:10339000E85EFE4F0190F081E02DDC01AB5EBE4F98
:1033A0008C9190E0009709F497C02091E800277F66
:1033B0002093E8002091F2013091F301281739079A
:1033C00008F4C90140E0009769F12091EA01222345
:1033D000D1F12530C1F12091E80023FD34C02091C6
:1033E000E80022FD2CC02091E80020FFECCF2091C6
:1033F000F20030E0009759F02830310540F4449154
:103400004093F100319601972F5F3F4FF3CF41E09A
:103410002830310509F040E02091E8002E77209314
:10342000E800D1CF4111D1CF0AC08091EA018823B1
:1034300051F0853041F08091E80083FD04C0809117
:10344000E80082FFF2CF8091E8008B778093E8005C
:1034500043C0803809F040C08091E800877F8093A6
:10346000E8008091EB018093F1008091E8008E7775
:10347000CBCE811131C08091EE019091EF0199275F
:10348000029754F58091E800877F8093E8001091BF
:10349000EE011093EB010E94E316111106C080911A
:1034A000E30087FD02C081E001C084E08093EA016F
:1034B00042E061EC81E00E947F1742E261EC84E02F
:1034C0000E947F1742E261EC82E00E947F1742E295
:1034D00060EC83E00E947F178091E80083FF10C0BA
:1034E0008091E800877F8093E8008091EB00806204
:1034F0008093EB0005C082E190E0E1E4F3E055CF7A
:10350000AA960FB6F894DEBF0FBECDBFDF91CF9164
:103510001F9108951F920F920FB60F9211242F93AF
:103520003F934F935F936F937F938F939F93AF934B
:10353000BF93CF93DF93EF93FF93C091E900CF70D8
:103540008091EC00D82FD17080FDD0E81092E90076
:103550008091F000877F8093F00078940E94B417E8
:103560001092E9008091F00088608093F000CD2BEC
:10357000CF70C093E900FF91EF91DF91CF91BF91A0
:10358000AF919F918F917F916F915F914F913F91FB
:103590002F910F900FBE0F901F9018951F920F92B2
:1035A0000FB60F9211242F933F934F935F936F9316
:1035B0007F938F939F93AF93BF93EF93FF938091EC
:1035C000E10082FF09C08091E20082FF05C0809186
:1035D000E1008B7F8093E1008091E10080FF17C0C4
:1035E0008091E20080FF13C08091E2008E7F809383
:1035F000E2008091E20080618093E2008091D80037
:1036000080628093D80019BC85E08093EA018091A4
:10361000E10084FF2EC08091E20084FF2AC084E094
:1036200089BD86E089BD09B400FEFDCF8091D80038
:103630008F7D8093D8008091E1008F7E8093E100A0
:103640008091E2008F7E8093E2008091E2008160B1
:103650008093E2008091EB01882311F084E007C0A1
:103660008091E30087FD02C081E001C083E0809388
:10367000EA018091E10083FF27C08091E20083FF8F
:1036800023C08091E100877F8093E10082E08093F6
:10369000EA011092EB018091E1008E7F8093E100BE
:1036A0008091E2008E7F8093E2008091E200806151
:1036B0008093E20042E060E080E00E947F1780910A
:1036C000F00088608093F000FF91EF91BF91AF917F
:1036D0009F918F917F916F915F914F913F912F912A
:1036E0000F900FBE0F901F901895882309F453C0B8
:1036F000682F823869F40E94A91281FF4CC069E3E7
:103700008AE591E00E94A8080E94500969E30EC072
:10371000833891F40E94A91280FF3DC063E58AE5D9
:1037200091E00E94A8080E94500963E58AE591E0B3
:103730000E949B080C945009843869F40E94A912D5
:1037400082FF29C067E48AE591E00E94A8080E94F0
:10375000500967E4EBCF8CEF860F813A38F380E2B3
:10376000860F883048F4677081E001C0880F6A9541
:10377000EAF70E944909DECF8BE5860F833020F4FB
:1037800080E090E00C949312685A673120F480E056
:1037900090E00C947D120895CF93882309F496C08D
:1037A000C82F8238B1F40E94A91281FD8FC069E34D
:1037B0008AE591E00E94A8080E9450092FEF81EE4F
:1037C00094E0215080409040E1F700C0000069E3A0
:1037D00017C08338E1F40E94A91280FD77C063E529
:1037E0008AE591E00E94A8080E9450092FEF81EE1F
:1037F00094E0215080409040E1F700C0000063E574
:103800008AE591E00E949B08CF910C94500984387E
:10381000B1F40E94A91282FD59C067E48AE591E0E3
:103820000E94A8080E9450092FEF81EE94E02150D9
:1038300080409040E1F700C0000067E4E1CF8CEFEA
:103840008C0F813A80F4ECE5F1E082E691E0219181
:10385000C217A1F18E179F07D1F76C2F8AE591E06F
:103860000E94A808D1CF80E28C0F883068F4C7701E
:1038700081E090E001C0880FCA95EAF79091AF010E
:10388000892B8093AF01C0CFEBE5EC0FE33040F420
:10389000F0E0EC5DFE4F808190E0CF910C949312AC
:1038A000C85AC73198F4EC2FF0E0EE0FFF1FE95D26
:1038B000FE4F80819181CF910C947D126C2F8AE50F
:1038C00091E00E949B080E945009C7CFCF910895B4
:1038D000F999FECF92BD81BDF89A992780B50895D8
:1038E000A8E1B0E042E050E00C949C1C262FF9992E
:1038F000FECF92BD81BDF89A019700B4021639F04F
:103900001FBA20BD0FB6F894FA9AF99A0FBE08951F
:103910000396272F0E94771C0E94761C252F0E9459
:10392000771C242F0C94771C0196272F0E94771C5C
:103930000C94761CDC01CB01FC01F999FECF06C08A
:10394000F2BDE1BDF89A319600B40D92415050405D
:10395000B8F708950024552704C0080E591F880F92
:10396000991F009729F076956795B8F37105B9F717
:10397000802D952F0895EE0FFF1F0590F491E02DF7
:103980000994692796276927782787277827089534
:04399000F894FFCFD9
:10399400B907BE07B8077E0D7A0D016465666737FF
:1039A4003630969594402232A60284025202F802DE
:1039B40011033103818283E200E900EA00B500B615
:1039C40000B700CD008301CC008A0192019401214B
:1039D40002230224022502260227022A02B300B48B
:0639E400006F00700000FE
:00000001FF
