:100000000C94EA000C9431010C9431010C943101F0
:100010000C9431010C9431010C9431010C94310198
:100020000C9431010C9431010C9431010C9407199A
:100030000C94B6190C9480140C9431010C94310179
:100040000C9431010C9431010C9431010C94D914AD
:100050000C9431010C9431010C9431010C94310158
:100060000C9431010C9431010C9431010C94310148
:100070000C943101390A390A6B0A6B0ACA0A130C4B
:10008000130C130CE80A810B920B920BB10CB10C00
:10009000C30CC30CBA0CC30CC30CC30CB10CB10C15
:1000A000BF0CC30CC30CBF0C231A4A1A421B4A1ABA
:1000B000421B961AB91A421B101B1F1B29002B004A
:1000C0002E002A0053005400550056005F006000C7
:1000D000610057005C005D005E00000059005A009E
:1000E0005B00580062000000630000000403300061
:1000F00000000C036E00740032003100300000007C
:100100000E034500760079006400310033000000E2
:100110000403090409023B00020100A0FA090400DB
:100120000001030101000921110100012240000723
:1001300005810308000A0904010001030000000909
:1001400021110100012232000705820320000A125A
:100150000110010000000805473FCC010001020327
:100160000105010980A101850319012AB7001501C4
:1001700026B700950175108100C0050C0901A10189
:10018000850419012AA002150126A0029501751007
:100190008100C005010906A101050719E029E7153D
:1001A00000250195087501810295017508810105F9
:1001B00007190029FF150026FF0095067508810024
:1001C0000508190129059505750191029501750329
:1001D0009101C00011241FBECFEFD4E0DEBFCDBF20
:1001E00004B603FE27C08091250290912602A091BB
:1001F0002702B09128028730904BA740B04BD1F432
:1002000010922502109226021092270210922802C4
:1002100014BE84B7877F84BF0FB6F894A8958091E9
:100220006000886180936000109260000FBEE0E083
:10023000F8E3099511E0A0E0B1E0E2EAF7E302C0DB
:1002400005900D92AA37B107D9F722E0AAE7B1E0ED
:1002500001C01D92A532B207E1F70E9459160C9415
:10026000CF1B0C94000081E0089581E008950C9468
:10027000350108950C9439011F93CF93DF9300D07B
:1002800000D01F92CDB7DEB749835A836B8330917C
:10029000980189819A81311114C0662359F0222373
:1002A00049F00E947411182F682F89819A810E9449
:1002B0001A1103C00E944811182F69817A81812F79
:1002C00004C00E94741169817A810F900F900F9081
:1002D0000F900F90DF91CF911F910C941202FC01AF
:1002E000262F408151816281738184810C943C016D
:1002F000CF93DF93EC0160E00E946F01BE01DF91BC
:10030000CF910C943A010E940F040E9406020C94B3
:1003100049040C94450408950E949F0C0E948B018F
:100320002FEF84E39CE0215080409040E1F700C033
:1003300000000C94FF140F931F93CF93DF93EC01F5
:100340008B010E9437018823F1F1B801CE010E9490
:10035000BE058823C1F1B801CE010E941006882392
:1003600091F1B801CE010E943B07882361F1F801A9
:100370008281882309F1CB358DE5D807C1F050F48F
:10038000C115FCE5DF0781F0CF3DDC45A9F40E94F3
:10039000D71319C0CC35EDE5DE0761F0CD35DD456D
:1003A00059F40E942F1208C00E948C010CC00E94B8
:1003B000381202C00E943B12C801DF91CF911F91F9
:1003C0000F910C94330180E0DF91CF911F910F9139
:1003D0000895CF93DF93EC0161E00E946F01BE01AD
:1003E000DF91CF910C949B0108950C94F40181E06E
:1003F0000895CF93C82F0E94F701882329F0C0FFEA
:1004000002C02C9A01C02C98CF910895249A2C9860
:100410000895CF93C82F0E94F5018C2F0E94F901F7
:10042000CF9108959B0190E066E070E00E94761BFA
:10043000830F911DFC01EE0FFF1FEE0FFF1FE20F58
:10044000F11DEE0FFF1FE454FF4F85919491089525
:10045000CF93DF930E9412020E942003EC018115CA
:100460009245F0F5C11581E5D80708F0AEC0C83E49
:10047000D10528F5C03ED10508F0DEC0C83AD10547
:1004800078F4C53AD10508F076C0C130D10509F439
:10049000D3C008F4CFC0C430D10508F0CDC0CAC065
:1004A000CF3BD10508F0C6C0C85AD0E0CC0FDD1F45
:1004B000C35FDE4F0990D881C02DD464BDC0C11583
:1004C00090E5D90708F062C0C11520E4D20708F012
:1004D0005AC0CE019A9581159F4108F4ADC0AAC0BB
:1004E000C11586E5D80728F5C11595E5D90708F0A7
:1004F00087C0C11524E5D20708F07DC09E01237096
:1005000033278C2F86958695C115D34508F062C098
:10051000C1E0D0E002C0CC0FDD1F2A95E2F790E0E9
:1005200075E0880F991F7A95E1F7C82BD92BDC6805
:1005300083C0C1152AE5D20778F4C11589E5D8072B
:1005400008F068C0C11598E5D90708F473C0DC2F1E
:10055000CC27C06FD06A70C0CE01905681159042F2
:1005600008F068C08D2F8F710E94B403DD27D06220
:100570008F71D82B61C0C55AD0E0C55CDE4FC881F1
:10058000D0E0D06459C0DF70D06A56C0CE01F4E02C
:1005900096958795FA95E1F7282F23703C2F3370B5
:1005A00081E090E002C0880F991F3A95E2F79C68BD
:1005B000922BCF70C695C695D0E0A5E0CC0FDD1F7D
:1005C000AA95E1F7C82BD92B37C0DC2FCC27C16FF8
:1005D000D06A32C0C1E0D0E002C0CC0FDD1F2A9546
:1005E000E2F790E065E0880F991F6A95E1F7C82B64
:1005F000D92BDA6821C0DC2FCC27C46FD06A1CC08D
:100600008C2F0E94B4038F71C82FD0E0DC2FCC2731
:10061000D06212C08C2F8F700E94B40394E0D695E4
:10062000C7959A95E1F7CF70D0E0DC2FCC27D06941
:10063000C82B02C0C0E0D0E0CE01DF91CF91089579
:100640008238910569F1B0F48133910509F46DC0E8
:1006500048F48932910509F463C08A32910509F49E
:1006600069C008958533910509F455C08933910512
:10067000B9F00895833E910569F138F4803E910503
:10068000B1F0823E910509F10895863E9105A9F1E8
:10069000873E9105B9F1843E910509F064C023C0FD
:1006A0002091060220FD4FC021FD4DC0089580918C
:1006B000060280FD44C08091070280FF44C0809103
:1006C000060284FD42C083EE4DC08091060282FF87
:1006D00038C0F5CF8091060282FD33C080910702B9
:1006E00080FD31C0ECCF8091070281FF32C0809144
:1006F000060284FD2AC087EE35C08091060283FF82
:1007000026C0F5CF8091060283FD21C080910702AB
:1007100081FD1FC0ECCF8091060285FD1CC01DC06D
:100720008091060285FD19C016C08091060286FDE3
:1007300016C017C08091060286FD13C010C089E361
:1007400011C082EE0FC080EE0DC080E00BC086EEBF
:1007500009C084EE07C089E205C085E303C08AE2D0
:1007600001C081E390E008959091060292FF0DC0D0
:10077000282F2871283019F4877F846006C0282F1D
:100780002471243011F48B7F886093FF0DC0282FD3
:100790002871283119F4877E846106C0282F2471BE
:1007A000243111F48B7E88612091070220FF0DC057
:1007B000382F3871383019F4877F816006C0382FA0
:1007C0003171313011F48E7F886021FF0DC0282FE8
:1007D0002871283119F4877E816106C0282F217184
:1007E000213111F48E7E886194FD877E08950C94EA
:1007F00029130E948F048FE39CE90197F1F700C051
:1008000000000E948F0480E00E94330480FF04C037
:100810000E94F7030C94FF1408950C94F9030E94AE
:100820002F13811102C00E94D7130E943A138093A4
:10083000FA010E94421390930702809306020E94DD
:100840000D040E943E13682F70E080E090E00E944B
:100850001C106091E0017091E1018091E2019091A2
:10086000E3010C945410E82FF0E0E25FFD4F80812B
:100870000895089580EA8A95F1F7089500C00895D3
:100880000C943A0408950C9442040C9443040C9480
:1008900042040C944704F894E82FE295EF70F0E0DE
:1008A00031A1282F2F7081E090E001C0880F2A9598
:1008B000EAF7982F9095932391A392A1892B82A375
:1008C000789408950F931F93CF93DF93C2E4D1E000
:1008D00008E411E089910E944B040C171D07D1F721
:1008E00080E30E944B0486E90E944B0485E90E9444
:1008F0004B0484E90E944B04E8E0F2E0AEE0B2E091
:1009000011921D9282E0EE30F807D1F786E00E9446
:100910001405DF91CF911F910F910C9483018F9259
:100920009F92AF92BF92CF92DF92EF92FF920F937E
:100930001F93CF93DF9382E4A82E81E0B82EC8E006
:10094000D2E098E4E92E91E0F92E912C01E010E03C
:100950006501F5018081F894E82FE295EF70F0E0F1
:1009600021A18F70A80102C0440F551F8A95E2F79C
:10097000CA01922F982B91A392A18095892382A3DB
:1009800078940E943E04EEE3F1E020E030E0812C18
:100990004191A42FA295AF70B0E090968C9190E019
:1009A0004F7002C0959587954A95E2F780FD07C084
:1009B000802F022E01C0880F0A94EAF701C080E060
:1009C000882A2F5F3F4F2430310511F75FEFA51ABA
:1009D000B50AF60180810E944B040E944004888180
:1009E000881619F0888281E001C080E0982A21965B
:1009F000EA14FB0409F0ACCF292D46E06EE072E06A
:100A000088E092E00E9415050E948901892DDF91FE
:100A1000CF911F910F91FF90EF90DF90CF90BF90FB
:100A2000AF909F908F9008950895FF920F931F931A
:100A3000CF93DF938C01F62ED72FC42F222349F0BA
:100A400081E080937E010E94B21490937D01809397
:100A50007C0180917E018823C1F080917C0190917E
:100A60007D010E94CA14069780F0EF2DFD2FD8015A
:100A70004C2F50E0CD01801B910B841795071CF47F
:100A80008D918193F7CF10927E01DF91CF911F91CD
:100A90000F91FF9008950F931F93CF93DF93C42F6F
:100AA000D22FFC0182818823C9F0409381010E94EA
:100AB000B2149093800180937F0180E28C0F883084
:100AC00008F057C0C77081E001C0880FCA95EAF7E7
:100AD000DF91CF911F910F910C94F40980918101C6
:100AE000481330C080917F01909180010E94CA1408
:100AF000883C910538F510E21D0FCD17B9F080E262
:100B00008C0F883040F4C77081E001C0880FCA950F
:100B1000EAF70E94FB09183028F581E09D2F9770B5
:100B200001C0880F9A95EAF70E94F409802F0E946D
:100B3000EB091830F0F4D77081E001C0880FDA9526
:100B4000EAF70AC080E28C0F883098F4C77081E021
:100B500001C0880FCA95EAF7DF91CF911F910F91DD
:100B60000C94FB09802FDF91CF911F910F910C9472
:100B7000EB09DF91CF911F910F9108950F939C0185
:100B8000CB01243F4CE5340731F188F4293DFCE5E5
:100B90003F07D9F02A3D4CE5340779F1283D3C4523
:100BA000A9F506E221EE41EE68ED7CE52BC0263F7B
:100BB000FCE53F07E1F0A8F0273F3C4539F507E2A7
:100BC00025EE46EE67EF7CE51DC007E225EE45EE1B
:100BD00069ED7CE517C006E221EE40EE64EF7CE5AE
:100BE00011C007E225EE44EE65EF7CE50BC006E29E
:100BF00021EE42EE66EF7CE505C008E221E045EE1D
:100C00006AED7CE50E944B0580E008C0FC01828112
:100C1000882319F01092810101C081E00F9108959D
:100C2000CF93DF93EC01FB018281882309F41FC17C
:100C3000C230FCE5DF0708F41BC1C6319CE5D907CB
:100C400038F09E012B5F3C452930310508F010C17A
:100C50000E9442139093070280930602C031ECE594
:100C6000DE0709F4C3C008F041C0C8308CE5D807DE
:100C700009F49AC0F0F4C430ECE5DE0709F487C04B
:100C800068F4C2308CE5D80709F477C0C330DC457E
:100C900009F0E3C080910602826076C0C630ECE5C0
:100CA000DE0709F46EC008F07BC080910602886000
:100CB0006BC0CC308CE5D80709F485C068F4CA3025
:100CC000ECE5DE0709F474C008F079C00E949F0CBF
:100CD00080910602806858C0CE308CE5D80709F4B0
:100CE00076C008F07FC0809106028BC0CC3FECE557
:100CF000DE0709F44FC018F5C3318CE5D80709F4B5
:100D00007DC078F4C131ECE5DE0709F473C0C2316F
:100D1000DC4509F0A2C00E949F0C809106028F77EB
:100D200033C0C5318CE5D80709F472C008F486C019
:100D3000CB3FDC4509F091C0809107023EC0C11550
:100D4000FDE5DF0709F45FC058F4CE3F9CE5D90705
:100D500009F444C008F43FC08091070282602DC0AE
:100D6000C230FDE5DF0709F475C008F45DC0C3308B
:100D7000DD4509F072C080E06EC08091060281609E
:100D800003C08091060280618093060266C0809154
:100D9000060211C0809107028260809307025DC045
:100DA000809106028062F0CF809106028064ECCFD1
:100DB0008091060288608460E7CF8160EECF8091E9
:100DC00006028E7FE1CF809106028D7FDDCF80917C
:100DD0000602877FD9CF8091070218C08091070251
:100DE0008D7FDBCF809106028F7ECECF8091060271
:100DF0008F7DCACF809106028F7BC6CF809106027D
:100E0000877F8B7FC1CF809107028D7F8E7FC5CF7B
:100E10008091060282FB222720F991E0922790FB25
:100E200082F990FB83F9B0CF80910702982F9095BB
:100E300091708E7F892B90FB81F9AFCF0E949F0C20
:100E40008091060287FB222720F991E0922790FBF0
:100E500087F99ACF81E00E94D91380910602909180
:100E600007020E9453130E949F0C80E001C081E0A2
:100E7000DF91CF910895CF93DF9386319C4541F563
:100E8000EB010E943E12982F8A812091000130913F
:100E90000101882379F09A7A81E009F480E0809357
:100EA0008201911102C069E201C065E3C9010E949B
:100EB00020140AC080918201811102C069E201C040
:100EC00065E3C9010E9422140E94921280E001C0D1
:100ED00081E0DF91CF9108959093880180938701FD
:100EE0000895E0918701F0918801309721F00190F9
:100EF000F081E02D099480E00895E0918701F09160
:100F00008801309721F00280F381E02D0994089543
:100F100020918501309186012817390771F090934F
:100F2000860180938501E0918701F09188013097D7
:100F300021F00680F781E02D099408952091830126
:100F4000309184012817390771F0909384018093C0
:100F50008301E0918701F0918801309721F00084AE
:100F6000F185E02D099408950E94BE1460939401C8
:100F700070939501809396019093970160939001EF
:100F8000709391018093920190939301089581E071
:100F900008950C94C70708950C94CB070C94CB07C5
:100FA0000C94CE070C94CB070C94D2070C94CB076F
:100FB00087E293E10E9423150E94D6070C94D40780
:100FC0000E94CC070C94CB070E94A9140E946204D3
:100FD0000C94D0079F92AF92BF92CF92DF92EF9284
:100FE000FF920F931F93CF93DF93CDB7DEB72A976E
:100FF0000FB6F894DEBF0FBECDBF0E948F048111E3
:101000000E94B4078AE8A82E81E0B82E00E010E024
:10101000902E802F0E943304D82EF501C1905F01DD
:10102000C826B1F40F5F1F4F0630110589F78FEF07
:1010300089838A831B820E94B2148160782F9D83EA
:101040008C8349815A816B818D810E9486082FC0D3
:101050008091FA0181FD0E943904E12CFF24F39470
:101060008C2D8F21F1F00E94C907882399F0EE8220
:101070009F82DF2081E009F480E088870E94B2141B
:101080008160782F9A8789874E815F8168858A85FC
:101090000E948608F801E657FE4F8081F826F0820C
:1010A00006C0E394FF0CF4E0EF12DACFBBCF0E944E
:1010B0007107909189018917B9F00E947107809397
:1010C00089012A960FB6F894DEBF0FBECDBFDF911F
:1010D000CF911F910F91FF90EF90DF90CF90BF9035
:1010E000AF909F900C9409022A960FB6F894DEBF39
:1010F0000FBECDBFDF91CF911F910F91FF90EF9069
:10110000DF90CF90BF90AF909F900895CF92DF92E5
:10111000FF920F931F93CF93DF93CDB7DEB72B973B
:101120000FB6F894DEBF0FBECDBF7A878B87F42E43
:10113000052F162FCA84DB8461110E945E12FE0106
:10114000319686E0DF011D928A95E9F7F9820A83DC
:101150001B83DD82CC820E940012882319F082E07A
:101160000E940A130E94E71181110E948412498192
:101170005A816B817C818D819E810E94570F2B96B5
:101180000FB6F894DEBF0FBECDBFDF91CF911F9198
:101190000F91FF90DF90CF900895FC0180819181A5
:1011A0000E94B6110895CF93882309F49CC0C82FDC
:1011B0008238C1F40E94710781FD95C069E3809176
:1011C0000001909101010E9420140E9492122FEFC1
:1011D00081EE94E0215080409040E1F700C0000093
:1011E00069E319C0833801F50E94710780FD7BC057
:1011F00063E580910001909101010E9420140E94FA
:1012000092122FEF81EE94E0215080409040E1F760
:1012100000C0000063E580910001909101010E94EF
:101220002214CF910C9492128438C1F40E94710759
:1012300082FD59C067E480910001909101010E94F4
:1012400020140E9492122FEF81EE94E021508040F2
:101250009040E1F700C0000067E4DDCF8CEF8C0F19
:10126000813AD0F46C2F80910001909101010E948D
:10127000EA13882349F06C2F8091000190910101BD
:101280000E9422140E9492126C2F80910001909172
:1012900001010E942014C5CF80E28C0F883048F4F1
:1012A000C77081E001C0880FCA95EAF70E94411219
:1012B000B8CFEBE5EC0FE33040F4F0E0EA58FE4F36
:1012C000808190E0CF910C948807C85AC73158F4B8
:1012D000EC2FF0E0EE0FFF1FE85BFE4F8081918165
:1012E000CF910C949E07CF910895882309F45BC099
:1012F000682F823879F40E94710781FF54C069E336
:1013000080910001909101010E9420140E9492128C
:1013100069E310C08338B1F40E94710780FF43C0B5
:1013200063E580910001909101010E9420140E94C8
:10133000921263E580910001909101010E942214B4
:101340000C949212843879F40E94710782FF2BC0AA
:1013500067E480910001909101010E9420140E9495
:10136000921267E4E7CF8CEF860F813A18F380E2A0
:10137000860F883048F4677081E001C0880F6A9555
:10138000EAF70E944712DCCF8BE5860F833020F40A
:1013900080E090E00C948807685A673120F480E080
:1013A00090E00C949E0708951F93CF93DF93182F1E
:1013B000EB010E94D308209741F08FE99FE001974D
:1013C000F1F700C000002197F6CF812FDF91CF9178
:1013D0001F910C947509893319F06AE070E002C01E
:1013E00060E570E00C94D409882321F00E9441123A
:1013F0000C9492120895882321F00E9447120C94B5
:1014000092120895CF92DF92EF92FF920F931F9363
:10141000CF93DF937C01D62FC72FFC01028115816A
:1014200012951F700E941612882399F0002389F0EC
:101430008C2F807F803421F080E28D0F883048F03F
:1014400082E00E940A130E94161291E0D82ED9263B
:1014500001C0D12CCC2EC2948FE0C8228C2D90E0FC
:101460008C30910508F0DFC1FC01E65CFF4F0C9465
:10147000871B8C2F807FCF70882311F0C295C07F8F
:10148000002399F0CC2309F4B4C180E28D0F883099
:1014900010F0D11104C08C2F0E94411203C08C2F78
:1014A0000E9451120E949212A4C18D2F0E947509B0
:1014B000CC2309F4B8C180E28D0F883010F0D1112F
:1014C00004C08C2F0E94471203C08C2F0E94571219
:1014D0000E949212A8C18C2F807FCF70803211F0B1
:1014E000C295C07FDD2319F0D13059F134C00023FB
:1014F000B1F0112381F0113031F40E9464128C2B71
:101500000E946C1290C1153031F40E9484128C2F0D
:101510000E94D0122AC00E9464128C2B27C0112373
:1015200069F0113041F40E943E128C2309F47BC112
:101530000E94D91203C0153009F475C10E948412AB
:1015400025C0002321F0163008F06DC10EC0153003
:1015500008F069C11BC0002361F0112331F0F701CD
:10156000858180FF46C18F7085838C2F0E94F4098E
:101570005AC1112359F0D93309F04CC1FFEF07EEDE
:1015800013E0F15000401040E1F748C18C2F0E9459
:10159000FB0949C18C2F86958695837019F081309F
:1015A00061F041C1002321F08D2F9C2F937002C068
:1015B00080E090E00E9488073EC1002321F08D2F3B
:1015C0009C2F937002C080E090E00E949E0733C180
:1015D0008C2F837009F047C0011129C12D2F22954E
:1015E00026952770220F220F6D2F6F70862F90E0A7
:1015F000A0E0B0E0022E04C0880F991FAA1FBB1FF5
:101600000A94D2F7D4FF10C04FE050E060E070E0E1
:1016100004C0440F551F661F771F2A95D2F74095C7
:1016200050956095709503C040E050E0BA01C695B2
:10163000C695C3708A019B01082B192B2A2B3B2BC3
:10164000C901B801C23049F058F4C13019F00E9404
:101650003010EDC00E941E10EAC00E944210E7C088
:101660000E941C10E4C0002319F08C2F817001C06F
:101670008695882309F4DBC02D2F229526952770A7
:10168000220F220F6D2F6F70862F90E0A0E0B0E048
:10169000022E04C0880F991FAA1FBB1F0A94D2F7FD
:1016A000D4FF10C04FE050E060E070E004C0440F91
:1016B000551F661F771F2A95D2F740955095609564
:1016C000709503C040E050E0BA01C695C695C3705E
:1016D0008A019B01082B192B2A2B3B2BC901B8012E
:1016E000C23049F058F4C13019F00E94F5109FC083
:1016F0000E94E3109CC00E94071199C00E945610DE
:1017000096C0CF70002339F08C2F0E947C108D2F53
:101710000E94F4098CC08D2F0E94FB098C2F0E941F
:101720009D1085C0D23F01F128F4D03F41F0D13F58
:10173000A1F05AC0D33FF9F0D43F39F155C000238E
:1017400041F0153008F06FC08C2F8F710E94C210CD
:101750006AC0163008F067C0F7CF002339F08C2F2D
:101760008F710E947C105FC00023C9F38C2F8F7192
:101770000E949D1058C0002329F08C2F8F710E9469
:10178000671051C00E9462104EC00023C9F00E9431
:10179000E4110E9447120E94FC11843039F40E9427
:1017A00001138C2F8F710E949D1060C0153008F0BE
:1017B0005DC0CF718C2F0E947C1063E08C2F0DC018
:1017C0000E94E4110E944112153050F00E94011352
:1017D0000E94D91264E08C2F8F710E94E51246C0DE
:1017E00081E00E940A1342C0002339F0112309F45A
:1017F000B6CF8D2F0E94D30816C0112309F4B6CF9F
:10180000D93341F41FEF27EE33E011502040304030
:10181000E1F704C08FE39CE90197F1F700C00000F5
:101820008D2F0E94750988EF8C0D843020F40E9462
:1018300071070E940902DD20D9F00E94FC1180FD91
:1018400017C0F70112820E94F6110E947C10C70196
:101850000E94590C0E94F611DF91CF911F910F91B8
:10186000FF90EF90DF90CF900C949D10D12CDFCFA4
:10187000DF91CF911F910F91FF90EF90DF90CF906C
:1018800008950F931F93CF93DF93EC0168817981C3
:101890008A810E94C1118C010E9419110E940A10B4
:1018A000B801CE010E94020ADF91CF911F910F91E2
:1018B0000895CF93DF93EC01988189812B813C813E
:1018C000232B31F08F3F31F481E09F3F19F403C0A7
:1018D00081E001C080E080FD19C0CE010E94E901D5
:1018E00081110CC00E941612882381F08A818823FE
:1018F00069F082E0DF91CF910C940A13CE010E942F
:10190000410CCE01DF91CF910C947801DF91CF9102
:10191000089580E090E00E94880780E090E00E94B7
:101920009E070E945E120E9461120C949212809196
:101930000001909101010E9424140C94890C0E94D2
:101940004E120C94970CE92FE295EF704E2F50E059
:10195000FA013297EE30F105B0F4EA5BFF4F0C94D8
:10196000871B803F91F018F4883E68F40EC0843FD6
:1019700051F40BC0883E48F0813F29F406C093FB28
:10198000882780F9089580E0089581E008950E94F5
:10199000B6110E94A30C0895CF93DF9300D000D01E
:1019A0001F92CDB7DEB70F900F900F900F900F9052
:1019B000DF91CF910895CF93DF9300D000D000D076
:1019C000CDB7DEB726960FB6F894DEBF0FBECDBFFB
:1019D000DF91CF910895CF93DF93C09199018091CA
:1019E0009A01C817A1F0D0E0CE0166E070E00E9435
:1019F000761BFC01E556FE4F408151816281738167
:101A0000848195810E94DB0C2196C770E8CFDF911D
:101A1000CF9108954091CB015091CC016091CD01BF
:101A20007091CE018091CF019091D0010C94DB0C8C
:101A30001F93CF93DF938091D00182958F7009F02F
:101A40005CC08091CD01882309F457C02091990191
:101A500010919A01C091CB01D091CC01A091CE01FF
:101A6000B091CF0181E0CF3F09F080E0482F2117EE
:101A700009F443C0109721F0DF3F21F080E003C05C
:101A800081E001C0842F30E080FD33C0C90166E0F1
:101A900070E00E94761BFC01E556FE4F81818D139C
:101AA00028C080818C1325C08281811122C083814E
:101AB00094818A1B9B0B883C9105D8F48091D001BE
:101AC0008F7080618093D001C90166E070E00E9450
:101AD000761BFC01E056FE4F90819F7090619083D1
:101AE0008BEC91E00E94590CDF91CF911F910C94E7
:101AF000EB0C2F5F3F4F2770BACFDF91CF911F9133
:101B000008959F92AF92BF92CF92DF92EF92FF9291
:101B10000F931F93CF93DF93CDB7DEB761970FB6C7
:101B2000F894DEBF0FBECDBF8C0185E0F801DE0169
:101B30001D9601900D928A95E1F7F801408121816F
:101B4000E2809091CB013091CC016091CE017091F7
:101B5000CF016115710531F03F3F31F481E09F3FC6
:101B600019F403C081E001C080E0F82FF1709F2ECE
:101B700080FD4AC1F801A380B4808BECC82E81E0BF
:101B8000D82EF090CD01F501E61BF70BFF2009F4EC
:101B9000E2C08091D001582F507FE83CF10508F059
:101BA0009CC0511155C0231313C0491311C0FE2C02
:101BB000E1100EC08F7080618093D0010E940A0DE9
:101BC000C6010E94590C8091D001F80185835CC147
:101BD000AB2831F02F3F31F481E04F3F19F403C0BF
:101BE00081E001C080E080FD03C081E08E2502C05D
:101BF00080E090E0F82FF170FF2E80FF1FC0E09191
:101C0000990130919A01E31709F41CC1F0E0CF016A
:101C100066E070E00E94761BDC01A556BE4F11966F
:101C20008C911197281307C08C91481304C0129609
:101C30008C91E81203C03196E770E5CFFE2CEE20C0
:101C400009F422C18091D00181608093D0015AC0F3
:101C5000231306C0491304C0E11002C0F8019FC05D
:101C60004D872E878D859E850E94C70C882379F12C
:101C7000EE2069F12091D001822F82958F7090E043
:101C8000029774F08091CB019091CC0198878F835B
:101C90001986BB86AA862C87CE0107960E94590C0E
:101CA00086E0F801ABECB1E001900D928A95E1F786
:101CB0000E94180D0E940A0D0DC0231729F14D87AF
:101CC0002E878D859E850E94C70C81112CC0C8016E
:101CD0000E94590CFF24F394D7C05111EECF7A2DF6
:101CE000B98AA88A522F6E2D89890E94CC0C8BEC60
:101CF00091E00E94590C86E0F60111928A95E9F76D
:101D00000E940A0DF12CC0C04913D9CFE110D7CFE2
:101D1000F8018583C8010E94590C86E0F6011192F2
:101D20008A95E9F7B1C0EE2091F22091D001822F7F
:101D300082958F7090E002970CF4B2CF8091CB0126
:101D40009091CC019A8389831B82BD82AC822E83C1
:101D5000CE010196A3CFE83CF10508F047C0FE2C68
:101D6000EE2009F4B4CF231330C049132EC02091C4
:101D7000D00120FD21C0822F82958F70482F50E026
:101D800041155105C9F0F80125834F30510541F047
:101D90008F5F982F9295907F822F8F70892B8583EC
:101DA000C8010E94590C86E0F801ABECB1E001904B
:101DB0000D928A95E1F743C086E0F801ABECB1E003
:101DC00001900D928A95E1F75FC04D872E878D8532
:101DD0009E850E94C70C811163CF8091D0018160E4
:101DE0008093D001C8010E94590C4EC07A2DB98A47
:101DF000A88A522F6E2D89890E94CC0C86E0F601AC
:101E000011928A95E9F71BC0EE2009F460CF4D8747
:101E10002E878D859E850E94C70CF82E882309F495
:101E200056CF86E0F801ABECB1E001900D928A95B7
:101E3000E1F78BEC91E00E94CD080E94180D0E9402
:101E40000A0D22C04D872E878D859E850E94B61172
:101E5000292F22952F70223028F49F7039F081119C
:101E600005C00BC0243028F49F7049F4805E883090
:101E700020F0C8010E94590C9F2CF92C05C0F801D4
:101E80009581907F99F7F9CF8F2D61960FB6F894D1
:101E9000DEBF0FBECDBFDF91CF911F910F91FF909D
:101EA000EF90DF90CF90BF90AF909F900895CF9329
:101EB000DF93CDB7DEB72C970FB6F894DEBF0FBE19
:101EC000CDBF4F83588769877A878B879C87CE01E0
:101ED00007960E94810D8823D1F09F8188852A85ED
:101EE0003B85232B31F08F3F31F481E09F3F19F484
:101EF00003C081E001C080E080FD6FC04F81588544
:101F000069857A858B859C850E94DB0C66C086E09E
:101F1000FE013796DE01119601900D928A95E1F748
:101F2000FF81E8856A857B856115710531F0EF3F9A
:101F300031F481E0FF3F19F403C081E001C080E08B
:101F400080FD4BC080919A0190E09C012F5F3F4F34
:101F5000277033274091990150E02417350709F481
:101F600043C0F983EA837D836C8366E070E00E945E
:101F7000761BDC01A556BE4F96E0FE01319601901E
:101F80000D929A95E1F720939A010E94EB0C25C0DF
:101F900090E066E070E00E94761B85569E4F0E949E
:101FA000810D882371F18091990190E066E070E0E5
:101FB0000E94761BFC01E556FE4F408151816281F3
:101FC0007381848195810E94DB0C8091990190E05E
:101FD000019687709927809399018091990190913A
:101FE0009A018913D5CF0DC00E949F0C10929A01BF
:101FF00010929901EBECF1E086E0DF011D928A95E9
:10200000E9F72C960FB6F894DEBF0FBECDBFDF9177
:10201000CF910895089508950C940B100C940C1012
:102020000E940E106093E4017093E5018093E60135
:102030009093E7010C94890C0C9410100F931F934C
:102040000091E4011091E5012091E6013091E70152
:10205000602B712B822B932B1F910F910C941010DE
:102060000F931F930091E4011091E5012091E60187
:102070003091E70160237123822393231F910F91F5
:102080000C9410100F931F930091E4011091E5013F
:102090002091E6013091E70160277127822793277D
:1020A0001F910F910C9410100C940B100E9454105F
:1020B0006093E0017093E1018093E2019093E3016A
:1020C0000C94890C60E070E0CB010C9456100F93D7
:1020D0001F9341E050E060E070E08A019B0104C082
:1020E000000F111F221F331F8A95D2F7C901B801B3
:1020F0001F910F910C9456100F931F9341E050E0E5
:1021000060E070E004C0440F551F661F771F8A957A
:10211000D2F78091E0019091E101A091E201B091AC
:10212000E3018A019B01082B192B2A2B3B2BC901A8
:10213000B8011F910F910C9456100F931F9341E01B
:1021400050E060E070E004C0440F551F661F771F29
:102150008A95D2F740955095609570958091E001F1
:102160009091E101A091E201B091E3018A019B010C
:10217000082319232A233B23C901B8011F910F917A
:102180000C9456100F931F9341E050E060E070E014
:1021900004C0440F551F661F771F8A95D2F78091A0
:1021A000E0019091E101A091E201B091E3018A0187
:1021B0009B01082719272A273B27C901B8011F912E
:1021C0000F910C9456100F931F930091E001109102
:1021D000E1012091E2013091E301602B712B822B10
:1021E000932B1F910F910C9456100F931F930091F6
:1021F000E0011091E1012091E2013091E3016023BF
:102200007123822393231F910F910C9456100F93E7
:102210001F930091E0011091E1012091E2013091C2
:10222000E30160277127822793271F910F910C9458
:1022300056100895262F990F990F890F982F977090
:10224000A1E001C0AA0F9A95EAF786958695869532
:1022500090E065E070E00E94761BFC01EF52FE4FBB
:1022600040E050E0622F70E090819B01042E02C09C
:10227000369527950A94E2F72170219529272A237C
:10228000292721934F5F5F4F4530510569F7089526
:10229000990F990F890FA82FA77086958695869517
:1022A00090E065E070E00E94761BBC0140E050E0E9
:1022B00080E0FB01E40FF51FEF52FE4F208130E07C
:1022C0000A2E02C0369527950A94E2F7217033272B
:1022D000042E01C0220F0A94EAF7822B4F5F5F4F52
:1022E0004530510531F70895BF92CF92DF92EF92BA
:1022F000FF920F931F93CF93DF938C01C090E00167
:10230000D090E101E090E201F090E3018091E401DE
:102310009091E501A091E601B091E701C82AD92A80
:10232000EA2AFB2ACFE1D0E0D701C6010C2E04C077
:10233000B695A795979587950A94D2F780FD04C026
:10234000219790F7B12C07C0BC2EB8018C2F0E94AA
:1023500028020197A9F38B2DDF91CF911F910F9147
:10236000FF90EF90DF90CF90BF900895CF93DF93D1
:10237000EC010E947411BE010E942802DF91CF91EE
:1023800008951F93CF93DF93EB01909198019923C8
:1023900021F0CB010E94B61113C0882349F0CB0174
:1023A0000E947411182F682FCE010E941A1104C0C8
:1023B000CB010E944811182FBE01812F0E942802D4
:1023C000DF91CF911F9108958091ED0108950E94B2
:1023D000B2142091EB013091EC01821B930B9C0114
:1023E00081E02838334108F480E008958091EA01C3
:1023F00085958595859508958091EA018770089562
:102400000E94B2142091E8013091E901821B930BE4
:102410008838934140F08091EA0182FB882780F957
:1024200091E0892701C080E0817008959091EA01D0
:10243000977081E009F480E008959091070292FB83
:10244000222720F9281751F080FB92F99093070278
:1024500080910602909107020C9453130895809185
:10246000070282FB882780F991E089270C941D12CE
:1024700081E00C941D1280E00C941D128091F901F2
:1024800008959091F901892B8093F9010895809521
:102490009091F90189238093F90108951092F9012F
:1024A00008959091F801892B8093F8010895809503
:1024B0009091F80189238093F80108951092F80112
:1024C00008951092F70108958091EE0108950895FE
:1024D0000C9467120C946812CF939091070292FDAE
:1024E00011C09091EE01981769F0C82F0E94B214A4
:1024F0009093EC018093EB01C093EE018C2FCF9170
:102500000C946A12CF9108958091EE01882349F0CE
:102510001092EE011092EC011092EB0180E00C940D
:102520006A120895E0910001F09101018091F90192
:102530008083E0910001F091010190818091F80188
:10254000892B8083E0910001F091010190818091BD
:10255000F701892B80838091EE018823B9F00E94D6
:10256000E71181110E948412E0910001F0910101B4
:1025700090818091EE01892B808380910001909160
:1025800001010E94DE1381110E94841280910001DA
:10259000909101010C947D070C9467120C94CC125D
:1025A0009091ED01981721F08093ED010C94CE12DB
:1025B00008958091ED01882329F01092ED0180E0CB
:1025C0000C94CE1208950C9467129091070292FD1C
:1025D00016C0982F990F990F990F692B6093EA01F4
:1025E0000E947C100E94B2149093E9018093E8014C
:1025F0008091EA018595859585950C94E3120C945C
:102600007C101092EA011092E9011092E80180E03A
:102610000C94E3122091EA01809582238093EA01D1
:10262000982F977041F430E0482F082E000C550B7E
:102630002417350721F49091070292FF07C0859572
:10264000859585950E949D100C940113089580E056
:1026500008956FEF7FEF80E090E00C94B91B80E06D
:1026600090E00E94951B21E08A3E9E4F09F020E0F9
:10267000822F089582E090E00C948D1B83E090E01F
:102680000C948D1BCF9384E090E00E948D1BC82F8B
:1026900082E290E00E948D1B2C2F30E0A901582B84
:1026A000CA01CF910895CF93C92F682F84E090E09D
:1026B0000E949B1B6C2F82E290E0CF910C949B1B9D
:1026C000AB01BC018FE090E00C94AD1BAB01BC01F1
:1026D00083E190E00C94AD1B60E070E0CB010C94C2
:1026E000661360E070E0CB010E9460130C946C13E1
:1026F0006AEE7EEF80E090E00E94B91B60E082E02D
:1027000090E00E949B1B60E083E090E00E949B1B96
:102710001092E4011092E5011092E6011092E70197
:1027200060E084E090E00E949B1B60E082E290E029
:102730000E949B1B60E085E090E00E949B1B60E094
:1027400086E090E00E949B1B6FEF87E090E00E9484
:102750009B1B40E050E0BA0188E090E00E94AD1B76
:1027600060E08DE090E00E949B1B40E050E0BA01E9
:1027700088E190E00E94AD1B60E087E190E00E945C
:102780009B1B40E050E0BA018CE190E00E94AD1B41
:1027900060E070E080E290E00E94B91B40E050E011
:1027A000BA0188E190E00E94AD1B0C9471130C9467
:1027B0007813682F8EE090E00C949B1BFC013296FE
:1027C00097E080E0915029F021912223D9F38F5F87
:1027D000F9CF0895662349F0FC01329608962191BD
:1027E000621729F0E817F907D1F780E0089581E032
:1027F00008959C01FC0132969FEF80E041914617BD
:1028000089F09F3F19F4411101C0982F8F5F8630E6
:10281000A9F79F3F39F0F901E90FF11D97FDFA95EE
:102820006283089508959C012A5F3F4FFC01428115
:10283000461301C01282019682179307B9F70895D3
:102840000C94F9130C941314029626E0FC011192D7
:102850002A95E9F7089508950C942B140C942B14E1
:10286000CF930E942E140E948F040E942C14C0E06B
:102870008C2F0E943304811104C0CF5FC630C1F792
:1028800001C081E0CF9108950C942B140C94441452
:1028900080911C02843049F10E94461480E00E941D
:1028A00009021092FB0120E488E190E00FB6F89451
:1028B000A895809360000FBE2093600083B7817F4E
:1028C000846083BF83B7816083BF7894889583B722
:1028D0008E7F83BF0FB6F894A895809160008861C1
:1028E00080936000109260000FBE08950C942B142A
:1028F0000E949F0C0E9471070E9409020C9476149A
:102900001F920F920FB60F9211248F939F93AF9344
:10291000BF938091FB01811113C0809114029091AB
:102920001502A0911602B09117024196A11DB11D8A
:102930008093140290931502A0931602B09317028D
:10294000BF91AF919F918F910F900FBE0F901F90ED
:10295000189582E084BD93E095BD9AEF97BD809372
:102960006E0008952FB7F89480911402909115028B
:10297000A0911602B09117022FBF08952FB7F894B7
:1029800060911402709115028091160290911702C5
:102990002FBF08959C014FB7F89480911402909135
:1029A0001502A0911602B09117024FBF821B930B24
:1029B000089578941F920F920FB60F9211248F935F
:1029C0009F93AF93BF938091140290911502A091B1
:1029D0001602B09117020196A11DB11D8093140239
:1029E00090931502A0931602B0931702BF91AF9176
:1029F0009F918F910F900FBE0F901F90189581E0BF
:102A00008093E00080E28093D8001092C9008FE1AB
:102A10009EE40197F1F700C0000087E090EBDC0135
:102A20008093250290932602A0932702B093280258
:102A30009CE088E10FB6F894A895809360000FBEE3
:102A400090936000FFCF90937B0180937A0108956B
:102A50008091040208950895CF93DF9300D01F92D0
:102A6000CDB7DEB790911C02943019F589837B8332
:102A70006A8382E08093E9008FEF9091E8008150B3
:102A800095FD06C095ED9A95F1F700008111F5CFFF
:102A90008091E80085FF0DC040E050E063E070E009
:102AA000CE0101960E9419178091E8008E778093DD
:102AB000E8000F900F900F90DF91CF910895BC0127
:102AC00084E00C942C15BC0183E00C942C15CF935E
:102AD000DF9321E02093E9002FEF3091E8002150AF
:102AE00035FD06C035ED3A95F1F700002111F5CF1F
:102AF0002091E80025FF14C0EC0140E050E068E0C0
:102B000070E00E9419178091E8008E778093E800AA
:102B100088E0FE01ACEFB1E001900D928A95E1F7FB
:102B2000DF91CF91089508950895089542E061ECF2
:102B300081E00E941D1842E261EC82E00C941D18B5
:102B400080911E02833009F45CC030F4813071F052
:102B5000823009F495C008958A3009F481C08B3021
:102B600009F467C0893009F0A3C020C080911D021C
:102B7000813A09F09DC08091E800877F8093E8004A
:102B80008091210290912202892B21F468E08CEF40
:102B900091E003C060E080E090E070E00E94641784
:102BA0008091E8008B778093E800089580911D0262
:102BB000813209F07DC0809121029091220202971A
:102BC00008F076C08091E800877F8093E8008091CC
:102BD000E80082FD05C080911C028111F8CF68C019
:102BE0008091F200823029F48091F1008B7F813056
:102BF00021F48091F100809304028091E8008B77AA
:102C000053C080911D02813A09F052C08091210287
:102C100090912202892B09F04BC08091E800877FB8
:102C20008093E8008091E80080FFFCCF80910C0148
:102C300036C080911D028132D9F580912102909198
:102C40002202892BA9F58091E800877F8093E80014
:102C50000E94521880911F0280930C010C949F0CCB
:102C600080911D02813221F58091E800877F809359
:102C7000E8000E9452188091200280930502089576
:102C800080911D02813AA1F48091E800877F8093B2
:102C9000E8008091E80080FFFCCF809105028093DE
:102CA000F1008091E8008E778093E8000C94521830
:102CB000089584B7877F84BF0FB6F894A895809154
:102CC0006000886180936000109260000FBE90E009
:102CD00080E80FB6F89480936100909361000FBE76
:102CE0000E94D8070E94A4180E94F7188091E20061
:102CF00084608093E20078940E945B1B0E94E4074A
:102D000082E091E00E946C0780911C028530A9F45A
:102D100080911C02853079F40E94481480911A0237
:102D20008823B1F30E943014882391F30E94031783
:102D30000E949F0CEDCF0E9478140E94EA070E9427
:102D4000E007E2CF0C94A416292F33272330310556
:102D5000C9F060F42130310581F02230310509F0ED
:102D60004AC08BE390E024E131E049C021323105D3
:102D700011F12232310579F13EC082E190E02FE479
:102D800031E03DC099278130910561F040F08230FB
:102D9000910559F0039779F5ECEEF0E008C0E0E119
:102DA000F1E005C0E0E0F1E002C0E2EFF0E0849184
:102DB00090E09F0124C06115710541F061307105FB
:102DC000D1F489E090E02FE331E019C089E090E090
:102DD00026E231E014C06115710541F061307105E2
:102DE00051F482E390E021E631E009C080E490E014
:102DF00023E931E004C080E090E020E030E0FA0117
:102E000031832083089584E089BD86E089BD09B4BB
:102E100000FEFDCF8091D8008F7D8093D8008091F7
:102E2000E00082608093E0008091E00081FDFCCFB3
:102E30000895CF92DF92EF92FF920F931F93CF935B
:102E4000DF93EC018B017A010E947118811133C06C
:102E5000E114F10439F0F70180819181081B190B0D
:102E6000C80FD91FC12CD12C0115110519F1809162
:102E7000E80085FD16C08091E8008E778093E80019
:102E8000E114F10449F0F70180819181C80ED91E47
:102E9000D182C08285E00FC00E947118882321F37F
:102EA0000AC089918093F10001501109FFEFCF1AF8
:102EB000DF0ADACF80E0DF91CF911F910F91FF9071
:102EC000EF90DF90CF90089520912302309124025B
:102ED0002617370748F06115710539F42091E8008D
:102EE0002E772093E80001C0B901FC0120E06115B4
:102EF000710561F180911C028823D9F18530D9F1E7
:102F00008091E80083FD39C08091E80082FD2BC0EC
:102F10008091E80080FFEBCF8091F20090E0611596
:102F2000710551F08830910538F421912093F1001A
:102F3000615071090196F3CF21E0089709F020E074
:102F40008091E8008E778093E800D1CF2111D2CF15
:102F50000AC080911C02882361F0853061F0809165
:102F6000E80083FD0AC08091E80082FFF2CF80E094
:102F7000089582E0089583E0089581E00895209106
:102F80002302309124022617370748F06115710596
:102F900039F42091E8002E772093E80001C0B901B0
:102FA000FC0120E06115710579F180911C028823F4
:102FB00009F43DC0853009F43CC08091E80083FDF0
:102FC0003AC08091E80082FD2CC08091E80080FF2B
:102FD000E9CF8091F20090E06115710559F08830D9
:102FE000910540F424912093F100319661507109CC
:102FF0000196F2CF21E0089709F020E08091E800E7
:103000008E778093E800CECF2111CFCF0AC0809178
:103010001C02882361F0853061F08091E80083FD17
:103020000AC08091E80082FFF2CF80E0089582E03C
:10303000089583E0089581E00895982F953068F50C
:103040009093E900981739F07091EC002091ED0011
:103050005091F00003C0242F762F50E021FD02C0D4
:103060009F5FECCF3091EB003E7F3093EB003091CF
:10307000ED003D7F3093ED003091EB0031603093F7
:10308000EB007093EC002093ED005093F000209142
:10309000EE0027FDE5CF80E008958F708093E90072
:1030A00081E0089580911D0287FF11C08091E800A2
:1030B00082FD05C080911C028111F8CF11C0809162
:1030C000E8008B770BC080911C02882349F0809127
:1030D000E80080FFF8CF8091E8008E778093E800C9
:1030E00008952091E4003091E50095E64091EC00D0
:1030F000842F817040FF23C08091E80080FD1DC0B7
:1031000080911C02882399F0853099F08091EB0022
:1031100085FD11C04091E4005091E500241735076A
:1031200029F3915011F09A01E1CF84E0089582E0F3
:10313000089583E0089581E0089580E00895409126
:10314000E80042FFDDCF08950E9401190E94041992
:10315000E0EEF0E0808181608083E8EDF0E0808146
:103160008F77808319BCE3E6F0E080818160808303
:1031700010921B0208950E9401190E940419809167
:10318000D8008F778093D8008091D8008068809392
:10319000D8008091D8008F7D8093D80084E089BDCD
:1031A00086E089BD09B400FEFDCF10921C0210928A
:1031B000180210921A021092190242E060E080E0B8
:1031C0000E941D188091E1008E7F8093E100809124
:1031D000E20081608093E2008091E2008860809349
:1031E000E2008091E0008E7F8093E0000895E3E6A6
:1031F000F0E080818E7F808381E080931B020C94BD
:10320000BB181092E20008951092E10008951F92F9
:103210000F920FB60F9211242F933F934F935F930A
:103220006F937F938F939F93AF93BF93EF93FF938E
:103230008091E10082FF0BC08091E20082FF07C015
:103240008091E1008B7F8093E1000E945A1B809166
:10325000E10080FF19C08091E20080FF15C08091DD
:10326000E2008E7F8093E2008091E2008061809393
:10327000E2008091D80080628093D80019BC85E07C
:1032800080931C020E9494158091E10084FF30C05D
:103290008091E20084FF2CC084E089BD86E089BD76
:1032A00009B400FEFDCF8091D8008F7D8093D800B7
:1032B0008091E1008F7E8093E1008091E2008F7E1B
:1032C0008093E2008091E20081608093E20080912F
:1032D0001802882311F084E007C08091E30087FD85
:1032E00002C081E001C083E080931C020E9495151A
:1032F0008091E10083FF29C08091E20083FF25C017
:103300008091E100877F8093E10082E080931C023E
:10331000109218028091E1008E7F8093E1008091ED
:10332000E2008E7F8093E2008091E20080618093D2
:10333000E20042E060E080E00E941D188091F00011
:1033400088608093F0000E949315FF91EF91BF91E8
:10335000AF919F918F917F916F915F914F913F912D
:103360002F910F900FBE0F901F9018951F920F92E4
:103370000FB60F9211242F933F934F935F936F9348
:103380007F938F939F93AF93BF93CF93DF93EF93ED
:10339000FF93C091E900CF708091EC00D82FD170DD
:1033A00080FDD0E81092E9008091F000877F809343
:1033B000F00078940E94FA191092E9008091F000D0
:1033C00088608093F000CD2BCF70C093E900FF910F
:1033D000EF91DF91CF91BF91AF919F918F917F91AD
:1033E0006F915F914F913F912F910F900FBE0F9072
:1033F0001F9018951F93CF93DF93CDB7DEB7AA9791
:103400000FB6F894DEBF0FBECDBFEDE1F2E08091C4
:10341000F100819322E0E532F207C9F70E94A0157E
:103420008091E80083FF2EC180911D0290911E02C1
:10343000492F50E04A30510508F024C1FA01EC5AF6
:10344000FF4F0C94871B803821F0823809F01AC195
:1034500008C08091190290911A02992389F0826024
:103460000FC0809121028F70853008F00BC18093CE
:10347000E9008091EB0085FB882780F91092E90034
:103480009091E800977F9093E8008093F10010926C
:10349000F100D1C0282F2D7F09F0F4C0882319F046
:1034A000823061F0EFC080911F02813009F0EAC0E4
:1034B000933009F080E080931A022EC080911F02A1
:1034C00081112AC0809121028F702FEF280F2430A4
:1034D00008F0D8C08093E9002091EB0020FF1CC0C9
:1034E000933021F48091EB00806214C09091EB0046
:1034F00090619093EB0021E030E0A90102C0440FFD
:10350000551F8A95E2F74093EA001092EA008091F5
:10351000EB0088608093EB001092E9008091E80056
:10352000877F8093E8000E945218ACC08111AAC026
:1035300010911F021F778091E3008078812B809388
:10354000E3008091E800877F8093E8000E94521892
:103550008091E80080FFFCCF8091E3008068809339
:10356000E300111102C082E001C083E080931C02DD
:1035700089C08058823008F085C080911F029091E8
:1035800020028C3D53E0950779F583E08A838AE237
:1035900089834FB7F894DE01139620E03EE051E2B4
:1035A000E32FF0E050935700E49120FF03C0E29531
:1035B000EF703F5FEF708E2F90E0EA3010F0C7960B
:1035C00001C0C0968D939D932F5F243149F74FBF63
:1035D0008091E800877F8093E8006AE270E0CE0186
:1035E00001960E94641716C0609121027091220218
:1035F000AE014F5F5F4F0E94A216BC01892B09F4F8
:1036000041C09091E800977F9093E80089819A816A
:103610000E94BF178091E8008B778093E80032C04A
:10362000803881F58091E800877F8093E800809161
:1036300018028093F1008091E8008E7772CF81119B
:1036400021C080911F029091200299270297D4F403
:103650008091E800877F8093E80080911F0280932B
:1036600018020E94521880911802811106C08091A0
:10367000E30087FD02C081E001C084E080931C026A
:103680000E9496158091E80083FF0AC08091E800AF
:10369000877F8093E8008091EB0080628093EB004D
:1036A000AA960FB6F894DEBF0FBECDBFDF91CF91C3
:1036B0001F9108950895CF9380911C028823A1F053
:1036C000C091E900CF709091EC00892F817090FD3E
:1036D00080E8C82B1092E9008091E80083FD0E94E9
:1036E000FA19CF70C093E900CF91089500245527AF
:1036F00004C0080E591F880F991F009729F076956E
:103700006795B8F37105B9F7802D952F0895EE0FE1
:10371000FF1F0590F491E02D0994F999FECF92BD19
:1037200081BDF89A992780B50895A8E1B0E042E0FC
:1037300050E00C94C11B262FF999FECF92BD81BD9C
:10374000F89A019700B4021639F01FBA20BD0FB6DF
:10375000F894FA9AF99A0FBE08950396272F0E94BB
:103760009C1B0E949B1B252F0E949C1B242F0C94AA
:103770009C1B0196272F0E949C1B0C949B1BDC0119
:10378000CB01FC01F999FECF06C0F2BDE1BDF89A6C
:10379000319600B40D9241505040B8F70895F89416
:0237A000FFCF59
:1037A200EF01281567152B1563155F1501E200E976
:1037B20000EA00B500B600B700CD008301CC008A54
:1037C20001920194012102230224022502260227EA
:1037D200022A02B300B4006F007000818283309627
:1037E2009594646566673736E200E900EA00B50041
:1037F200B600B700CD008301CC008A01920194018A
:103802002102230224022502260227022A02B300F1
:0A381200B4006F0070008182830093
:00000001FF
