:100000000C94B4020C94FB020C94FB020C94FB02C3
:100010000C94FB020C94FB020C94FB020C94FB026C
:100020000C94FB020C94FB020C94FB020C945E22D9
:100030000C941A220C948A280C94FB020C94FB0258
:100040000C94FB020C94FB020C94FB020C944928C8
:100050000C94FB020C94FB020C94FB020C94FB022C
:100060000C94FB020C94FB020C94FB020C94FB021C
:100070000C94FB02B608B608EE08EE0881099D094B
:10008000740B740BAA09870A960A960A8610A010A8
:10009000A610D811D811DC10E810F710D811FF10F5
:1000A000261137114D115011491A491A5B1A5B1A62
:1000B000521A5B1A5B1A5B1A491A491A571A5B1AC9
:1000C0005B1A571A26204D20FC214D20FC21992037
:1000D000BC20FC21B921C921010001005602000009
:1000E000020002005202000003000100570200005B
:1000F000040002003C022A2305000100580200000F
:10010000060002003E020000070002005402000048
:100110000800010059020000090002004002052306
:100120000A000200420205230B00020044020523DC
:100130000C000200460205230D00020048020523C0
:100140000E0002004A0205230F0002004C020523A4
:10015000100002004E020523110002005002052388
:10016000120002005A020000130002005C020000AC
:10017000FD377A585A000004E6D6B4460200210141
:1001800016000000742FE5A3E0012200B65D003DDB
:10019000888966949074A77689C2124D411B5F11BD
:1001A000D88221B615A802BE97B92F4346996E7F13
:1001B000440093F0537F602235F18320A9CF079E3E
:1001C00029FAFB2899012E2062D9616690D7F6C1E1
:1001D0006AA360C2D62E3A95929095D0C935EC6646
:1001E00049E9A53D33A6486BF67549089944285E50
:1001F0006C442181FF1028733B846BD4B341183CBD
:10020000683AE0A8B5413ED2E43A91E448D934686E
:10021000064774CB05F36461EA9CB2ED0994B6E439
:1002200061DC299C6FC500DF70859591859D753ACD
:10023000E1E162B685B87C5AF912C540BBE517907A
:10024000C19936332D000000C01338599CE2048C4C
:100250000001D201A3020000CC2299FDB1C467FBCA
:10026000020000000004595A0000000000000000D5
:10027000000000000000000000000000000000007E
:100280000000000000000000000000007E0F00D40D
:10029000FFFFFFC700000078000000000000000022
:1002A0002A2B2800000000000000000000000000D1
:1002B00000000029000000002C1E342021222434DC
:1002C0002627252E362D3738271E1F2021222324AE
:1002D00025263333362E37381F0405060708090A4A
:1002E0000B0C0D0E0F101112131415161718191AE6
:1002F0001B1C1D2F3130232D350405060708090A64
:100300000B0C0D0E0F101112131415161718191AC5
:100310001B1C1D2F3130354C05010902A10185023E
:100320000901A100050919012905150025019505F7
:1003300075018102950175038101050109300931BB
:100340001581257F95027508810609381581257F5D
:10035000950175088106050C0A38021581257F95DF
:100360000175088106C0C005010980A10185031936
:10037000012AB700150126B700950175108100C04C
:10038000050C0901A101850419012AA00215012605
:10039000A002950175108100C00660FF0961A101EE
:1003A0000962150026FF0095207508810209631572
:1003B0000026FF00952075089102C005010906A1DD
:1003C00001050719E029E715002501950875018148
:1003D000029501750881010507190029FF150026FE
:1003E000FF00950675088100050819012905950586
:1003F00075019102950175039101C009025B00032B
:100400000100A0FA09040000010301010009211103
:100410000100012240000705810308000A090401C8
:10042000000203000000092111010001222200073F
:1004300005820320000107050303200001090402CF
:1004400000010300000009211101000122810007C1
:1004500005840320000A120110010000000805476E
:100460003FCC0100010203011C037600690061001A
:100470006C003A006600360034006300320062000F
:100480003300630000000C0364006B003200310095
:10049000300000000E034500760079006400310052
:1004A000330000000403090429002B002E002A0059
:1004B00053005400550056005F0060006100570073
:1004C0005C005D005E00000059005A005B005800AF
:1004D0006200000063000000010001000100010053
:1004E0000100010001000100010001000100010004
:1004F00001000100010001000100010001000100F4
:1005000001000100010001000100010001000100E3
:1005100001000100010001000100010001000100D3
:1005200001000100010001000100010001000100C3
:1005300001000100010001000100010001000100B3
:1005400001000100010001000100010001000100A3
:100550000100010001000100010001000100010093
:10056000010001000100010011241FBECFEFD4E003
:10057000DEBFCDBF04B603FE27C080914903909132
:100580004A03A0914B03B0914C038730904BA74096
:10059000B04BD1F41092490310924A0310924B03CE
:1005A00010924C0314BE84B7877F84BF0FB6F894B3
:1005B000A89580916000886180936000109260002F
:1005C0000FBEE0E0F8E3099511E0A0E0B1E0E4E05F
:1005D000F9E502C005900D92AC36B107D9F723E0DA
:1005E000ACE6B1E001C01D92A934B207E1F70E9468
:1005F000EA0B0C94802C0C9400003F924F925F9277
:100600006F927F928F929F92AF92BF92CF92DF9222
:10061000EF92FF920F931F93CF93DF93CDB7DEB787
:1006200064970FB6F894DEBF0FBECDBF7C01DC012E
:1006300013964D915C91149711966C9111978C9132
:100640000E944A2B81110C94D20B21E0F7014081CA
:1006500051816281738184810E944F188C01D7017E
:1006600012968C91811105C0F7012281211140C0A1
:10067000BCC0809100018F3FB9F3A0E7CA2EA1E072
:10068000DA2EA12CB12C9924939480910001082E8C
:10069000000C990B8A159B053CF3D60116968C919C
:1006A00016978823F1F019968D919C911A97081747
:1006B000190739F480916E0190916F01081719079D
:1006C00081F0F6019786148703878189811103C021
:1006D000C6010E94D723C60106960E94F8231092F5
:1006E0004103FFEFAF1ABF0A26E1C20ED11CCDCFE6
:1006F000C80182519F45409708F090C08FEF93E06A
:100700000E94D72B81117BC0FEEEDF2ED00E09EAAE
:1007100011E0DD2071F0011544E0140709F46FC009
:10072000C8010E94D72B811101C0DA940F5F1F4FBF
:10073000F0CF19821A821B821C8268015FEFC51AF2
:10074000D50AC8010E94D72B89831A82882309F40D
:1007500056C0813009F044C0580182E0A80EB11C97
:10076000C6010E94D72B8A83882309F448C09FEFD3
:10077000980F933060F4680193E0C90ED11CC50155
:100780000E94D72B8B8381112BC08601D6CF84305A
:1007900011F06501FACFC5010E94D72BB82E680170
:1007A000A4E0CA0ED11CC80103960E94D72BBB201F
:1007B00031F1882321F190E001976FEF70E00E9402
:1007C0002A2C2B2D30E021503109820F931F0197E5
:1007D000E0F2EFE9FFE03197F1F700C00000F7CF5A
:1007E000CE0101960E94A217D0CF00315FE5150718
:1007F00009F03CC481E00E94A32A0E94921E8091CD
:100800003E03877009F4CEC7D70112968C918823D6
:1008100009F4C8C782E00E94C82AC4C70031FFE5B6
:100820001F0711F481E005C001314FE5140721F4E1
:1008300082E00E94E52AE1CF5801B7E5BB1AEFEF4D
:10084000AE16B10411F008F05CC080910001082ED2
:10085000000C990B8A159B0514F4A0920001C501A8
:1008600066E170E00E942A2C4C01AC0140595E4FB9
:100870006A01DA0150962C935097F70182811696FF
:100880009C911697882371F11A961C930E931997D1
:100890009F5F16969C930E947E28D6011E969C937D
:1008A0008E931D978091440317968C931797909180
:1008B000410380914003892B18968C931897ED91F2
:1008C000FC91119794012A583E4F309731F054967D
:1008D0006D917C915597C901099510936F01009313
:1008E0006E010FC09923D1F0FA0181898823B1F0FC
:1008F000C50166E170E00E942A2C8A589E4F0E9432
:10090000F823073FFCE51F0749F4D70112968C91A5
:10091000882321F181E08093010141C1083FBCE5BA
:100920001B0771F4F70182818823C1F01092010145
:100930001092300210922F0281E00E944B242FC1AE
:10094000093FFCE51F0751F4D70112968C918823CB
:1009500029F0809101018823E9F2E8CF509001014C
:10096000552009F41CC11092330210923202612CFE
:10097000AA24A394B12C44244394C0903202D09072
:100980003302B8E0CB16D10408F0D6C0C60165E04A
:1009900070E00E942A2C825A9D4FBE01655F7F4FF6
:1009A000FC0180810E947725892B11F0712CB9C040
:1009B000FE013B9680E090E033243A94282F419149
:1009C00051914115510551F00417150709F4382EBE
:1009D00001968430910591F724E002C0823030F313
:1009E000FFEF3F1619F3D70112967C90772009F498
:1009F00049C0C60165E070E00E942A2C825A9D4FD2
:100A00004C01C50101C0880F3A94EAF7F4019481C2
:100A1000892B8483A50102C0440F551F2A95E2F754
:100A20009A012150310990E08F772817390709F092
:100A300077C080E00E944B24D40114968C911497C7
:100A4000806814968C93C60165E070E00E942A2CA1
:100A5000825A9D4FFC0182819381009719F00E9478
:100A600017190DC0BE016F5F7F4F809132020E9447
:100A70007725892B21F489859A850E942D1940922A
:100A800031024FC0F50102C0EE0FFF1F2A95E2F7B9
:100A90003197C60165E070E00E942A2CDC01A25A61
:100AA000BD4F14962C91149730E02F77E217F3077F
:100AB000B1F412968D919C911397009719F00E94B2
:100AC00078180DC0BE016F5F7F4F809132020E9487
:100AD0007725892B21F489859A850E948E18C60175
:100AE00065E070E00E942A2CFC01E25AFD4F24814F
:100AF000822F90E0032C02C0959587950A94E2F727
:100B000080FF54CFA50101C0440F3A94EAF7942F17
:100B100090959223948397FF49CF903809F41482DB
:100B2000752C672880913202909133020196909340
:100B300033028093320221CF80913102882359F011
:100B40000E947E289093300280932F0210923102EF
:100B5000611055CE24C0611006C081E00E944B2474
:100B60000E9439241CC0F7018281882309F447CEF2
:100B70000E947E289093300280932F02E0912E02F3
:100B8000E73008F03CCE81E08E0F80932E02F0E03B
:100B9000EE0FFF1FE05EFD4F1183008330CE80918A
:100BA000570280FF67C00E947E286C01D701129611
:100BB0008C91882379F18091020182FF06C040E088
:100BC000B60180E090E00E94762382E00E946129D5
:100BD0000B31BCE51B0779F00C31ECE51E0789F001
:100BE0000A31FCE51F07B1F480910201982F90951E
:100BF00090FB80F909C0809102018160809302011D
:100C000080C0809102018E7F8093020182E00E9469
:100C1000612977C00832110538F40E311105B8F496
:100C20000430110578F426C00933110538F40D326B
:100C3000110590F40B32110579F01CC00436110532
:100C400059F018C08091570284FD14C009C08091EA
:100C5000570283FD0FC004C08091570282FD0AC075
:100C6000D70112968C91882309F4B5C180910201B5
:100C700080FD75C1033F2CE5120741F190F4083D5A
:100C80005CE51507E9F0093D8CE5180789F1073D9A
:100C90009CE51907B1F506E221EE41EE67ED7CE532
:100CA0002CC0053FACE51A07E9F0B0F0063FECE5D3
:100CB0001E0739F507E225EE46EE66EF7CE51DC01E
:100CC00007E225EE45EE68ED7CE517C006E221EE71
:100CD00040EE63EF7CE511C007E225EE44EE64EFE1
:100CE0007CE50BC006E221EE42EE65EF7CE505C037
:100CF00008E221E045EE69ED7CE5C7010E946B2426
:100D00007ECDD70112962C91222309F46AC110924C
:100D100038020230BCE51B0708F463C10631ECE57C
:100D20001E0730F0C8018A5F9C45099708F059C139
:100D30000E94DA2890938802809387020031FCE5B4
:100D40001F0709F4C3C008F041C008304CE5140780
:100D500009F49AC0F0F404308CE5180709F487C050
:100D600068F40230ACE51A0709F477C003301C457B
:100D700009F0E5C080918702826076C00630ECE51C
:100D80001E0709F46EC008F07BC08091870288605E
:100D90006BC00C302CE5120709F485C068F40A30EA
:100DA0005CE5150709F474C008F079C00E94811A47
:100DB00080918702806858C00E309CE5190709F4BD
:100DC00076C008F07FC0809187028BC00B3FBCE5E6
:100DD0001B0709F44FC018F50331FCE51F0709F4A0
:100DE0007DC078F401314CE5140709F473C0023179
:100DF0001C4509F0A4C00E94811A809187028F7758
:100E000033C005318CE5180709F472C008F486C0B8
:100E10000A3F1C4509F093C0809188023EC00F3FF5
:100E2000BCE51B0709F45FC058F40D3FFCE51F0744
:100E300009F444C008F43FC08091880282602DC04C
:100E400001304DE5140709F475C008F45DC00230A7
:100E50001D4509F074C060E06EC08091870281601A
:100E600003C08091870280618093870268C080916F
:100E7000870211C0809188028260809388025FC0DF
:100E8000809187028062F0CF809187028064ECCFEE
:100E90008091870288608460E7CF8160EECF809187
:100EA00087028E7FE1CF809187028D7FDDCF809199
:100EB0008702877FD9CF8091880218C080918802ED
:100EC0008D7FDBCF809187028F7ECECF809187028E
:100ED0008F7DCACF809187028F7BC6CF809187029A
:100EE000877F8B7FC1CF809188028D7F8E7FC5CF1A
:100EF0008091870282FB222720F991E0922790FBC4
:100F000082F990FB83F9B0CF80918802982F909559
:100F100091708E7F892B90FB81F9AFCF0E94811A4F
:100F20008091870287FB222720F991E0922790FB8E
:100F300087F99ACF61E08EE090E00E94E52B609106
:100F400087021091880284E090E00E94E52B612FD7
:100F500082E290E00E94E52B0E94811A50CC909191
:100F6000570291FD04C020914003211183CE95FFCB
:100F700021C020913602309137022601421A530ACD
:100F8000920196FD02C081FD15C0283C310590F408
:100F900020913402309135020217130759F481FF72
:100FA00005C080914103826080934103802F0E949D
:100FB000EC1A25CC1093350200933402D0923702FC
:100FC000C09236028091020184608093020182E027
:100FD0000E94C82A14CC40E0B601C8010E947623C2
:100FE0000ECC0631BCE51B0709F047C080914003D9
:100FF000982F9A7A3091560230FF04C0482F4474DB
:1010000009F090E031FF04C0482F417109F090E0F1
:1010100032FF04C0482F487809F090E033FF02C047
:10102000827261F42223A1F081E0911101C080E07D
:1010300080933902992331F065E305C0222341F002
:101040001092390269E28CEE92E00E94C0280BC037
:1010500080913902882311F065E301C069E28CEECA
:1010600092E00E94B3280E94AA29C9CB01318FE5E2
:10107000180709F0E1CB82E0BECB222389F10A35C3
:101080009DE5190741F150F40115BCE51B07A9F0D6
:101090000E3D1C4529F50E94EB28B1CB0B35FDE533
:1010A0001F07D9F00C351D45D9F48091880282FBC9
:1010B000882780F991E0892711C00E94811A4FEF9B
:1010C00054E38CE0415050408040E1F700C0000004
:1010D0000E94252894CB81E001C080E00E946F2906
:1010E000F701828100811181882349F0C8010E94A3
:1010F000EB29D82E682FC8010E94692A04C0C801B4
:101100000E94382AD82EB8018D2D0E9406168C0117
:10111000882EF701B280C580C2946FE0C62280910C
:101120003E03877099F0BB2089F0812F807F803447
:1011300021F080E2800F883048F082E00E94C82AC7
:1011400080913E038770AA24A3948111A12C912E33
:1011500092945FE09522892D90E08C30910508F003
:10116000C3C2FC01E65CFF4F0C94632C912F9F706F
:10117000812F807FD92E19F0D29440EFD422BB204A
:10118000B9F0DD2009F48EC280E2800F883010F0C3
:10119000811006C080914003D82AD092400305C038
:1011A00080914103D82AD09241030E94AA297AC291
:1011B000802F0E948C1ADD2009F496C280E2800FF5
:1011C000883010F0811004C08D2D0E94682903C062
:1011D0008D2D0E9461290E94AA2986C2912F9F709D
:1011E000812F807FD92E803219F0D29430EFD32214
:1011F000882029F0F1E08F1609F44FC05CC0BB20B5
:1012000079F1CC2039F144244394C41013C0809167
:10121000880282FD69C280914403D82AD81609F455
:1012200063C20E947E289093430380934203D0922E
:1012300044035AC280915802823060F0C8120AC03A
:101240000E94562980913B03D81609F452C0D092CF
:101250003B034FC0809144038D290E94231A44C24E
:10126000CC2081F08091580255245394C51010C0B1
:10127000823008F439C2809140038D2109F434C2D0
:101280000E94E5290E9456298D2D0E94341A2CC2F5
:101290008230C0F3C812F6CF27C2BB2031F025E060
:1012A000622E6C1408F420C224C094E0792E7C14C1
:1012B00008F41AC2E9CFBB20F1F0CC20D1F020E035
:1012C000D7014C9111965C91119712966C911297DF
:1012D00013967C91139714968C910E944F188091CD
:1012E000590281FDDFC1F701858180FFDBC18F706D
:1012F00085838D2DB2CFCC2039F2F9E38F12E4C172
:10130000DEC1812F86958695837019F0813059F062
:10131000EBC1BB2019F0C801937002C080E090E0DF
:101320000E945423E1C1BB2019F0C801937002C090
:1013300080E090E00E943E23D7C1802FBB2029F09F
:101340000E9464140E942C1302C00E9456130E9433
:101350002C13CAC1812F837009F06AC0B110C4C1B7
:10136000902F929596959770990F990F802F8F7067
:10137000482E512C612C712C092E04C0440C551C94
:10138000661C771C0A94D2F704FF12C04FE050E0AD
:1013900060E070E004C0440F551F661F771F9A95E8
:1013A000D2F7DB01CA0180959095A095B09503C056
:1013B00080E090E0DC01612F669566956370623095
:1013C000D9F068F5209145033091460340914703D9
:1013D00050914803613059F084299529A629B729ED
:1013E000BC01CD0162237323842395231EC0422AAE
:1013F000532A642A752A13C084299529A629B72956
:101400004090450350904603609047037090480316
:10141000BC01CD01642575258625972506C0BC0134
:10142000CD0164297529862997290E941C2B5CC14E
:10143000BB2019F0812F817001C08695882309F4A3
:1014400053C1902F929596959770990F990F802F71
:101450008F70482E512C612C712C092E04C0440C25
:10146000551C661C771C0A94D2F704FF12C04FE08B
:1014700050E060E070E004C0440F551F661F771F06
:101480009A95D2F7DB01CA0180959095A095B09509
:1014900003C080E090E0DC01612F66956695637083
:1014A0006230D9F068F52091E0023091E10240917C
:1014B000E2025091E302613059F084299529A6296E
:1014C000B729BC01CD01622373238423952391C0E6
:1014D000422A532A642A752A13C084299529A629E9
:1014E000B7294090E0025090E1026090E2027090D3
:1014F000E302BC01CD01642575258625972579C0B9
:10150000BC01CD01642975298629972972C0212F34
:101510002F70D22EBB2029F0822F0E94E52A802F27
:101520009CCE802F0E94341A8D2DDAC0802F42EF7E
:10153000841609F443C0481538F050EF851661F061
:1015400091EF8916A9F1AAC0A3EF8A16E9F1B4EFC9
:101550008B1609F451C0A2C0BB2029F0E4E0EC15C1
:1015600008F4C2C005C085E0582E5C1408F4BCC065
:10157000212F2F7181E090E0A0E0B0E0AC01BD012F
:1015800004C0440F551F661F771F2A95D2F780911C
:10159000E0029091E102A091E202B091E3022A01FF
:1015A0003B01482659266A267B26C301B20121C089
:1015B000812F8F71BB2009F493C07AC0812F8F7166
:1015C000BB2009F475C08CC0BB2081F0212F2F7186
:1015D00081E090E0A0E0B0E0BC01CD0104C0660F66
:1015E000771F881F991F2A95D2F703C060E070E02B
:1015F000CB010E94992A78C0909158029230B8F19C
:10160000BB20F1F080913B030E94682980913E034A
:101610008770843039F40E948929812F8F710E944C
:10162000A32A61C080915802C81608F05CC0212F1F
:101630002F71D22E822F0E94E52A63E08D2D10C0DB
:101640002091400380913B03822B80934003C91675
:1016500050F00E9489290E94E52964E0812F8F7152
:101660000E94062B40C081E00E94C82A3CC0BB20DB
:1016700059F0412F4F71D42E842F0E94E52A63E048
:101680008D2D0E94062B30C081E00E94C82A51E0B7
:101690005C1550F582E00E94C82A26C0BB2059F094
:1016A000CC2021F0802F0E94EC1A1EC0812F8F7158
:1016B0000E94E52A19C0CC2089F0893329F4809151
:1016C0005C0290915D0204C080915A0290915B028D
:1016D0000E943323802F0E948C1A06C0812F8F71A5
:1016E0000E94A32A01C0A12C88EF890D843020F428
:1016F0000E946A230E949C17C8010E943B1A811114
:1017000005C010923B0210923A0225C0BB2019F08E
:10171000C110F7CF20C0C110F4CF20E0D7014C9109
:1017200011965C91119712966C91129713967C9179
:10173000139714968C910E944F188091590283FF41
:10174000E0CF80913A0290913B020297D1F6802F30
:101750000E94901BD6CFAA20A9F080913E0380FD65
:1017600011C0F70112828595859585950E94E52A1D
:10177000C7010E94FD0280913E0385958595859560
:101780000E94A32A20E0D7014C9111965C911197F9
:1017900012966C91129713967C91139714968C91D4
:1017A0000E944F1864960FB6F894DEBF0FBECDBFEF
:1017B000DF91CF911F910F91FF90EF90DF90CF902D
:1017C000BF90AF909F908F907F906F905F904F9061
:1017D0003F900895CF93DF93CDB7DEB7E4970FB670
:1017E000F894DEBF0FBECDBF84B7877F84BF0FB62E
:1017F000F894A895809160008861809360001092B1
:1018000060000FBE90E080E80FB6F894809361000E
:10181000909361000FBE8EE997E290936D018093E3
:101820006C010E94D612EEE5F2E080E090E0918338
:1018300080830196359688309105C9F70E94E2248D
:101840001092E2001092E1008091E00081608093AC
:10185000E0008091D8008F778093D80019BC8091E8
:101860006300816080936300109286028091630020
:101870008E7F8093630081E0809386021092E20065
:101880001092E1008091D8008F778093D8008091EA
:10189000D80080688093D8008091D8008F7D809395
:1018A000D80084E089BD86E089BD09B400FEFDCF83
:1018B0001092D6021092D7021092D5021092D40242
:1018C00042E060E080E00E940F1F8091E1008E7F87
:1018D0008093E1008091E20081608093E20080913A
:1018E000E20088608093E2008091E0008E7F809328
:1018F000E0008091E20084608093E200789480911F
:10190000D6028823A1F01091E9001F709091EC009D
:10191000892F817090FD80E8182B1092E90080914A
:10192000E80083FD0E94441F1F701093E90082E0CD
:1019300084BD93E095BD9AEF97BD80936E0002E25F
:1019400011E088E2E82E81E0F82EF80181918F0104
:101950000E94CC14E016F106C1F780E30E94CC147B
:1019600086E90E94CC1485E90E94CC1484E90E9487
:10197000CC14E9E8F2E08FE892E0A8EAB2E0119234
:101980001D928E179F07D9F780E090E00E94DF2B11
:101990008A3E9E4F11F00E94EB2882E090E00E9468
:1019A000D72B80939F020E94DA289093880280931D
:1019B00087020E94E3148FE39CE90197F1F700C0CE
:1019C00000000E94E3148091A80280FF17C06FEF0F
:1019D00083E290E00E94E52B6FEF84E290E00E94AA
:1019E000E52B6FEF85E290E00E94E52B6FEF7FEF34
:1019F00080E090E00E94032C0E94252883E090E084
:101A00000E94D72B682F70E080E090E00E941C2B92
:101A1000249A2C9A83E290E00E94D72B8A3E81F48C
:101A200084E290E00E94D72B873A51F485E290E05F
:101A30000E94D72B91E08F3109F090E0892F01C0EF
:101A400080E080FF2AC589E091E090939002809326
:101A50008F02F8E16F2E712CA0E45A2EBEEACB2E35
:101A6000B2E0DB2E8E010F5F1F4F8091D6028530D2
:101A700009F047C074E0E72EE6E0FE2E8091D60222
:101A8000853009F038C08091D602843021F180E0A1
:101A90000E949C17109291020FB6F894A89560923C
:101AA00060000FBE5092600083B7817F846083BF67
:101AB00083B7816083BF7894889583B78E7F83BF17
:101AC0000FB6F894A89580916000886180936000BB
:101AD000109260000FBE8091D502882309F4CECF0A
:101AE0000E94E314E8EAF2E08191811189C4CE16E4
:101AF000DF06D1F7C3CF0E94811A0E946A230E9499
:101B00009C170E94E314882359F08FB7F8944091F2
:101B1000AE025091AF026091B0027091B1028FBFDE
:101B2000E0EAF2E0A8EAB2E0E12CF12C3E2D2D91A2
:101B30009191922721F180E0BB24B394492F4B214E
:101B4000D1F08BA73CA72B2181E009F480E08DA781
:101B50000E947E288160782F9FA78EA74BA55CA549
:101B60006DA58FA50E94BE26F701E056FD4F80812E
:101B7000B826B0821BC08F5FBB0C8430F9F69FEF94
:101B8000E91AF90A26E0E216F10481F68FEF88AB34
:101B900089AB1AAA0E947E288160782F9CAB8BAB00
:101BA00048A959A96AA98CA90E94BE2686E0E8E93D
:101BB000F2E0D80101900D928A95E1F7A0909A0287
:101BC000B0909B02E0909C02F0909D0210929A02CD
:101BD00010929B0210929C0210929D02A11003C0D1
:101BE000BB2009F462C080919602909197020E94F6
:101BF0006F28FC0120919502222339F08091060183
:101C000090E08E179F0760F050C08091050190E032
:101C10006AE070E00E942A2C8E179F0718F045C0DA
:101C20002F3F19F02F5F20939502AA2059F00E94B0
:101C300016141A1414F461E001C06FEF0E94212CF5
:101C400080939A02BB2059F00E9416141B1414F4BE
:101C500061E001C06FEF0E94212C80939B02809174
:101C60009A02882311F120919B022223F1F0082E81
:101C7000000C990B65EB70E00E942A2C992319F057
:101C800090939A0203C081E080939A02822F220FE0
:101C9000990B65EB70E00E942A2C992319F0909320
:101CA0009B0203C081E080939B02E11003C0FF20F0
:101CB00009F462C080919302909194020E946F286F
:101CC000FC0120919202222339F08091040190E0DE
:101CD0008E179F0760F050C08091030190E06AE08A
:101CE00070E00E942A2C8E179F0718F045C02F3FE6
:101CF00019F02F5F20939202EE2059F00E94DB131F
:101D00001E1414F461E001C06FEF0E94212C809337
:101D10009C02FF2059F00E94DB131F1414F461E0B1
:101D200001C06FEF0E94212C80939D0280919C0244
:101D3000882311F120919D022223F1F0082E000C3E
:101D4000990B65EB70E00E942A2C992319F090936F
:101D50009C0203C081E080939C02822F220F990B8A
:101D600065EB70E00E942A2C992319F090939D0254
:101D700003C081E080939D0280919A0281110BC083
:101D800080919B02811107C080919C02811103C048
:101D900080919D0281110E942C13AB82BC82ED8246
:101DA000FE8286E0F801A8E9B2E001900D928A95E2
:101DB000E1F70E946A2390919E02891731F00E94F8
:101DC0006A2380939E020E949C178091D6028430E1
:101DD00009F04BCE83E08093E9008091E80082FF18
:101DE00044CE8091E80085FF21C00E94B01E811181
:101DF0001BC060E2A62EB12C780109C08091F100D1
:101E0000F70181937F01F1E0AF1AB10869F0809189
:101E1000E80085FDF3CF8091E8008B778093E800A0
:101E20000E94B01E882399F391E001C090E0809158
:101E3000E8008B778093E800992309F416CEE090B0
:101E4000B202F090B3028981E114F10461F08E3F97
:101E500009F0AEC28A81833008F44CC185508330CA
:101E600008F0A6C247C1893009F4A0C2F0F484305A
:101E700009F47BC050F48230C1F108F067C08130B2
:101E800009F094C21A8289E0B8C1863009F474C09E
:101E900008F08CC22D813E813227232732274C81C6
:101EA0006B818A810E94A32583C2803109F4C3C05B
:101EB00080F48D3009F463C028F48C3009F076C2C8
:101EC00080E114C28E3009F45EC08F3009F485C001
:101ED0006DC2823109F4B4C008F4B0C0833109F492
:101EE000D7C08E3F09F406C161C28A81823009F4ED
:101EF000CBC2833089F0813009F058C22FB7F894F3
:101F00008091AE029091AF02A091B002B091B10267
:101F10002FBFBB83AC832EC0809107019091080135
:101F2000892B09F445C28091A8028B838091A90274
:101F30008C838091AA028D838091AB028E838091E5
:101F4000AC028F838091AD02888732C28A81823051
:101F500009F02CC26B817C818D819E810E94692C4D
:101F600086E290E00E94E52B23C24C816B818A813E
:101F70000E946F269D838FC20E94DE2519C282E0D7
:101F80008A8387E53AC1EA80FB80FE24EF24FE24A1
:101F90008C80912C2DE18216910408F009C2580121
:101FA000C70187559E4F9501201B310B2815390518
:101FB00008F0FEC147E5E41642E0F40628F40E946A
:101FC000D72BF501848302C0F5011482FFEFEF1ACD
:101FD000FF0A2FEFA21AB20AE3CF80910701909176
:101FE0000801892B09F4E4C1EA80FB80FE24EF2478
:101FF000FE24AC80B12C4DE1A416B10408F0D8C188
:102000004801C70187559E4F9401201B310B2A15AB
:102010003B0508F0CDC1E7E5EE16E2E0FE0620F450
:10202000F40164810E94E52BFFEFEF1AFF0A2FEF06
:10203000821A920AE6CF0E946725BAC184E056C18F
:10204000EA80FB80FE24EF24FE248C80912C4DE15D
:102050008416910408F0ACC15801C7018796950118
:10206000201B310B2815390508F0A2C1E0ECEE1653
:10207000F10428F40E94D72BF501848302C0F501F6
:102080001482FFEFEF1AFF0A2FEFA21AB20AE5CF70
:10209000EA80FB80FE24EF24FE24AC80B12C4DE1CD
:1020A000A416B10408F084C180ECE816F10408F02D
:1020B0007FC180EC90E08E199F098A159B0508F47A
:1020C00077C14801C70187969401201B310B2A155F
:1020D0003B0508F06DC1E0ECEE16F10420F4F401CC
:1020E00064810E94E52BFFEFEF1AFF0A2FEF821A9F
:1020F000920AE8CFEA818E2F90E08E30910508F0A9
:1021000057C1FC01EA5BFF4F0C94632C88E0EAE1C5
:10211000F1E0DE01919601900D928A95E1F780E25F
:10212000F80111928A95E9F784E0898388E0FE013D
:10213000B196DE01159601900D928A95E1F738C1AE
:1021400088EF89831A821B821C8232C18C8190E0C5
:10215000982F88272B81820F911D092E000CAA0B26
:10216000BB0B55E0880F991FAA1FBB1F5A95D1F7CB
:10217000AC01BD01405E5F4F6F4F7F4F481759075D
:102180006A077B0708F414C1883F9105A105B105D2
:1021900008F00EC1493F51056105710520F048EF77
:1021A00050E060E070E0481B590BBC0160597E4F65
:1021B000C8010E94BE2BFCC040E250E06FEF70E00F
:1021C000C8010E94792C809107018983EA82F0C0BE
:1021D00081E090E09093B3028093B20282E390E0BA
:1021E0009093A7028093A6020E947E28E1C080916E
:1021F00007018983EA828091A6028B83D9C0EB8094
:10220000FC8040E250E06FEF70E0C8010E94792C42
:1022100028ED30E080E090E0AC014E5F5F4F41324E
:10222000510508F0C5C0F90165917491E616F706ED
:1022300030F4F801E80FF91F71836083CA01285F49
:102240003F4FF1E020373F0739F7B2C02B813C8187
:1022500088ED90E0FC01459154912417350709F46D
:10226000E5C0089641E080379407A1F79FC08B81B5
:102270009C8138EDE32E30E0F32EF7012591349167
:102280002817390709F489C0E8E0EE0EF11CF0E7E1
:10229000EF16F1E0FF0689F789C00E94262588C065
:1022A0008B81823029F1A8F48823C9F0813009F0AC
:1022B0007FC08C812AE0F22E5E01F1E2AF0EB11CEC
:1022C000F5012F2D11922A95E9F7B5010E948D2570
:1022D0003FC0833071F1843009F443C069C080E2AB
:1022E000F80111928A95E9F788E089838A8360C0B2
:1022F0008C819AE0FE013596DE01919601900D9257
:102300009A95E1F7883080F490E06AE070E00E94EE
:102310002A2CBC01675F7E4F4AE050E0CE018196D7
:102320000E94092C80E001C08FEF89830E94D612A1
:102330003FC08C819AE0F92E5E0141E2A40EB11CEF
:10234000F5012F2D11922A95E9F7B5010E94772505
:102350008983F501DE01129601900D92FA94E1F75E
:1023600027C08C819AE0FE013596DE01919601909E
:102370000D929A95E1F78830C8F490E06AE070E039
:102380000E942A2CBC01675A7E4F4AE050E0CE01E1
:1023900081960E94092C80E00AC0C7010296FC01C8
:1023A000259134912D31310508F456C08FEF898382
:1023B0008091D602843009F058CB8091E9008F706B
:1023C0002091EC00922F917020FD90E8F92EF82AD0
:1023D00082E08093E9008091E80080FF0CC040E03B
:1023E00050E060E270E0C8010E94E31E8091E800C6
:1023F0008E778093E8008F2D8F708093E90035CB26
:10240000E9BCF9BC09B400FEFDCF8091D8008F7DF6
:102410008093D8008091E00082608093E0008091FA
:10242000E00081FDFCCF0E94811A28CB9C012E5F29
:102430003F4FF901459154914032510508F0B6CF14
:10244000F90145915491FC01349665917491CE0146
:1024500002960E94702C9FCFFC0145915491F70188
:10246000349685919491BE016B5F7F4F0E94702CD2
:102470000E940925F701369685919491009709F4F9
:102480008ACFFC01099587CF86E290E00E94D72B86
:102490001B821C821D828E838BCF60E086E290E0DF
:1024A0000E94E52B0E94DE250E9467256AEE83E2EA
:1024B00090E00E94E52B67EA84E290E00E94E52B21
:1024C0006FE185E290E00E94E52BBDCA9091870202
:1024D00092FF0DC0282F2871283019F4877F84605F
:1024E00006C0282F2471243011F48B7F886093FF5D
:1024F0000DC0282F2871283119F4877E846106C009
:10250000282F2471243111F48B7E88612091880258
:1025100020FF0DC0382F3871383019F4877F816063
:1025200006C0382F3171313011F48E7F886021FF61
:102530000DC0282F2871283119F4877E816106C0CB
:10254000282F2171213111F48E7E886194FD877EC0
:1025500008959C013A9521153F4138F5DC01AA27E1
:10256000B270AC01442754709C012227387094FF4C
:102570000FC090FF02C080E101C080E0AB2B09F0EA
:102580008062452B09F08064232B69F080680BC0C2
:10259000892F8170AB2B09F08260452B09F0846094
:1025A000232B09F08860FB01099408958F929F9274
:1025B000AF92BF92CF92DF92EF92FF920F931F9351
:1025C000CF93DF93CDB7DEB72A970FB6F894DEBF6F
:1025D0000FBECDBF00E711E0E12CF12C8EE6C82E36
:1025E00089E1D82E99E9A92E99E1B92E2EEB822EF8
:1025F00028E1922EF801D182C082B382A282958214
:102600008482F58AE48ABE016F5F7F4F8E2D0E941F
:102610008D25892B29F489859A85F801938B828BE6
:10262000FFEFEF1AFF0A0A5E1F4F88E0E816F10479
:1026300009F72A960FB6F894DEBF0FBECDBFDF9123
:10264000CF911F910F91FF90EF90DF90CF90BF90AF
:10265000AF909F908F9008950E947E2820919A02BB
:10266000211104C020919B02222321F09093970214
:102670008093960220919C02211104C020919D021A
:10268000222321F09093940280939302E0918F0291
:10269000F0919002309749F082E080939802048094
:1026A000F581E02D88E992E009940895803F39F49E
:1026B00080919B0287FF6AC010929B0267C0813F96
:1026C00029F480919B021816BCF360C090919A0285
:1026D000823F29F497FF5AC010929A0257C0833F55
:1026E00019F41916CCF352C090919C02893F31F431
:1026F00019160CF04BC010929C0248C08A3F19F486
:1027000097FF44C0F8CF8B3F39F480919D0287FF3B
:102710003DC010929D023AC08C3F29F480919D02E9
:102720001816BCF333C0843F21F4809199028E7F48
:1027300017C0853F21F4809199028D7F11C0863F9B
:1027400021F4809199028B7F0BC0873F21F4809107
:102750009902877F05C0883F31F4809199028F7E6E
:102760008093990213C08D3F21F48091C9028E7F1E
:102770000BC08E3F21F48091C9028D7F05C08F3F31
:1027800029F48091C9028B7F8093C90280919A02BB
:10279000811106C080919B02811102C010929502A6
:1027A00080919C02811106C080919D02811102C01E
:1027B0001092920208958091C90280FF08C0609132
:1027C000150170E0759567957595679523C081FF34
:1027D00006C06091150170E0759567951BC082FF7A
:1027E00004C06091150170E012C0609192026623EE
:1027F000A9F0209114016217A0F78091150170E0F3
:1028000090E00E942A2C622F70E00E944F2C6038CA
:10281000710540F46115710519F406C061E070E0BE
:10282000862F08958FE7089581E008958091C90269
:10283000309144022091450280FF0CC08091170125
:1028400090E0632F722F0E942A2C9695879596957B
:10285000879530C081FF0AC08091170190E0632FF7
:10286000722F0E942A2C9695879524C082FF08C05B
:102870008091170190E0632F722F0E942A2C1AC0BA
:1028800060919502611103C0832F922F13C0409174
:102890001601641768F78091170170E090E00E94BC
:1028A0002A2C632F722F0E942A2C642F70E00E9422
:1028B0003B2CCB018038910518F4009719F008954E
:1028C0008FE7089581E00895803F21F40E94161457
:1028D000819504C0813F29F40E94161480939B02C5
:1028E0000895823F21F40E941614819504C0833F0D
:1028F00029F40E94161480939A020895893F19F4CE
:102900000E94DB1305C08A3F31F40E94DB138195DE
:1029100080939C0208958B3F21F40E94DB138195E4
:1029200004C08C3F29F40E94DB1380939D0208951C
:10293000843F21F480919902816017C0853F21F482
:1029400080919902826011C0863F21F480919902A2
:1029500084600BC0873F21F480919902886005C094
:10296000883F31F4809199028061809399020895A3
:102970008D3F21F48091C90281600BC08E3F21F40C
:102980008091C902826005C08F3F29F48091C902FD
:1029900084608093C9020895F894E82FE295EF705F
:1029A000F0E031A1282F2F7081E090E001C0880F66
:1029B0002A95EAF7982F9095932391A392A1892BBA
:1029C00082A3789408958F929F92AF92BF92CF92F4
:1029D000DF92EF92FF920F931F93CF93DF93C2E2A8
:1029E000D1E009E812E088E2C82E81E0D82E580133
:1029F000912CEE24E394F12CBE018881F894E82F09
:102A0000E295EF70F0E021A18F70A70102C0440FA2
:102A1000551F8A95E2F7CA01922F982B91A392A194
:102A20008095892382A3789400C0E8E2F1E020E059
:102A300030E0812C4191842F82958F7090E0DC01F1
:102A400090968C9190E04F7002C0959587954A952D
:102A5000E2F780FD07C08E2D022E01C0880F0A9478
:102A6000EAF701C080E0882A2F5F3F4F243031050C
:102A700009F72196FB0180810E94CC14F0EAFA95B7
:102A8000F1F7D5018C91881619F08C9281E001C084
:102A900080E0982ABFEFAB1ABB0ACC16DD0609F01E
:102AA000ABCF992049F081E08093B6020E947E2846
:102AB0009093B5028093B4028091B6028823A9F066
:102AC0008091B4029091B5020E946F28069768F039
:102AD000E8EAF2E08FE892E0D8012D918D01219390
:102AE0008A179B07C9F71092B602809100018F3FA9
:102AF00061F1F12C20C0CE0166E170E00E942A2C29
:102B000080599E4FFC01C288D388C114D10421F49E
:102B1000C0905402D0905502CE0166E170E00E9450
:102B20002A2C8C0100591E4FD80116968C911697AD
:102B3000811110C0F394CF2DD0E080910001082EB8
:102B4000000C990B8C179D07B4F68091010181113F
:102B50001BC02EC01D968D919C911E970E946F28C0
:102B6000C816D90638F7F8018189811103C0C80158
:102B70000E94D723CE0166E170E00E942A2C8A5879
:102B80009E4F0E94F823D6CF80912F029091300261
:102B9000009771F00E946F282091520230915302E9
:102BA0002817390728F481E00E944B240E94392419
:102BB0008091570280FF1CC08091020182FF18C0E3
:102BC0000E947E282091360230913702AC01421BD0
:102BD000530B20911801309119014217530740F00F
:102BE00041E0BC0180913402909135020E9476232D
:102BF000892DDF91CF911F910F91FF90EF90DF9082
:102C0000CF90BF90AF909F908F900895CF93DF9318
:102C10000E94A226EC018238910559F1A0F481337B
:102C2000910509F473C040F48932910509F467C035
:102C30008A9709F472C084C08533910509F458C09D
:102C4000C997B9F07DC0833E910571F138F4803E9B
:102C50009105B1F0823E910511F172C0863E910559
:102C6000B9F1873E9105C9F1843E910509F068C02C
:102C700024C08091870280FD5DC081FD5BC060C083
:102C80008091870280FD50C08091880280FF50C1F2
:102C90008091870284FD4AC1C3EED0E049C1809192
:102CA000870282FF45C1F4CF8091870282FD3FC039
:102CB0008091880280FD3EC0EBCF8091880281FF29
:102CC00037C18091870284FD31C1C7EED0E030C1A9
:102CD0008091870283FF2CC1F4CF8091870283FD0E
:102CE0002CC08091880281FFECCFC4EED0E020C1DF
:102CF0008091870285FF1CC1C9E2D0E019C1809193
:102D0000870285FF15C1C5E3D0E012C1809187021B
:102D100086FF0EC1CAE2D0E00BC18091870286FF18
:102D200007C1C1E3D0E004C1C9E3D0E001C1C2EEF4
:102D3000D0E0FEC0C0EED0E0FBC0C6EED0E0F8C0F0
:102D4000C11521E5D20708F069C0C11580E5D80793
:102D5000F8F0CE01F4E096958795FA95E1F7282FE3
:102D600023703C2F337081E090E002C0880F991FE0
:102D70003A95E2F79C68922BCF70C695C695D0E045
:102D8000A5E0CC0FDD1FAA95E1F7C82BD92BD0C049
:102D9000C83ED10560F5C03ED10508F0C9C0C83AAB
:102DA000D105B0F4C53AD10540F0C55AD0E0C45DB4
:102DB000DE4FC881D0E0D064BBC0C130D10509F47A
:102DC000B7C008F4B3C0C430D10508F4AFC0B0C078
:102DD000CF3BD10508F0AAC0C85AD0E0CC0FDD1F08
:102DE000C15DDE4F0990D881C02DD464A1C0C1154A
:102DF00020E2D20758F4C11581E0D80708F098C046
:102E0000C03FD10508F492C0D06592C0C11520E43E
:102E1000D20708F48BC0DF70D06A8AC0C11585E57F
:102E2000D80708F046C0C11524E5D20728F0DC2FEA
:102E3000CC27C46FD06A7CC0C11583E5D807C0F029
:102E4000CE018370992721E030E002C0220F331FAA
:102E50008A95E2F78C2F86958695C82FD0E065E09D
:102E6000CC0FDD1F6A95E1F7C22BD32BDA6860C067
:102E7000C11522E5D20728F4DC2FCC27C16FD06A18
:102E800057C0CE018370992721E030E002C0220FA5
:102E9000331F8A95E2F78C2F86958695C82FD0E050
:102EA00075E0CC0FDD1F7A95E1F7C22BD32BDC68E0
:102EB0003FC0C11589E5D807B8F4C11528E5D20788
:102EC00028F0DC2FCC27C06FD06A32C0C11586E550
:102ED000D80760F58C2F0E9466128F71C82FD0E042
:102EE000DC2FCC27D06224C0C1152AE5D20780F49C
:102EF0008C2F8F700E94661294E0D695C7959A9594
:102F0000E1F7CF70D0E0DC2FCC27D069C82B10C000
:102F1000CE0190568115904248F48D2F8F710E94FA
:102F20006612DD27D0628F71D82B02C0C0E0D0E0DE
:102F3000CE01DF91CF91089580FD02C02C9A0895B3
:102F40002C980895BF92CF92DF92EF92FF920F9349
:102F50001F93CF93DF93EC012881222309F495C0BE
:102F6000213009F03FC08981813039F48E010E5F34
:102F70001F4F8A810E94901B08C0823041F48E014D
:102F80000E5F1F4F8A810E94EC1AE8017CC08330DB
:102F900039F48E010E5F1F4F8A810E948C1AF5CF83
:102FA000843011F021966FC02A81229680E090E053
:102FB00030E0205331092A30310548F46AE070E0EE
:102FC0000E942A2C820F931F21962881F1CF00970F
:102FD00009F459C0EFE9FFE03197F1F700C00000B4
:102FE0000197F5CFE22FF0E0E856FD4FB490822F25
:102FF00086958695869590E0FC01E857FD4FE49014
:103000002770F12C022E02C0F594E7940A94E2F79F
:10301000F1E0EF22FF24FC01E858FD4FC490D12CD1
:10302000022E02C0D594C7940A94E2F731E0C3227D
:10303000DD24FC01E859FD4F049110E002C0159514
:1030400007952A95E2F701701127E114F10419F0B0
:1030500081EE0E94EC1AC114D10419F086EE0E9490
:10306000EC1A8B2D0E94901BCD2819F086EE0E9441
:103070008C1AEF2819F081EE0E948C1A012B19F09E
:103080008CE20E94901B219667CFDF91CF911F9118
:103090000F91FF90EF90DF90CF90BF9008951F9316
:1030A000CF93DF9300D000D01F92CDB7DEB7498316
:1030B0005A8389819A81662359F0222349F00E941C
:1030C000EB29182F682F89819A810E94692A03C0F1
:1030D0000E94382A182F69817A81812F0F900F90D2
:1030E0000F900F900F90DF91CF911F910C94A2261B
:1030F000CF93DF93EC010E948C1ACE01805E910980
:10310000089710F0209719F464E37AE102C06DE2A9
:103110007AE1CE01DF91CF910C94A912CF93DF9386
:1031200000D000D01F92CDB7DEB79093E502809318
:10313000E402811520E2920748F40F900F900F905F
:103140000F900F90DF91CF910C9478188EEF8983B8
:103150008A831B820E947E288160782F9D838C83C6
:1031600049815A816B818D810E94BE260F900F90FC
:103170000F900F900F90DF91CF9108950F931F93B1
:10318000CF93DF938C01EB016FEB72E08C2F0E94E9
:103190008D25892B09F046C080915A0290915B02DF
:1031A0000E943323DD27C954DD4F8881F801108246
:1031B0001882833079F048F4813041F1823091F502
:1031C0008091C1029091C20209C0843051F08530D3
:1031D000E9F028C08091C3029091C4020097B1F039
:1031E0001BC08091C5029091C6020097A9F420915E
:1031F000BF023091C0028091C1029091C20221159C
:10320000310541F0009741F4C90106C08091BF0229
:103210009091C002009731F0DF91CF911F910F91F3
:103220000C948E18DF91CF911F910F910895CF9339
:10323000DF93EC01805E9109089710F0209719F454
:1032400063E27AE102C069E17AE1CE010E94A9124B
:103250008C2FDF91CF910C94EC1ACF93DF9300D099
:1032600000D01F92CDB7DEB79093E5028093E402C1
:10327000811520E2920748F40F900F900F900F9065
:103280000F90DF91CF910C9417198EEF89838A8369
:1032900081E08B830E947E288160782F9D838C83C0
:1032A00049815A816B818D810E94BE260F900F90BB
:1032B0000F900F900F90DF91CF910895CF93DF93F0
:1032C000EC010E942D1980915A0290915B020E949C
:1032D0003323CE01DF91CF910C948E180F931F935F
:1032E000CF93DF938C01862F6FEB72E00E948D25C8
:1032F000892BD1F4C091BF02D091C0022097A1F0D8
:10330000F8018081833039F4CE010E945E19CE012C
:103310000E945E1902C0843038F0CE01DF91CF9157
:103320001F910F910C945E19DF91CF911F910F9116
:1033300008950F931F93CF93DF938C01EB016FEBF5
:1033400072E08C2F0E948D25892B09F06DC0DD273E
:10335000F8018081813041F49185911115C09285E9
:10336000992391F082E010C0823049F4F801818500
:10337000811107C08285811106C083E005C086E007
:1033800003C085E001C084E0C954DD4F88838330E9
:10339000B1F028F4813071F0823031F045C08430D2
:1033A000A9F0853079F140C08091C1029091C202AC
:1033B0000097A1F58091BF029091C00220C080913A
:1033C000C3029091C4020097E9F028C08091C50221
:1033D0009091C602009711F58091BF029091C002B2
:1033E000009749F00E945E198091C1029091C2023B
:1033F000009781F013C08091C1029091C2020097A2
:1034000099F00CC08091BF029091C002009761F0CA
:103410000E945E198091BF029091C002DF91CF910E
:103420001F910F910C942D19DF91CF911F910F9146
:103430000895882339F090914103892B80934103AB
:103440000C94AA290895882339F090914003892B80
:10345000809340030C94AA290895882321F00E94A8
:1034600061290C94AA290895882321F00E946829D3
:103470000C94AA290895E92FE295EF704E2F50E0A1
:10348000FA013297EE30F105B0F4EC5AFF4F0C948C
:10349000632C803F91F018F4883E68F40EC0843F9E
:1034A00051F40BC0883E48F0813F29F406C093FBDD
:1034B000882780F9089580E0089581E008950E94AA
:1034C0002D2A0E943B1A089580E090E00E94542328
:1034D00080E090E00E943E231092410310923F034F
:1034E0000E94AA29E8E9F2E086E0DF011D928A95B0
:1034F000E9F710929502109292021092C9020C9470
:103500002C131092400386E0EEEEF2E0DF011D92F4
:103510008A95E9F70C94641A882309F45CC0823810
:1035200069F40E946A2381FF56C069E38CEE92E041
:103530000E94C0280E94AA2969E30EC0833891F432
:103540000E946A2380FF47C063E58CEE92E00E94F0
:10355000C0280E94AA2963E58CEE92E00E94B3285D
:103560000C94AA29843869F40E946A2382FF33C02C
:1035700067E48CEE92E00E94C0280E94AA2967E4CA
:10358000EBCF9CEF980F913A10F4682FE5CF90E2C3
:10359000980F983050F4877091E001C0990F8A9588
:1035A000EAF7892F0E946829DBCF9BE5980F9330BB
:1035B00020F480E090E00C94542398E5980F973124
:1035C00020F480E090E00C943E23803F20F00E94A5
:1035D00056130C942C130895CF93882309F49EC09E
:1035E000C82F8238B1F40E946A2381FD97C069E335
:1035F0008CEE92E00E94C0280E94AA292FEF81EE53
:1036000094E0215080409040E1F700C0000069E361
:1036100017C08338E1F40E946A2380FD7FC063E510
:103620008CEE92E00E94C0280E94AA292FEF81EE22
:1036300094E0215080409040E1F700C0000063E535
:103640008CEE92E00E94B328CF910C94AA29843882
:10365000B1F40E946A2382FD61C067E48CEE92E0BF
:103660000E94C0280E94AA292FEF81EE94E02150E9
:1036700080409040E1F700C0000067E4E1CF8CEFAC
:103680008C0F813A80F4EEEEF2E084EF92E021912B
:10369000C217E1F18E179F07D1F76C2F8CEE92E0E5
:1036A0000E94C028D1CF80E28C0F883068F4C770A8
:1036B00081E090E001C0880FCA95EAF7909140033D
:1036C000892B80934003C0CFEBE5EC0FE33040F44F
:1036D000F0E0E45DFE4F808190E0CF910C945423A4
:1036E000E8E5EC0FE73150F4F0E0EE0FFF1FE15D8D
:1036F000FE4F80819181CF910C943E23C03F70F0AA
:103700008C2F0E946414CF910C942C136C2F8CEE90
:1037100092E00E94B3280E94AA29BFCFCF910895BA
:103720001F93CF93DF93182F893329F4C0915C0244
:10373000D0915D0204C0C0915A02D0915B02812FEA
:103740000E94EC1A209741F08FE99FE00197F1F772
:1037500000C000002197F6CF812FDF91CF911F91FC
:103760000C948C1AEF92FF920F931F93CF93DF93D9
:103770008091F90282958F7009F062C08091F60203
:10378000882309F45DC0C0912B038091FA02C81709
:1037900009F456C01091F4020091F502E090F7028E
:1037A000F090F802A701602F812F0E944A2BD0E0F1
:1037B000811143C0CE0166E070E00E942A2CFC011A
:1037C000E550FD4F5181501338C04081411335C041
:1037D0008281811132C0038114810E191F0920E0FA
:1037E0006091F6027091F7028091F8020E944F18E2
:1037F000809154029091550208171907F0F48091B6
:10380000F9028F7080618093F902CE0166E070E06A
:103810000E942A2CFC01E050FD4F90819F70906126
:10382000908384EF92E00E94FD02DF91CF911F917F
:103830000F91FF90EF900C94592B2196C770A5CF54
:10384000DF91CF911F910F91FF90EF9008954F92CC
:103850005F926F927F928F929F92AF92BF92CF9220
:10386000DF92EF92FF920F931F93CF93DF93CDB729
:10387000DEB761970FB6F894DEBF0FBECDBF8C01E7
:1038800085E0F801DE011D9601900D928A95E1F721
:10389000D801EC901196FC90119712966C9084EFE1
:1038A000A82E82E0B82E8090F7029090F802A40132
:1038B0006091F5028091F4020E944A2B782E8111CA
:1038C000DBC1F801C380D4804090F602C60188199C
:1038D00099094C0120E04091F4025091F5024420F6
:1038E00009F457C1642D7091F7028091F8020E948B
:1038F0004F1880915402909155025090F902881609
:10390000990608F013C14091F7025091F802B09067
:10391000F402A090F502852D807F6A2D09F0A5C0E4
:103920008B2D0E944A2B811115C0AF1013C0BE1001
:1039300011C061100FC0852D8F7080618093F902D6
:1039400084EF92E00E94FD028091F902D801159661
:103950008C93B1C120E04091F4025091F502609146
:10396000F6027091F7028091F8020E944F18809140
:10397000540290915502843F914050F0A6016F2D62
:103980008E2D0E944A2B811115C081E0862514C01E
:1039900020E04091F4025091F5026091F60270919E
:1039A000F7028091F8020E944F188091590280FD21
:1039B000E5CF17C080E090E080FF13C0462D6F2D4B
:1039C0008E2D0E94262B882361F084EF92E00E94C6
:1039D000FD02E4EFF2E086E0DF011D928A95E9F74F
:1039E0006AC1A6016F2D8E2D0E944A2B811103C042
:1039F00081E0862502C080E090E0B82FB170CB2E28
:103A000080FF2AC0462D6F2D8E2D0E94262BD82E8A
:103A1000811122C0ED86FE868D859E850E942D2A0D
:103A2000292F22952F70223018F0243078F405C009
:103A30009F7049F0811107C00DC09F7021F0F801FF
:103A40009581907F39F0805E883020F0C8010E9417
:103A5000FD02DC2C7D2C2FC1662009F42BC1809146
:103A6000F90281608093F90226C18B2D0E944A2BB6
:103A7000811115C0AF1013C0BE1011C061100FC06E
:103A8000D80115965C92C8010E94FD0286E0F801FB
:103A9000A4EFB2E001900D928A95E1F760C0ED8647
:103AA000FE868D859E850E945F1A8823C9F1662057
:103AB000B9F12091F902822F82958F7090E00297E0
:103AC00074F08091F4029091F50298878F831986A3
:103AD000DB86CA862C87CE0107960E94FD0286E00F
:103AE000F801A4EFB2E001900D928A95E1F70E94EF
:103AF000B21B19C09090F4028090F5024091F70239
:103B00005091F802682D892D0E944A2B8823B1F02C
:103B1000ED86FE868D859E850E945F1A811121C0EB
:103B2000C8010E94FD0277247394C5C0852D807F53
:103B300009F784EF92E00E94FD0298C08F10E8CF51
:103B40009E10E6CF6110E4CFD80115965C92C801B3
:103B50000E94FD0286E0F50111928A95E9F7742C26
:103B6000AAC06620E9F22091F902822F82958F7017
:103B700090E002970CF4B3CF8091F4029091F5029B
:103B80009A8389831B82DD82CC822E83CE010196AB
:103B9000A4CF60E07091F7028091F8020E944F1864
:103BA00080915402909155028816990608F05EC0E3
:103BB000762C662009F4B4CFC090F402D090F502C0
:103BC0004091F7025091F8026D2D8C2D0E944A2BE6
:103BD00081113BC0DF1039C0CE1037C020E0A601F4
:103BE0006091F6027091F7028091F8020E944F18DE
:103BF0008091590282FD20C08091F90280FD1CC095
:103C000082958F70482F50E041155105A9F0209101
:103C1000F902D80115962C9315974F30510549F0AC
:103C20008F5F982F9295907F822F8F70892B15969A
:103C30008C93C8010E94FD0286E0F801A4EFB2E077
:103C400001900D928A95E1F736C0ED86FE868D854E
:103C50009E850E945F1A811142CF8091F902816096
:103C60008093F902C8010E94FD0225C086E0F5019B
:103C700011928A95E9F71FC0662009F451CFED86AD
:103C8000FE868D859E850E945F1A782E882309F412
:103C900047CF86E0F801A4EFB2E001900D928A953B
:103CA000E1F78091F4029091F5020E942D2A0E9482
:103CB000B21B01C0712C872D61960FB6F894DEBF40
:103CC0000FBECDBFDF91CF911F910F91FF90EF906D
:103CD000DF90CF90BF90AF909F908F907F906F902C
:103CE0005F904F9008958091D80287FF11C0809116
:103CF000E80082FD05C08091D6028111F8CF11C085
:103D00008091E8008B770BC08091D602882349F020
:103D10008091E80080FFF8CF8091E8008E77809353
:103D2000E80008950F931F938091E0029091E102C3
:103D3000A091E202B091E3028C019D01067011276F
:103D400022273327BC01CD0106301105210531059D
:103D500011F4686001C0677F1F910F910C94992A3C
:103D60002091E4003091E50095E64091EC00842F2D
:103D7000817040FF23C08091E80080FD1DC08091CC
:103D8000D602882399F0853099F08091EB0085FD6B
:103D900011C04091E4005091E5002417350729F344
:103DA000915011F09A01E1CF84E0089582E00895E6
:103DB00083E0089581E0089580E008954091E8004F
:103DC00042FFDDCF0895EF92FF920F931F93CF93A1
:103DD000DF937C018B010E94B01E811119C0E701A5
:103DE00001151105A1F08091E80085FD0AC08091C0
:103DF000E8008E778093E8000E94B01E882381F34C
:103E000007C089918093F10001501109E9CF80E04A
:103E1000DF91CF911F910F91FF90EF900895982F10
:103E2000953068F59093E900981739F07091EC009F
:103E30002091ED005091F00003C0242F762F50E028
:103E400021FD02C09F5FECCF3091EB003E7F3093AD
:103E5000EB003091ED003D7F3093ED003091EB00B1
:103E600031603093EB007093EC002093ED005093A1
:103E7000F0002091EE0027FDE5CF80E008958F70DF
:103E80008093E90081E008951F93CF93DF93CDB72E
:103E9000DEB7AA970FB6F894DEBF0FBECDBFE8ED30
:103EA000F2E08091F100819342E0E03EF407C9F72F
:103EB0008091D902833009F45EC030F4813071F012
:103EC000823009F498C0AFC08A3009F484C08B30C6
:103ED00009F469C0893009F0A6C020C08091D802D9
:103EE000813A09F0A0C08091E800877F8093E800C4
:103EF0008091DC029091DD02892B21F468E08CEC4A
:103F000092E003C060E080E090E070E00E94632BEC
:103F10008091E8008B778093E80085C08091D8027B
:103F2000813209F080C08091DC029091DD0200971F
:103F300019F0029709F077C08091E800877F80939D
:103F4000E8008091E80082FD05C08091D6028111D1
:103F5000F8CF69C08091F200823029F48091F1009D
:103F60008B7F813021F48091F1008093CB0280918E
:103F7000E8008B7754C08091D802813A09F053C091
:103F80008091DC029091DD02892B09F04CC0809178
:103F9000E800877F8093E8008091E80080FFFCCFF5
:103FA0008091130137C08091D8028132E1F5809170
:103FB000DC029091DD02892BB1F58091E800877FCA
:103FC0008093E8000E94731E8091DA0280931301AF
:103FD0000E94811A28C08091D802813221F58091F7
:103FE000E800877F8093E8000E94731E8091DB02C7
:103FF0008093CA0218C08091D802813AA1F48091BE
:10400000E800877F8093E8008091E80080FFFCCF84
:104010008091CA028093F1008091E8008E778093AE
:10402000E8000E94731E8091E80083FFE5C1809143
:10403000D8029091D902492F50E04A30510508F03A
:10404000DBC1FA01EE59FF4F0C94632C803821F04C
:10405000823809F0D1C108C08091D4029091D50274
:10406000992389F082600FC08091DC028F708530C7
:1040700008F0C2C18093E9008091EB0085FB88279E
:1040800080F91092E9009091E800977F9093E80002
:104090008093F1001092F10078C1282F2D7F09F054
:1040A000ABC1882319F0823061F0A6C18091DA0299
:1040B000813009F0A1C1933009F080E08093D502EE
:1040C0002EC08091DA0281112AC08091DC028F70AB
:1040D0002FEF280F243008F08FC18093E900209142
:1040E000EB0020FF1CC0933021F48091EB00806234
:1040F00014C09091EB0090619093EB0021E030E0D0
:10410000A90102C0440F551F8A95E2F74093EA00C7
:104110001092EA008091EB0088608093EB0010928F
:10412000E9008091E800877F8093E8000E94731E79
:1041300063C1811161C11091DA021F778091E300A0
:104140008078812B8093E3008091E800877F8093C3
:10415000E8000E94731E8091E80080FFFCCF8091F0
:10416000E30080688093E300111102C082E001C087
:1041700083E08093D60240C18058823008F03CC171
:104180002091DA023091DB022C3D53E0350779F5BE
:1041900083E08A838AE289834FB7F894DE0113961D
:1041A00020E03EE051E2E32FF0E050935700E4912D
:1041B00020FF03C0E295EF703F5FEF708E2F90E01D
:1041C000EA3010F0C79601C0C0968D939D932F5F83
:1041D000243149F74FBF8091E800877F8093E80042
:1041E0006AE270E0CE0101960E94632BBCC0809110
:1041F000DC029091DD02432F552743305105B1F089
:1042000068F44130510509F406C14230510509F006
:10421000F3C08BE590E0EBEFF3E057C0413251057E
:1042200089F14232510509F43CC0E6C0C901992721
:1042300081309105B9F070F082309105D9F0039783
:1042400009F0DAC0E8E6F4E0E4918E2F90E0E8E6C9
:10425000F4E038C0E4EAF4E0E4918E2F90E0E4EA80
:10426000F4E030C0E4E9F4E0E4918E2F90E0E4E97A
:10427000F4E028C0E6E8F4E0E4918E2F90E0E6E870
:10428000F4E020C08330910508F0B6C0880F991F74
:10429000FC01EA59FE4F0190F081E02D89E090E0A9
:1042A00014C08330910508F0A7C0FC01EE0FFF1F7A
:1042B000E05AFE4F0190F081E02DDC01A35ABE4F81
:1042C0008C9190E0009709F497C02091E800277F37
:1042D0002093E8002091DE023091DF022817390791
:1042E00008F4C90140E0009769F12091D602222329
:1042F000D1F12530C1F12091E80023FD34C0209197
:10430000E80022FD2CC02091E80020FFECCF209196
:10431000F20030E0009759F02830310540F4449124
:104320004093F100319601972F5F3F4FF3CF41E06B
:104330002830310509F040E02091E8002E772093E5
:10434000E800D1CF4111D1CF0AC08091D602882395
:1043500051F0853041F08091E80083FD04C08091E8
:10436000E80082FFF2CF8091E8008B778093E8002D
:1043700043C0803809F040C08091E800877F809377
:10438000E8008091D7028093F1008091E8008E7759
:10439000CBCE811131C08091DA029091DB02992756
:1043A000029754F58091E800877F8093E800109190
:1043B000DA021093D7020E94731E111106C0809179
:1043C000E30087FD02C081E001C084E08093D60253
:1043D00042E061EC81E00E940F1F42E261EC84E068
:1043E0000E940F1F42E261EC82E00E940F1F42E236
:1043F00060EC83E00E940F1F8091E80083FF10C0F3
:104400008091E800877F8093E8008091EB008062D4
:104410008093EB0005C082E190E0E6E5F4E055CF43
:10442000AA960FB6F894DEBF0FBECDBFDF91CF9135
:104430001F9108951F920F920FB60F9211242F9380
:104440003F934F935F936F937F938F939F93AF931C
:10445000BF93CF93DF93EF93FF93C091E900CF70A9
:104460008091EC00D82FD17080FDD0E81092E90047
:104470008091F000877F8093F00078940E94441F21
:104480001092E9008091F00088608093F000CD2BBD
:10449000CF70C093E900FF91EF91DF91CF91BF9171
:1044A000AF919F918F917F916F915F914F913F91CC
:1044B0002F910F900FBE0F901F9018951F920F9283
:1044C0000FB60F9211242F933F934F935F936F93E7
:1044D0007F938F939F93AF93BF93EF93FF938091BD
:1044E000E10082FF09C08091E20082FF05C0809157
:1044F000E1008B7F8093E1008091E10080FF17C095
:104500008091E20080FF13C08091E2008E7F809353
:10451000E2008091E20080618093E2008091D80007
:1045200080628093D80019BC85E08093D602809188
:10453000E10084FF2EC08091E20084FF2AC084E065
:1045400089BD86E089BD09B400FEFDCF8091D80009
:104550008F7D8093D8008091E1008F7E8093E10071
:104560008091E2008F7E8093E2008091E200816082
:104570008093E2008091D702882311F084E007C085
:104580008091E30087FD02C081E001C083E0809359
:10459000D6028091E10083FF27C08091E20083FF73
:1045A00023C08091E100877F8093E10082E08093C7
:1045B000D6021092D7028091E1008E7F8093E100B5
:1045C0008091E2008E7F8093E2008091E200806122
:1045D0008093E20042E060E080E00E940F1F809143
:1045E000F00088608093F000FF91EF91BF91AF9150
:1045F0009F918F917F916F915F914F913F912F91FB
:104600000F900FBE0F901F901895ECE3F2E084819D
:1046100095812AE030E0B9010E943B2C60930501AE
:10462000868180930601828580931701848580931B
:10463000160186859785B9010E943B2C6093030182
:1046400080898093040182898093150184898093F5
:104650001401089580913C0290913D0290931901BC
:10466000809318010895009741F0EFE9FFE031973A
:10467000F1F700C000000197F6CF08952091EA02FB
:104680003091EB022817390771F09093EB02809379
:10469000EA02E0918F02F0919002309721F00084BD
:1046A000F185E02D099408952091E8023091E90206
:1046B0002817390771F09093E9028093E802E0919E
:1046C0008F02F0919002309721F00680F781E02D63
:1046D00009940895E0918F02F0919002309721F0B3
:1046E0000190F081E02D099480E00895FF920F93EE
:1046F0001F93CF93DF938C01EB01F42E8091020185
:1047000082FF3CC08B7F80930201809136029091A2
:1047100037029B01281B390B8091180190911901D8
:104720002817390750F4809134020E94EC1A8091C6
:1047300002018D7F8093020116C080914103826047
:1047400080934103809134020E94EC1A809102010F
:104750008260809302018091570285FF04C086FD2C
:1047600002C0F1101EC080915A0290915B020E941B
:104770003323809134020E948C1A0AC0802F0E9439
:104780008C1A80913402909135020817190719F498
:1047900082E00E9461290E94AA29D0933702C09327
:1047A0003602DF91CF911F910F91FF900895CF9323
:1047B000DF93EC0181E0898B909140038F81892BFD
:1047C00080934003909141038885892B8093410316
:1047D0000E94AA29EA81FB81CE010696309729F032
:1047E0006C897D89DF91CF910994DF91CF910895F4
:1047F0000F931F93CF93DF93FC012285211134C0C7
:10480000EC01038114811755C80166E170E00E9434
:104810002A2CDC01A059BE4F1496ED91FC911597FE
:104820008A589E4F309729F054966D917C915597F8
:104830000995C80166E170E00E942A2C8C0100599C
:104840001E4FF80187810E946829F80180850E9427
:1048500061290E94AA29188219861B861E821D8240
:1048600010926F0110926E01DF91CF911F910F9105
:104870000895EEE5F2E080E090E08830910531F0B7
:10488000248127FF148201963596F7CF9093330247
:10489000809332020895CF9390912E029923C9F00C
:1048A000882311F0C0E003C010922E0212C0809144
:1048B0002E02C817C8F7EC2FF0E0EE0FFF1FE05EE6
:1048C000FD4F808191810E9417190E94AA29CF5F14
:1048D000EECFCF9108950F931F93CF93DF93C42F03
:1048E000D22FFC0182818823C9F0409338020E94B4
:1048F0007E289093E7028093E60280E28C0F883056
:1049000008F05BC0C77081E001C0880FCA95EAF764
:10491000DF91CF911F910F910C94231A809138024F
:10492000481334C08091E6029091E7020E946F28FC
:1049300020915402309155028217930738F510E206
:104940001D0FCD17B9F080E28C0F883040F4C7708E
:1049500081E001C0880FCA95EAF70E94341A183026
:1049600028F581E09D2F977001C0880F9A95EAF78E
:104970000E94231A802F0E94901B1830F0F4D770E9
:1049800081E001C0880FDA95EAF70AC080E28C0F57
:10499000883098F4C77081E001C0880FCA95EAF7A3
:1049A000DF91CF911F910F910C94341A802FDF91DA
:1049B000CF911F910F910C94901BDF91CF911F917C
:1049C0000F9108950F931F93CF93DF930CE312E0A1
:1049D000C7EED0E0CE010E94D72BF80181938F0162
:1049E0002196C930F1E0DF07A9F7C0E0D0E0FE0171
:1049F000E252FF4F85919491009711F0FC010995C7
:104A00002896C839D10599F7DF91CF911F910F9161
:104A100008950F931F93CF93DF930CE312E0C7EE3B
:104A2000D0E0CE010E94D72BF80161918F01681769
:104A300019F0CE010E94E52B2196C930F1E0DF0785
:104A400081F7DF91CF911F910F910895ECE3F2E090
:104A5000128E138E8FEA90E09183808385E0848F9D
:104A600088E893E1938382832CE231E035832483C9
:104A700082E390E09783868385E090E0918780874A
:104A80008AE090E09387828744E150E0558744872D
:104A90003787268724E630E0318B208B28E030E012
:104AA000338B228B28E230E0358B248B28EC30E0EE
:104AB000378B268B318F208F158E978F868F80E5D1
:104AC00090E091A380A30E9409250C94E224CF9347
:104AD000DF93C9EAD1E060E0CE010E94E52B219688
:104AE000C11584E0D807B9F7DF91CF9108958830D8
:104AF00088F49B0190E06AE070E00E942A2CBC01DF
:104B0000675A7E4F4AE050E0C9010E94C72B80E0FF
:104B100090E008958FEF9FEF0895883088F49B010F
:104B200090E06AE070E00E942A2CBC01675F7E4F33
:104B30004AE050E0C9010E94C72B80E090E0089550
:104B40008FEF9FEF08950F931F93CF93DF938430E0
:104B500080F5663070F5443060F521159CE5390725
:104B600031F4E0910701F0910801EF2B11F1890177
:104B7000C62FD0E093E0CC0FDD1F9A95E1F750E00F
:104B8000440F551FC40FD51F90E060E370E00E94F2
:104B90002A2CC80FD91F612FCE0187960E94E52BC2
:104BA000602FCE018896DF91CF911F910F910C94C9
:104BB000E52BDF91CF911F910F9108959F92AF92B6
:104BC000BF92CF92DF92EF92FF920F931F93CF93FA
:104BD000DF93CDB7DEB764970FB6F894DEBF0FBE94
:104BE000CDBFA0900701B090080181E090E09093C4
:104BF00008018093070100E010E0C80168E170E05F
:104C00000E942A2C6C01912CE12CF12CF701EC0D67
:104C1000FD1DEE0FFF1FE855FB4F259134914E2DE2
:104C2000692D802F0E94A3258FEFE81AF80AE4E08F
:104C3000EE16F10459F7F4E0CF0ED11C939486E000
:104C40009812E2CF0F5F1F4F04301105B1F60E949A
:104C500026251A8219821C821B821E821D821886BA
:104C60001F8288EC90E09A87898709E011E04AE08A
:104C700050E0B801CE0101960E94092C065F1F4F3B
:104C80000935E1E01E0799F77E01FBE0EF0EF11C0C
:104C90008AE0F70111928A95E9F74AE050E0B801FD
:104CA000C7010E94092C065F1F4F093AF1E01F0758
:104CB000A1F7B0920801A092070164960FB6F8948C
:104CC000DEBF0FBECDBFDF91CF911F910F91FF903F
:104CD000EF90DF90CF90BF90AF909F9008950F938B
:104CE0001F93CF93DF93843030F5663020F5443046
:104CF00010F5C62FD0E093E0CC0FDD1F9A95E1F7B9
:104D000050E0440F551FC40FD51F90E060E370E0E2
:104D10000E942A2CC80FD91FCE0187960E94D72B3C
:104D200090E0182F0027CE0188960E94D72B98017B
:104D3000282BC90102C080E090E0DF91CF911F9144
:104D40000F910895462F2091B2023091B302232B88
:104D500091F47E3F39F46E3F71F48091E4029091BA
:104D6000E5020895843038F4763028F4643018F47D
:104D7000672F0C946F2680E090E00895CF92DF9229
:104D8000FF920F931F93CF93DF93CDB7DEB7679753
:104D90000FB6F894DEBF0FBECDBFF42E4B8B052FA0
:104DA0005C8B162F6D8B7E8B8F8BCE88DF88A60158
:104DB000602F8F2D0E944A2B811109C080913A02E9
:104DC00090913B02019690933B0280933A0211111D
:104DD00010924103FE013D9686E0DF011D928A9507
:104DE000E9F780913E0290913F02892B11F10E94D8
:104DF0007E2820913C0330913D03821B930B209130
:104E00003E0230913F028217930740F080913E03AB
:104E100082FB992790F981E0892701C080E080FF1B
:104E200003C082E00E94C82A0E94902981110E943A
:104E30005629FD860E871F87D98AC88A86E0FE011B
:104E40003D96DE01179601900D928A95E1F7CE010D
:104E500007960E94271C81114CC086E0FE01379600
:104E6000DE01119601900D928A95E1F7DF80F884BA
:104E70000A851B85A8016F2D8D2D0E944A2B81115B
:104E800038C08091FA0290E09C012F5F3F4F27705D
:104E9000332740912B0350E02417350789F1D9823D
:104EA000FA821D830C8366E070E00E942A2CDC01EC
:104EB000A550BD4F96E0FE01319601900D929A9556
:104EC000E1F72093FA020E94592B13C090E066E0AC
:104ED00070E00E942A2C85509D4F0E94271C882339
:104EE000E1F080912B0390E00196877099278093E1
:104EF0002B0380912B039091FA028913E7CF0DC009
:104F00000E94811A1092FA0210922B03E4EFF2E051
:104F100086E0DF011D928A95E9F767960FB6F8944F
:104F2000DEBF0FBECDBFDF91CF911F910F91FF90DC
:104F3000DF90CF9008958091CB02089580E008958E
:104F4000CF93DF9300D01F92CDB7DEB79091D602FA
:104F5000943011F589837B836A839093E9008FEF06
:104F60009091E800815095FD06C095ED9A95F1F776
:104F700000008111F5CF8091E80085FF0DC040E071
:104F800050E063E070E0CE0101960E94E31E809144
:104F9000E8008E778093E8000F900F900F90DF91DC
:104FA000CF910895BC0184E00C94A027BC0183E05C
:104FB0000C94A02724E02093E9002FEF3091E80023
:104FC000215035FD06C035ED3A95F1F7000021116D
:104FD000F5CF2091E80025FF0BC040E050E066E0EF
:104FE00070E00E94E31E8091E8008E778093E800D5
:104FF0000895CF93DF9321E02093E9002FEF3091C4
:10500000E800215035FD06C035ED3A95F1F7000076
:105010002111F5CF2091E80025FF14C0EC0140E0FC
:1050200050E068E070E00E94E31E8091E8008E7717
:105030008093E80088E0FE01ACECB2E001900D92B4
:105040008A95E1F7DF91CF91089581E08093E000A8
:1050500080E28093D8001092C9008FE19EE401970E
:10506000F1F700C0000087E090EBDC01809349037A
:1050700090934A03A0934B03B0934C039CE088E1C8
:105080000FB6F894A895809360000FBE90936000CF
:10509000FFCF78941F920F920FB60F9211248F9327
:1050A0009F93AF93BF938091AE029091AF02A09176
:1050B000B002B091B1020196A11DB11D8093AE0264
:1050C0009093AF02A093B002B093B102BF91AF91A1
:1050D0009F918F910F900FBE0F901F9018959C017C
:1050E0004FB7F8948091AE029091AF02A091B002B8
:1050F000B091B1024FBF821B930B08952FB7F89464
:105100008091AE029091AF02A091B002B091B10235
:105110002FBF08951F920F920FB60F9211248F93F5
:105120009F93AF93BF9380919102811113C080919F
:10513000AE029091AF02A091B002B091B10241963F
:10514000A11DB11D8093AE029093AF02A093B00257
:10515000B093B102BF91AF919F918F910F900FBE0D
:105160000F901F9018959C012A5F3F4FFC014281D0
:10517000461301C01282019682179307B9F708956A
:105180009C01FC0132969FEF80E04191461789F027
:105190009F3F19F4411101C0982F8F5F8630A9F706
:1051A0009F3F39F0F901E90FF11D97FDFA956283F0
:1051B00008950895CF9384E090E00E94D72BC82FE4
:1051C00082E290E00E94D72B2C2F30E0A901582BCF
:1051D000CA01CF9108956AEE7EEF80E090E00E94D0
:1051E000032C60E082E090E00E94E52B60E083E029
:1051F00090E00E94E52B1092450310924603109216
:1052000047031092480360E084E090E00E94E52BA1
:1052100060E082E290E00E94E52B60E085E090E0B3
:105220000E94E52B60E086E090E00E94E52B6FEFA6
:1052300087E090E00E94E52B40E050E0BA0188E072
:1052400090E00E94F72B60E08DE090E00E94E52B5B
:1052500040E050E0BA0188E190E00E94F72B60E066
:1052600087E190E00E94E52B40E050E0BA018CE13C
:1052700090E00E94F72B60E070E080E290E00E94F6
:10528000032C40E050E0BA0188E190E00E94F72B47
:1052900040E050E0BA018FE090E00E94F72B40E040
:1052A00050E0BA0183E190E00C94F72B8091440325
:1052B000882331F01092440310924303109242036A
:1052C0000895809590914103892380934103089527
:1052D0008095909140038923809340030895CF9354
:1052E000C0918802C2FB992790F9981781F080FB42
:1052F000C2F9C09388026091870284E090E00E9426
:10530000E52B6C2F82E290E0CF910C94E52BCF91AE
:10531000089510923E0310923D0310923C030895AD
:1053200080913E0290913F02892B89F00E947E2855
:105330002091420330914303AC01421B530B81E0A7
:1053400020913E0230913F024217530708F480E05B
:10535000817008959091400380914103892B909131
:105360003F03892B8093EC0280914403882301F151
:1053700080913E0290913F02892B29F00E94902952
:1053800081110E9456299091EC0280914403892B4F
:105390008093EC02EEEEF2E097E080E0915029F08D
:1053A00021912223D9F38F5FF9CF81110E945629D1
:1053B000E0918F02F0919002309731F00280F381FA
:1053C000E02D8CEE92E00994089580913B038111C9
:1053D00010923B030895BF92CF92DF92EF92FF921B
:1053E0000F931F93CF93DF938C01C090E002D09076
:1053F000E102E090E202F090E30280914503909197
:105400004603A0914703B0914803C82AD92AEA2A43
:10541000FB2ACFE1D0E0D701C6010C2E04C0B6951F
:10542000A795979587950A94D2F780FD04C0219798
:1054300090F7B12C07C0BC2EB8018C2F0E94061625
:105440000197A9F38B2DDF91CF911F910F91FF90C1
:10545000EF90DF90CF90BF900895CF93DF93EC0152
:105460000E94EB29BE010E940616DF91CF9108959C
:105470009E3F69F1990F990F890FA82FA770869504
:105480008695869590E065E070E00E942A2CBC012C
:1054900040E050E090E0FB01E40FF51FE45DFC4FBD
:1054A000208130E00A2E02C0369527950A94E2F753
:1054B00021703327042E01C0220F0A94EAF7922BA1
:1054C0004F5F5F4F4530510531F7892F089580E0D8
:1054D0000895262F9E3F61F1990F990F890F982FFC
:1054E0009770A1E001C0AA0F9A95EAF78695869574
:1054F000869590E065E070E00E942A2CFC01E45D56
:10550000FC4F40E050E0622F70E090819B01042E40
:1055100002C0369527950A94E2F721702195292734
:105520002A23292721934F5F5F4F4530510569F7A3
:1055300008956093E0027093E1028093E2029093F9
:10554000E3020C94641A0F931F9341E050E060E073
:1055500070E004C0440F551F661F771F8A95D2F76D
:1055600040955095609570958091E0029091E10290
:10557000A091E202B091E3028A019B010823192362
:105580002A233B23C901B8011F910F910C94992A3A
:1055900020913E038095822380933E03982F97703D
:1055A00041F430E0482F082E000C550B2417350726
:1055B00021F49091880292FF07C085958595859585
:1055C0000E94A32A0C94892908950F931F9341E008
:1055D00050E060E070E004C0440F551F661F771F65
:1055E0008A95D2F78091E0029091E102A091E202C7
:1055F000B091E3028A019B01082B192B2A2B3B2B2C
:10560000C901B8011F910F910C94992A90918802B9
:1056100092FD10C0982F990F990F990F692B6093E5
:105620003E030E94E52A0E947E2890933D038093CA
:105630003C0308950C94E52A609345037093460358
:1056400080934703909348030C94641ACF93B82F28
:10565000C62F20912B03A091FA022A17B1F030E057
:10566000C90166E070E00E942A2CFC01E550FD4F64
:1056700081818C1306C080818B1303C082818413C7
:1056800006C02F5F3F4F2770E8CF80E001C081E068
:10569000CF910895452B41F06F3F41F491E08F3F4A
:1056A00009F090E0892F03C081E001C080E08170A3
:1056B000089580912B039091FA02891719F08F5F5A
:1056C0008770FBCF08952091DE023091DF0226170C
:1056D000370748F06115710539F42091E8002E77FD
:1056E0002093E80001C0B901FC0120E061157105BB
:1056F00061F18091D6028823D9F18530D9F180916A
:10570000E80083FD39C08091E80082FD2BC08091C4
:10571000E80080FFEBCF8091F20090E06115710509
:1057200051F08830910538F421912093F1006150B7
:1057300071090196F3CF21E0089709F020E08091EC
:10574000E8008E778093E800D1CF2111D2CF0AC034
:105750008091D602882361F0853061F08091E80065
:1057600083FD0AC08091E80082FFF2CF80E00895B7
:1057700082E0089583E0089581E00895FB01DC0153
:1057800002C005900D9241505040D8F70895DC01B9
:10579000CB01FC01F999FECF06C0F2BDE1BDF89A3C
:1057A000319600B40D9241505040B8F70895F999E0
:1057B000FECF92BD81BDF89A992780B50895A8E1E2
:1057C000B0E042E050E00C94C92B262FF999FECFAF
:1057D00092BD81BDF89A019700B4021639F01FBA44
:1057E00020BD0FB6F894FA9AF99A0FBE0895039661
:1057F000272F0E94E62B0E94E52B252F0E94E62BE7
:10580000242F0C94E62B0196272F0E94E62B0C9454
:10581000E52BDC01CB0103C02D910E94142C4150DB
:105820005040D0F70895262FF999FECF1FBA92BDA8
:1058300081BD20BD0FB6F894FA9AF99A0FBE019671
:105840000895002480FD060E660F11F08695D1F7AD
:10585000802D08950024552704C0080E591F880F75
:10586000991F009729F076956795B8F37105B9F7F8
:10587000802D952F0895AA1BBB1B51E107C0AA1FBD
:10588000BB1FA617B70710F0A61BB70B881F991FE1
:105890005A95A9F780959095BC01CD01089597FB85
:1058A000072E16F4009407D077FD09D00E943B2CF8
:1058B00007FC05D03EF4909581959F4F0895709513
:1058C00061957F4F0895EE0FFF1F0590F491E02D35
:1058D00009946927962769277827872778270895C5
:1058E000FB01DC0102C001900D9241505040D8F7FD
:1058F0000895DC0101C06D9341505040E0F70895D8
:04590000F894FFCF49
:10590400FF01011E641E3201009B27F927DA27D606
:1059140027D227012808140AAF009B71EA4424798E
:1059240003F164656667373630969594818283E225
:1059340000E900EA00B500B600B700CD008301CC51
:10594400008A0192019401210223022402250226E5
:105954000227022A02B300B4006F007000402281C3
:0C596400BB03990318030D04260446043D
:00000001FF
